{
  "_format": "hh-sol-artifact-1",
  "contractName": "MrNFT",
  "sourceName": "contracts/MrNFT.sol",
  "abi": [
    {
      "inputs": [],
      "stateMutability": "nonpayable",
      "type": "constructor"
    },
    {
      "anonymous": false,
      "inputs": [
        {
          "indexed": true,
          "internalType": "address",
          "name": "owner",
          "type": "address"
        },
        {
          "indexed": true,
          "internalType": "address",
          "name": "approved",
          "type": "address"
        },
        {
          "indexed": true,
          "internalType": "uint256",
          "name": "tokenId",
          "type": "uint256"
        }
      ],
      "name": "Approval",
      "type": "event"
    },
    {
      "anonymous": false,
      "inputs": [
        {
          "indexed": true,
          "internalType": "address",
          "name": "owner",
          "type": "address"
        },
        {
          "indexed": true,
          "internalType": "address",
          "name": "operator",
          "type": "address"
        },
        {
          "indexed": false,
          "internalType": "bool",
          "name": "approved",
          "type": "bool"
        }
      ],
      "name": "ApprovalForAll",
      "type": "event"
    },
    {
      "anonymous": false,
      "inputs": [
        {
          "indexed": true,
          "internalType": "address",
          "name": "from",
          "type": "address"
        },
        {
          "indexed": true,
          "internalType": "address",
          "name": "to",
          "type": "address"
        },
        {
          "indexed": true,
          "internalType": "uint256",
          "name": "tokenId",
          "type": "uint256"
        }
      ],
      "name": "Transfer",
      "type": "event"
    },
    {
      "inputs": [],
      "name": "MAX_SUPPLY",
      "outputs": [
        {
          "internalType": "uint256",
          "name": "",
          "type": "uint256"
        }
      ],
      "stateMutability": "view",
      "type": "function"
    },
    {
      "inputs": [
        {
          "internalType": "address",
          "name": "to",
          "type": "address"
        },
        {
          "internalType": "uint256",
          "name": "tokenId",
          "type": "uint256"
        }
      ],
      "name": "approve",
      "outputs": [],
      "stateMutability": "nonpayable",
      "type": "function"
    },
    {
      "inputs": [
        {
          "internalType": "address",
          "name": "owner",
          "type": "address"
        }
      ],
      "name": "balanceOf",
      "outputs": [
        {
          "internalType": "uint256",
          "name": "",
          "type": "uint256"
        }
      ],
      "stateMutability": "view",
      "type": "function"
    },
    {
      "inputs": [
        {
          "internalType": "uint256",
          "name": "tokenId",
          "type": "uint256"
        }
      ],
      "name": "getApproved",
      "outputs": [
        {
          "internalType": "address",
          "name": "",
          "type": "address"
        }
      ],
      "stateMutability": "view",
      "type": "function"
    },
    {
      "inputs": [
        {
          "internalType": "address",
          "name": "owner",
          "type": "address"
        },
        {
          "internalType": "address",
          "name": "operator",
          "type": "address"
        }
      ],
      "name": "isApprovedForAll",
      "outputs": [
        {
          "internalType": "bool",
          "name": "",
          "type": "bool"
        }
      ],
      "stateMutability": "view",
      "type": "function"
    },
    {
      "inputs": [
        {
          "internalType": "address",
          "name": "user",
          "type": "address"
        }
      ],
      "name": "mint",
      "outputs": [],
      "stateMutability": "nonpayable",
      "type": "function"
    },
    {
      "inputs": [],
      "name": "name",
      "outputs": [
        {
          "internalType": "string",
          "name": "",
          "type": "string"
        }
      ],
      "stateMutability": "view",
      "type": "function"
    },
    {
      "inputs": [
        {
          "internalType": "uint256",
          "name": "tokenId",
          "type": "uint256"
        }
      ],
      "name": "ownerOf",
      "outputs": [
        {
          "internalType": "address",
          "name": "",
          "type": "address"
        }
      ],
      "stateMutability": "view",
      "type": "function"
    },
    {
      "inputs": [
        {
          "internalType": "address",
          "name": "from",
          "type": "address"
        },
        {
          "internalType": "address",
          "name": "to",
          "type": "address"
        },
        {
          "internalType": "uint256",
          "name": "tokenId",
          "type": "uint256"
        }
      ],
      "name": "safeTransferFrom",
      "outputs": [],
      "stateMutability": "nonpayable",
      "type": "function"
    },
    {
      "inputs": [
        {
          "internalType": "address",
          "name": "from",
          "type": "address"
        },
        {
          "internalType": "address",
          "name": "to",
          "type": "address"
        },
        {
          "internalType": "uint256",
          "name": "tokenId",
          "type": "uint256"
        },
        {
          "internalType": "bytes",
          "name": "data",
          "type": "bytes"
        }
      ],
      "name": "safeTransferFrom",
      "outputs": [],
      "stateMutability": "nonpayable",
      "type": "function"
    },
    {
      "inputs": [
        {
          "internalType": "address",
          "name": "operator",
          "type": "address"
        },
        {
          "internalType": "bool",
          "name": "approved",
          "type": "bool"
        }
      ],
      "name": "setApprovalForAll",
      "outputs": [],
      "stateMutability": "nonpayable",
      "type": "function"
    },
    {
      "inputs": [
        {
          "internalType": "address",
          "name": "_minter",
          "type": "address"
        }
      ],
      "name": "setMinterAddress",
      "outputs": [],
      "stateMutability": "nonpayable",
      "type": "function"
    },
    {
      "inputs": [
        {
          "internalType": "bytes4",
          "name": "interfaceId",
          "type": "bytes4"
        }
      ],
      "name": "supportsInterface",
      "outputs": [
        {
          "internalType": "bool",
          "name": "",
          "type": "bool"
        }
      ],
      "stateMutability": "view",
      "type": "function"
    },
    {
      "inputs": [],
      "name": "symbol",
      "outputs": [
        {
          "internalType": "string",
          "name": "",
          "type": "string"
        }
      ],
      "stateMutability": "view",
      "type": "function"
    },
    {
      "inputs": [
        {
          "internalType": "uint256",
          "name": "tokenId",
          "type": "uint256"
        }
      ],
      "name": "tokenURI",
      "outputs": [
        {
          "internalType": "string",
          "name": "",
          "type": "string"
        }
      ],
      "stateMutability": "view",
      "type": "function"
    },
    {
      "inputs": [],
      "name": "totalSupply",
      "outputs": [
        {
          "internalType": "uint256",
          "name": "",
          "type": "uint256"
        }
      ],
      "stateMutability": "view",
      "type": "function"
    },
    {
      "inputs": [
        {
          "internalType": "address",
          "name": "from",
          "type": "address"
        },
        {
          "internalType": "address",
          "name": "to",
          "type": "address"
        },
        {
          "internalType": "uint256",
          "name": "tokenId",
          "type": "uint256"
        }
      ],
      "name": "transferFrom",
      "outputs": [],
      "stateMutability": "nonpayable",
      "type": "function"
    }
  ],
  "bytecode": "0x60806040523480156200001157600080fd5b506040518060400160405280600681526020017f4d72204e465400000000000000000000000000000000000000000000000000008152506040518060400160405280600381526020017f4d524e0000000000000000000000000000000000000000000000000000000000815250816000908051906020019062000096929190620000f9565b508060019080519060200190620000af929190620000f9565b50505033600760006101000a81548173ffffffffffffffffffffffffffffffffffffffff021916908373ffffffffffffffffffffffffffffffffffffffff1602179055506200020e565b8280546200010790620001d8565b90600052602060002090601f0160209004810192826200012b576000855562000177565b82601f106200014657805160ff191683800117855562000177565b8280016001018555821562000177579182015b828111156200017657825182559160200191906001019062000159565b5b5090506200018691906200018a565b5090565b5b80821115620001a55760008160009055506001016200018b565b5090565b7f4e487b7100000000000000000000000000000000000000000000000000000000600052602260045260246000fd5b60006002820490506001821680620001f157607f821691505b60208210811415620002085762000207620001a9565b5b50919050565b612acf806200021e6000396000f3fe608060405234801561001057600080fd5b506004361061010b5760003560e01c80636352211e116100a2578063a22cb46511610071578063a22cb465146102b8578063a3106b95146102d4578063b88d4fde146102f0578063c87b56dd1461030c578063e985e9c51461033c5761010b565b80636352211e1461021e5780636a6278421461024e57806370a082311461026a57806395d89b411461029a5761010b565b806318160ddd116100de57806318160ddd146101aa57806323b872dd146101c857806332cb6b0c146101e457806342842e0e146102025761010b565b806301ffc9a71461011057806306fdde0314610140578063081812fc1461015e578063095ea7b31461018e575b600080fd5b61012a60048036038101906101259190611b1f565b61036c565b6040516101379190611b67565b60405180910390f35b61014861044e565b6040516101559190611c1b565b60405180910390f35b61017860048036038101906101739190611c73565b6104e0565b6040516101859190611ce1565b60405180910390f35b6101a860048036038101906101a39190611d28565b610526565b005b6101b261063e565b6040516101bf9190611d77565b60405180910390f35b6101e260048036038101906101dd9190611d92565b610644565b005b6101ec6106a4565b6040516101f99190611d77565b60405180910390f35b61021c60048036038101906102179190611d92565b6106a9565b005b61023860048036038101906102339190611c73565b6106c9565b6040516102459190611ce1565b60405180910390f35b61026860048036038101906102639190611de5565b610750565b005b610284600480360381019061027f9190611de5565b610886565b6040516102919190611d77565b60405180910390f35b6102a261093e565b6040516102af9190611c1b565b60405180910390f35b6102d260048036038101906102cd9190611e3e565b6109d0565b005b6102ee60048036038101906102e99190611de5565b6109e6565b005b61030a60048036038101906103059190611fb3565b610aba565b005b61032660048036038101906103219190611c73565b610b1c565b6040516103339190611c1b565b60405180910390f35b61035660048036038101906103519190612036565b610b84565b6040516103639190611b67565b60405180910390f35b60007f80ac58cd000000000000000000000000000000000000000000000000000000007bffffffffffffffffffffffffffffffffffffffffffffffffffffffff1916827bffffffffffffffffffffffffffffffffffffffffffffffffffffffff1916148061043757507f5b5e139f000000000000000000000000000000000000000000000000000000007bffffffffffffffffffffffffffffffffffffffffffffffffffffffff1916827bffffffffffffffffffffffffffffffffffffffffffffffffffffffff1916145b80610447575061044682610c18565b5b9050919050565b60606000805461045d906120a5565b80601f0160208091040260200160405190810160405280929190818152602001828054610489906120a5565b80156104d65780601f106104ab576101008083540402835291602001916104d6565b820191906000526020600020905b8154815290600101906020018083116104b957829003601f168201915b5050505050905090565b60006104eb82610c82565b6004600083815260200190815260200160002060009054906101000a900473ffffffffffffffffffffffffffffffffffffffff169050919050565b6000610531826106c9565b90508073ffffffffffffffffffffffffffffffffffffffff168373ffffffffffffffffffffffffffffffffffffffff1614156105a2576040517f08c379a000000000000000000000000000000000000000000000000000000000815260040161059990612149565b60405180910390fd5b8073ffffffffffffffffffffffffffffffffffffffff166105c1610ccd565b73ffffffffffffffffffffffffffffffffffffffff1614806105f057506105ef816105ea610ccd565b610b84565b5b61062f576040517f08c379a0000000000000000000000000000000000000000000000000000000008152600401610626906121db565b60405180910390fd5b6106398383610cd5565b505050565b60085481565b61065561064f610ccd565b82610d8e565b610694576040517f08c379a000000000000000000000000000000000000000000000000000000000815260040161068b9061226d565b60405180910390fd5b61069f838383610e23565b505050565b600a81565b6106c483838360405180602001604052806000815250610aba565b505050565b6000806106d58361111d565b9050600073ffffffffffffffffffffffffffffffffffffffff168173ffffffffffffffffffffffffffffffffffffffff161415610747576040517f08c379a000000000000000000000000000000000000000000000000000000000815260040161073e906122d9565b60405180910390fd5b80915050919050565b600073ffffffffffffffffffffffffffffffffffffffff163373ffffffffffffffffffffffffffffffffffffffff1614156107c0576040517f08c379a00000000000000000000000000000000000000000000000000000000081526004016107b790612345565b60405180910390fd5b600660009054906101000a900473ffffffffffffffffffffffffffffffffffffffff1673ffffffffffffffffffffffffffffffffffffffff163373ffffffffffffffffffffffffffffffffffffffff1614610850576040517f08c379a0000000000000000000000000000000000000000000000000000000008152600401610847906123d7565b60405180910390fd5b600a6008541061085f57600080fd5b61086b8160085461115a565b6008600081548092919061087e90612426565b919050555050565b60008073ffffffffffffffffffffffffffffffffffffffff168273ffffffffffffffffffffffffffffffffffffffff1614156108f7576040517f08c379a00000000000000000000000000000000000000000000000000000000081526004016108ee906124e1565b60405180910390fd5b600360008373ffffffffffffffffffffffffffffffffffffffff1673ffffffffffffffffffffffffffffffffffffffff168152602001908152602001600020549050919050565b60606001805461094d906120a5565b80601f0160208091040260200160405190810160405280929190818152602001828054610979906120a5565b80156109c65780601f1061099b576101008083540402835291602001916109c6565b820191906000526020600020905b8154815290600101906020018083116109a957829003601f168201915b5050505050905090565b6109e26109db610ccd565b8383611378565b5050565b600760009054906101000a900473ffffffffffffffffffffffffffffffffffffffff1673ffffffffffffffffffffffffffffffffffffffff163373ffffffffffffffffffffffffffffffffffffffff1614610a76576040517f08c379a0000000000000000000000000000000000000000000000000000000008152600401610a6d9061254d565b60405180910390fd5b80600660006101000a81548173ffffffffffffffffffffffffffffffffffffffff021916908373ffffffffffffffffffffffffffffffffffffffff16021790555050565b610acb610ac5610ccd565b83610d8e565b610b0a576040517f08c379a0000000000000000000000000000000000000000000000000000000008152600401610b019061226d565b60405180910390fd5b610b16848484846114e5565b50505050565b6060610b2782610c82565b6000610b31611541565b90506000815111610b515760405180602001604052806000815250610b7c565b80610b5b84611561565b604051602001610b6c9291906125a9565b6040516020818303038152906040525b915050919050565b6000600560008473ffffffffffffffffffffffffffffffffffffffff1673ffffffffffffffffffffffffffffffffffffffff16815260200190815260200160002060008373ffffffffffffffffffffffffffffffffffffffff1673ffffffffffffffffffffffffffffffffffffffff16815260200190815260200160002060009054906101000a900460ff16905092915050565b60007f01ffc9a7000000000000000000000000000000000000000000000000000000007bffffffffffffffffffffffffffffffffffffffffffffffffffffffff1916827bffffffffffffffffffffffffffffffffffffffffffffffffffffffff1916149050919050565b610c8b81611639565b610cca576040517f08c379a0000000000000000000000000000000000000000000000000000000008152600401610cc1906122d9565b60405180910390fd5b50565b600033905090565b816004600083815260200190815260200160002060006101000a81548173ffffffffffffffffffffffffffffffffffffffff021916908373ffffffffffffffffffffffffffffffffffffffff160217905550808273ffffffffffffffffffffffffffffffffffffffff16610d48836106c9565b73ffffffffffffffffffffffffffffffffffffffff167f8c5be1e5ebec7d5bd14f71427d1e84f3dd0314c0f7b2291e5b200ac8c7c3b92560405160405180910390a45050565b600080610d9a836106c9565b90508073ffffffffffffffffffffffffffffffffffffffff168473ffffffffffffffffffffffffffffffffffffffff161480610ddc5750610ddb8185610b84565b5b80610e1a57508373ffffffffffffffffffffffffffffffffffffffff16610e02846104e0565b73ffffffffffffffffffffffffffffffffffffffff16145b91505092915050565b8273ffffffffffffffffffffffffffffffffffffffff16610e43826106c9565b73ffffffffffffffffffffffffffffffffffffffff1614610e99576040517f08c379a0000000000000000000000000000000000000000000000000000000008152600401610e909061263f565b60405180910390fd5b600073ffffffffffffffffffffffffffffffffffffffff168273ffffffffffffffffffffffffffffffffffffffff161415610f09576040517f08c379a0000000000000000000000000000000000000000000000000000000008152600401610f00906126d1565b60405180910390fd5b610f16838383600161167a565b8273ffffffffffffffffffffffffffffffffffffffff16610f36826106c9565b73ffffffffffffffffffffffffffffffffffffffff1614610f8c576040517f08c379a0000000000000000000000000000000000000000000000000000000008152600401610f839061263f565b60405180910390fd5b6004600082815260200190815260200160002060006101000a81549073ffffffffffffffffffffffffffffffffffffffff02191690556001600360008573ffffffffffffffffffffffffffffffffffffffff1673ffffffffffffffffffffffffffffffffffffffff168152602001908152602001600020600082825403925050819055506001600360008473ffffffffffffffffffffffffffffffffffffffff1673ffffffffffffffffffffffffffffffffffffffff16815260200190815260200160002060008282540192505081905550816002600083815260200190815260200160002060006101000a81548173ffffffffffffffffffffffffffffffffffffffff021916908373ffffffffffffffffffffffffffffffffffffffff160217905550808273ffffffffffffffffffffffffffffffffffffffff168473ffffffffffffffffffffffffffffffffffffffff167fddf252ad1be2c89b69c2b068fc378daa952ba7f163c4a11628f55a4df523b3ef60405160405180910390a461111883838360016117a0565b505050565b60006002600083815260200190815260200160002060009054906101000a900473ffffffffffffffffffffffffffffffffffffffff169050919050565b600073ffffffffffffffffffffffffffffffffffffffff168273ffffffffffffffffffffffffffffffffffffffff1614156111ca576040517f08c379a00000000000000000000000000000000000000000000000000000000081526004016111c19061273d565b60405180910390fd5b6111d381611639565b15611213576040517f08c379a000000000000000000000000000000000000000000000000000000000815260040161120a906127a9565b60405180910390fd5b61122160008383600161167a565b61122a81611639565b1561126a576040517f08c379a0000000000000000000000000000000000000000000000000000000008152600401611261906127a9565b60405180910390fd5b6001600360008473ffffffffffffffffffffffffffffffffffffffff1673ffffffffffffffffffffffffffffffffffffffff16815260200190815260200160002060008282540192505081905550816002600083815260200190815260200160002060006101000a81548173ffffffffffffffffffffffffffffffffffffffff021916908373ffffffffffffffffffffffffffffffffffffffff160217905550808273ffffffffffffffffffffffffffffffffffffffff16600073ffffffffffffffffffffffffffffffffffffffff167fddf252ad1be2c89b69c2b068fc378daa952ba7f163c4a11628f55a4df523b3ef60405160405180910390a46113746000838360016117a0565b5050565b8173ffffffffffffffffffffffffffffffffffffffff168373ffffffffffffffffffffffffffffffffffffffff1614156113e7576040517f08c379a00000000000000000000000000000000000000000000000000000000081526004016113de90612815565b60405180910390fd5b80600560008573ffffffffffffffffffffffffffffffffffffffff1673ffffffffffffffffffffffffffffffffffffffff16815260200190815260200160002060008473ffffffffffffffffffffffffffffffffffffffff1673ffffffffffffffffffffffffffffffffffffffff16815260200190815260200160002060006101000a81548160ff0219169083151502179055508173ffffffffffffffffffffffffffffffffffffffff168373ffffffffffffffffffffffffffffffffffffffff167f17307eab39ab6107e8899845ad3d59bd9653f200f220920489ca2b5937696c31836040516114d89190611b67565b60405180910390a3505050565b6114f0848484610e23565b6114fc848484846117a6565b61153b576040517f08c379a0000000000000000000000000000000000000000000000000000000008152600401611532906128a7565b60405180910390fd5b50505050565b6060604051806060016040528060368152602001612a6460369139905090565b6060600060016115708461193d565b01905060008167ffffffffffffffff81111561158f5761158e611e88565b5b6040519080825280601f01601f1916602001820160405280156115c15781602001600182028036833780820191505090505b509050600082602001820190505b60011561162e578080600190039150507f3031323334353637383961626364656600000000000000000000000000000000600a86061a8153600a8581611618576116176128c7565b5b04945060008514156116295761162e565b6115cf565b819350505050919050565b60008073ffffffffffffffffffffffffffffffffffffffff1661165b8361111d565b73ffffffffffffffffffffffffffffffffffffffff1614159050919050565b600181111561179a57600073ffffffffffffffffffffffffffffffffffffffff168473ffffffffffffffffffffffffffffffffffffffff161461170e5780600360008673ffffffffffffffffffffffffffffffffffffffff1673ffffffffffffffffffffffffffffffffffffffff168152602001908152602001600020600082825461170691906128f6565b925050819055505b600073ffffffffffffffffffffffffffffffffffffffff168373ffffffffffffffffffffffffffffffffffffffff16146117995780600360008573ffffffffffffffffffffffffffffffffffffffff1673ffffffffffffffffffffffffffffffffffffffff1681526020019081526020016000206000828254611791919061292a565b925050819055505b5b50505050565b50505050565b60006117c78473ffffffffffffffffffffffffffffffffffffffff16611a90565b15611930578373ffffffffffffffffffffffffffffffffffffffff1663150b7a026117f0610ccd565b8786866040518563ffffffff1660e01b815260040161181294939291906129d5565b602060405180830381600087803b15801561182c57600080fd5b505af192505050801561185d57506040513d601f19601f8201168201806040525081019061185a9190612a36565b60015b6118e0573d806000811461188d576040519150601f19603f3d011682016040523d82523d6000602084013e611892565b606091505b506000815114156118d8576040517f08c379a00000000000000000000000000000000000000000000000000000000081526004016118cf906128a7565b60405180910390fd5b805181602001fd5b63150b7a0260e01b7bffffffffffffffffffffffffffffffffffffffffffffffffffffffff1916817bffffffffffffffffffffffffffffffffffffffffffffffffffffffff191614915050611935565b600190505b949350505050565b600080600090507a184f03e93ff9f4daa797ed6e38ed64bf6a1f010000000000000000831061199b577a184f03e93ff9f4daa797ed6e38ed64bf6a1f0100000000000000008381611991576119906128c7565b5b0492506040810190505b6d04ee2d6d415b85acef810000000083106119d8576d04ee2d6d415b85acef810000000083816119ce576119cd6128c7565b5b0492506020810190505b662386f26fc100008310611a0757662386f26fc1000083816119fd576119fc6128c7565b5b0492506010810190505b6305f5e1008310611a30576305f5e1008381611a2657611a256128c7565b5b0492506008810190505b6127108310611a55576127108381611a4b57611a4a6128c7565b5b0492506004810190505b60648310611a785760648381611a6e57611a6d6128c7565b5b0492506002810190505b600a8310611a87576001810190505b80915050919050565b6000808273ffffffffffffffffffffffffffffffffffffffff163b119050919050565b6000604051905090565b600080fd5b600080fd5b60007fffffffff0000000000000000000000000000000000000000000000000000000082169050919050565b611afc81611ac7565b8114611b0757600080fd5b50565b600081359050611b1981611af3565b92915050565b600060208284031215611b3557611b34611abd565b5b6000611b4384828501611b0a565b91505092915050565b60008115159050919050565b611b6181611b4c565b82525050565b6000602082019050611b7c6000830184611b58565b92915050565b600081519050919050565b600082825260208201905092915050565b60005b83811015611bbc578082015181840152602081019050611ba1565b83811115611bcb576000848401525b50505050565b6000601f19601f8301169050919050565b6000611bed82611b82565b611bf78185611b8d565b9350611c07818560208601611b9e565b611c1081611bd1565b840191505092915050565b60006020820190508181036000830152611c358184611be2565b905092915050565b6000819050919050565b611c5081611c3d565b8114611c5b57600080fd5b50565b600081359050611c6d81611c47565b92915050565b600060208284031215611c8957611c88611abd565b5b6000611c9784828501611c5e565b91505092915050565b600073ffffffffffffffffffffffffffffffffffffffff82169050919050565b6000611ccb82611ca0565b9050919050565b611cdb81611cc0565b82525050565b6000602082019050611cf66000830184611cd2565b92915050565b611d0581611cc0565b8114611d1057600080fd5b50565b600081359050611d2281611cfc565b92915050565b60008060408385031215611d3f57611d3e611abd565b5b6000611d4d85828601611d13565b9250506020611d5e85828601611c5e565b9150509250929050565b611d7181611c3d565b82525050565b6000602082019050611d8c6000830184611d68565b92915050565b600080600060608486031215611dab57611daa611abd565b5b6000611db986828701611d13565b9350506020611dca86828701611d13565b9250506040611ddb86828701611c5e565b9150509250925092565b600060208284031215611dfb57611dfa611abd565b5b6000611e0984828501611d13565b91505092915050565b611e1b81611b4c565b8114611e2657600080fd5b50565b600081359050611e3881611e12565b92915050565b60008060408385031215611e5557611e54611abd565b5b6000611e6385828601611d13565b9250506020611e7485828601611e29565b9150509250929050565b600080fd5b600080fd5b7f4e487b7100000000000000000000000000000000000000000000000000000000600052604160045260246000fd5b611ec082611bd1565b810181811067ffffffffffffffff82111715611edf57611ede611e88565b5b80604052505050565b6000611ef2611ab3565b9050611efe8282611eb7565b919050565b600067ffffffffffffffff821115611f1e57611f1d611e88565b5b611f2782611bd1565b9050602081019050919050565b82818337600083830152505050565b6000611f56611f5184611f03565b611ee8565b905082815260208101848484011115611f7257611f71611e83565b5b611f7d848285611f34565b509392505050565b600082601f830112611f9a57611f99611e7e565b5b8135611faa848260208601611f43565b91505092915050565b60008060008060808587031215611fcd57611fcc611abd565b5b6000611fdb87828801611d13565b9450506020611fec87828801611d13565b9350506040611ffd87828801611c5e565b925050606085013567ffffffffffffffff81111561201e5761201d611ac2565b5b61202a87828801611f85565b91505092959194509250565b6000806040838503121561204d5761204c611abd565b5b600061205b85828601611d13565b925050602061206c85828601611d13565b9150509250929050565b7f4e487b7100000000000000000000000000000000000000000000000000000000600052602260045260246000fd5b600060028204905060018216806120bd57607f821691505b602082108114156120d1576120d0612076565b5b50919050565b7f4552433732313a20617070726f76616c20746f2063757272656e74206f776e6560008201527f7200000000000000000000000000000000000000000000000000000000000000602082015250565b6000612133602183611b8d565b915061213e826120d7565b604082019050919050565b6000602082019050818103600083015261216281612126565b9050919050565b7f4552433732313a20617070726f76652063616c6c6572206973206e6f7420746f60008201527f6b656e206f776e6572206f7220617070726f76656420666f7220616c6c000000602082015250565b60006121c5603d83611b8d565b91506121d082612169565b604082019050919050565b600060208201905081810360008301526121f4816121b8565b9050919050565b7f4552433732313a2063616c6c6572206973206e6f7420746f6b656e206f776e6560008201527f72206f7220617070726f76656400000000000000000000000000000000000000602082015250565b6000612257602d83611b8d565b9150612262826121fb565b604082019050919050565b600060208201905081810360008301526122868161224a565b9050919050565b7f4552433732313a20696e76616c696420746f6b656e2049440000000000000000600082015250565b60006122c3601883611b8d565b91506122ce8261228d565b602082019050919050565b600060208201905081810360008301526122f2816122b6565b9050919050565b7f4552433732313a204164647265737320302063616e2774206d696e7400000000600082015250565b600061232f601c83611b8d565b915061233a826122f9565b602082019050919050565b6000602082019050818103600083015261235e81612322565b9050919050565b7f4552433732313a20596f7520617265206e6f7420616c6c6f77656420746f206d60008201527f696e740000000000000000000000000000000000000000000000000000000000602082015250565b60006123c1602383611b8d565b91506123cc82612365565b604082019050919050565b600060208201905081810360008301526123f0816123b4565b9050919050565b7f4e487b7100000000000000000000000000000000000000000000000000000000600052601160045260246000fd5b600061243182611c3d565b91507fffffffffffffffffffffffffffffffffffffffffffffffffffffffffffffffff821415612464576124636123f7565b5b600182019050919050565b7f4552433732313a2061646472657373207a65726f206973206e6f74206120766160008201527f6c6964206f776e65720000000000000000000000000000000000000000000000602082015250565b60006124cb602983611b8d565b91506124d68261246f565b604082019050919050565b600060208201905081810360008301526124fa816124be565b9050919050565b7f4552433732313a20596f7520617265206e6f74207468652063726561746f7200600082015250565b6000612537601f83611b8d565b915061254282612501565b602082019050919050565b600060208201905081810360008301526125668161252a565b9050919050565b600081905092915050565b600061258382611b82565b61258d818561256d565b935061259d818560208601611b9e565b80840191505092915050565b60006125b58285612578565b91506125c18284612578565b91508190509392505050565b7f4552433732313a207472616e736665722066726f6d20696e636f72726563742060008201527f6f776e6572000000000000000000000000000000000000000000000000000000602082015250565b6000612629602583611b8d565b9150612634826125cd565b604082019050919050565b600060208201905081810360008301526126588161261c565b9050919050565b7f4552433732313a207472616e7366657220746f20746865207a65726f2061646460008201527f7265737300000000000000000000000000000000000000000000000000000000602082015250565b60006126bb602483611b8d565b91506126c68261265f565b604082019050919050565b600060208201905081810360008301526126ea816126ae565b9050919050565b7f4552433732313a206d696e7420746f20746865207a65726f2061646472657373600082015250565b6000612727602083611b8d565b9150612732826126f1565b602082019050919050565b600060208201905081810360008301526127568161271a565b9050919050565b7f4552433732313a20746f6b656e20616c7265616479206d696e74656400000000600082015250565b6000612793601c83611b8d565b915061279e8261275d565b602082019050919050565b600060208201905081810360008301526127c281612786565b9050919050565b7f4552433732313a20617070726f766520746f2063616c6c657200000000000000600082015250565b60006127ff601983611b8d565b915061280a826127c9565b602082019050919050565b6000602082019050818103600083015261282e816127f2565b9050919050565b7f4552433732313a207472616e7366657220746f206e6f6e20455243373231526560008201527f63656976657220696d706c656d656e7465720000000000000000000000000000602082015250565b6000612891603283611b8d565b915061289c82612835565b604082019050919050565b600060208201905081810360008301526128c081612884565b9050919050565b7f4e487b7100000000000000000000000000000000000000000000000000000000600052601260045260246000fd5b600061290182611c3d565b915061290c83611c3d565b92508282101561291f5761291e6123f7565b5b828203905092915050565b600061293582611c3d565b915061294083611c3d565b9250827fffffffffffffffffffffffffffffffffffffffffffffffffffffffffffffffff03821115612975576129746123f7565b5b828201905092915050565b600081519050919050565b600082825260208201905092915050565b60006129a782612980565b6129b1818561298b565b93506129c1818560208601611b9e565b6129ca81611bd1565b840191505092915050565b60006080820190506129ea6000830187611cd2565b6129f76020830186611cd2565b612a046040830185611d68565b8181036060830152612a16818461299c565b905095945050505050565b600081519050612a3081611af3565b92915050565b600060208284031215612a4c57612a4b611abd565b5b6000612a5a84828501612a21565b9150509291505056fe697066733a2f2f516d537a6669617944697a7a7079646f464e395350466750324d6147436b53383564314a4c45437931344451556e2fa2646970667358221220128742ca9f4cf9210ff2bbce49628a457273749bf3e8adadcaa4ec35f950104564736f6c63430008090033",
  "linkReferences": {},
  "deployedLinkReferences": {}
}