{
  "_format": "hh-sol-artifact-1",
  "contractName": "MrStakingv2",
  "sourceName": "contracts/MrStaking.sol",
  "abi": [
    {
      "inputs": [
        {
          "internalType": "contract IERC721",
          "name": "_nft",
          "type": "address"
        },
        {
          "internalType": "contract MrTokenv2",
          "name": "_token",
          "type": "address"
        }
      ],
      "stateMutability": "nonpayable",
      "type": "constructor"
    },
    {
      "inputs": [
        {
          "internalType": "uint256",
          "name": "_tokenId",
          "type": "uint256"
        }
      ],
      "name": "claimRewards",
      "outputs": [],
      "stateMutability": "nonpayable",
      "type": "function"
    },
    {
      "inputs": [
        {
          "internalType": "address",
          "name": "operator",
          "type": "address"
        },
        {
          "internalType": "address",
          "name": "from",
          "type": "address"
        },
        {
          "internalType": "uint256",
          "name": "tokenId",
          "type": "uint256"
        },
        {
          "internalType": "bytes",
          "name": "data",
          "type": "bytes"
        }
      ],
      "name": "onERC721Received",
      "outputs": [
        {
          "internalType": "bytes4",
          "name": "",
          "type": "bytes4"
        }
      ],
      "stateMutability": "pure",
      "type": "function"
    },
    {
      "inputs": [
        {
          "internalType": "uint256",
          "name": "_tokenId",
          "type": "uint256"
        }
      ],
      "name": "stakeNFT",
      "outputs": [],
      "stateMutability": "nonpayable",
      "type": "function"
    },
    {
      "inputs": [
        {
          "internalType": "uint256",
          "name": "_tokenId",
          "type": "uint256"
        }
      ],
      "name": "witdrawNFT",
      "outputs": [],
      "stateMutability": "nonpayable",
      "type": "function"
    }
  ],
  "bytecode": "0x60806040523480156200001157600080fd5b5060405162000ffb38038062000ffb833981810160405281019062000037919062000183565b816000806101000a81548173ffffffffffffffffffffffffffffffffffffffff021916908373ffffffffffffffffffffffffffffffffffffffff16021790555080600160006101000a81548173ffffffffffffffffffffffffffffffffffffffff021916908373ffffffffffffffffffffffffffffffffffffffff1602179055505050620001ca565b600080fd5b600073ffffffffffffffffffffffffffffffffffffffff82169050919050565b6000620000f282620000c5565b9050919050565b60006200010682620000e5565b9050919050565b6200011881620000f9565b81146200012457600080fd5b50565b60008151905062000138816200010d565b92915050565b60006200014b82620000e5565b9050919050565b6200015d816200013e565b81146200016957600080fd5b50565b6000815190506200017d8162000152565b92915050565b600080604083850312156200019d576200019c620000c0565b5b6000620001ad8582860162000127565b9250506020620001c0858286016200016c565b9150509250929050565b610e2180620001da6000396000f3fe608060405234801561001057600080fd5b506004361061004c5760003560e01c80630962ef7914610051578063150b7a021461006d5780636eb604e01461009d578063dc358199146100b9575b600080fd5b61006b60048036038101906100669190610833565b6100d5565b005b61008760048036038101906100829190610923565b6103da565b60405161009491906109e6565b60405180910390f35b6100b760048036038101906100b29190610833565b6103ef565b005b6100d360048036038101906100ce9190610833565b61053f565b005b600260003373ffffffffffffffffffffffffffffffffffffffff1673ffffffffffffffffffffffffffffffffffffffff168152602001908152602001600020600082815260200190815260200160002060009054906101000a900460ff16610172576040517f08c379a000000000000000000000000000000000000000000000000000000000815260040161016990610a84565b60405180910390fd5b61017b816106e0565b6101ba576040517f08c379a00000000000000000000000000000000000000000000000000000000081526004016101b190610b16565b60405180910390fd5b6000600460003373ffffffffffffffffffffffffffffffffffffffff1673ffffffffffffffffffffffffffffffffffffffff1681526020019081526020016000206000838152602001908152602001600020541161024d576040517f08c379a000000000000000000000000000000000000000000000000000000000815260040161024490610ba8565b60405180910390fd5b600160009054906101000a900473ffffffffffffffffffffffffffffffffffffffff1673ffffffffffffffffffffffffffffffffffffffff166340c10f1933600460003373ffffffffffffffffffffffffffffffffffffffff1673ffffffffffffffffffffffffffffffffffffffff1681526020019081526020016000206000858152602001908152602001600020546040518363ffffffff1660e01b81526004016102fa929190610be6565b600060405180830381600087803b15801561031457600080fd5b505af1158015610328573d6000803e3d6000fd5b505050506000600460003373ffffffffffffffffffffffffffffffffffffffff1673ffffffffffffffffffffffffffffffffffffffff16815260200190815260200160002060008381526020019081526020016000208190555042600360003373ffffffffffffffffffffffffffffffffffffffff1673ffffffffffffffffffffffffffffffffffffffff16815260200190815260200160002060008381526020019081526020016000208190555050565b600063150b7a0260e01b905095945050505050565b60008054906101000a900473ffffffffffffffffffffffffffffffffffffffff1673ffffffffffffffffffffffffffffffffffffffff166342842e0e3330846040518463ffffffff1660e01b815260040161044c93929190610c0f565b600060405180830381600087803b15801561046657600080fd5b505af115801561047a573d6000803e3d6000fd5b505050506001600260003373ffffffffffffffffffffffffffffffffffffffff1673ffffffffffffffffffffffffffffffffffffffff168152602001908152602001600020600083815260200190815260200160002060006101000a81548160ff02191690831515021790555042600360003373ffffffffffffffffffffffffffffffffffffffff1673ffffffffffffffffffffffffffffffffffffffff16815260200190815260200160002060008381526020019081526020016000208190555050565b600260003373ffffffffffffffffffffffffffffffffffffffff1673ffffffffffffffffffffffffffffffffffffffff168152602001908152602001600020600082815260200190815260200160002060009054906101000a900460ff166105dc576040517f08c379a00000000000000000000000000000000000000000000000000000000081526004016105d390610cb8565b60405180910390fd5b6105e5816100d5565b60008054906101000a900473ffffffffffffffffffffffffffffffffffffffff1673ffffffffffffffffffffffffffffffffffffffff166342842e0e3033846040518463ffffffff1660e01b815260040161064293929190610c0f565b600060405180830381600087803b15801561065c57600080fd5b505af1158015610670573d6000803e3d6000fd5b505050506000600260003373ffffffffffffffffffffffffffffffffffffffff1673ffffffffffffffffffffffffffffffffffffffff168152602001908152602001600020600083815260200190815260200160002060006101000a81548160ff02191690831515021790555050565b600080600360003373ffffffffffffffffffffffffffffffffffffffff1673ffffffffffffffffffffffffffffffffffffffff168152602001908152602001600020600084815260200190815260200160002054905042603c826107449190610d07565b10156107695761075f81426107599190610d5d565b84610774565b600191505061076f565b60009150505b919050565b600062b09b3a836107859190610d91565b905080600460003373ffffffffffffffffffffffffffffffffffffffff1673ffffffffffffffffffffffffffffffffffffffff168152602001908152602001600020600084815260200190815260200160002060008282546107e79190610d07565b92505081905550505050565b600080fd5b600080fd5b6000819050919050565b610810816107fd565b811461081b57600080fd5b50565b60008135905061082d81610807565b92915050565b600060208284031215610849576108486107f3565b5b60006108578482850161081e565b91505092915050565b600073ffffffffffffffffffffffffffffffffffffffff82169050919050565b600061088b82610860565b9050919050565b61089b81610880565b81146108a657600080fd5b50565b6000813590506108b881610892565b92915050565b600080fd5b600080fd5b600080fd5b60008083601f8401126108e3576108e26108be565b5b8235905067ffffffffffffffff811115610900576108ff6108c3565b5b60208301915083600182028301111561091c5761091b6108c8565b5b9250929050565b60008060008060006080868803121561093f5761093e6107f3565b5b600061094d888289016108a9565b955050602061095e888289016108a9565b945050604061096f8882890161081e565b935050606086013567ffffffffffffffff8111156109905761098f6107f8565b5b61099c888289016108cd565b92509250509295509295909350565b60007fffffffff0000000000000000000000000000000000000000000000000000000082169050919050565b6109e0816109ab565b82525050565b60006020820190506109fb60008301846109d7565b92915050565b600082825260208201905092915050565b7f4d725374616b696e6776323a20596f7520646f6e2774206861766520616e792060008201527f4e4654207374616b656400000000000000000000000000000000000000000000602082015250565b6000610a6e602a83610a01565b9150610a7982610a12565b604082019050919050565b60006020820190508181036000830152610a9d81610a61565b9050919050565b7f4d725374616b696e6776323a20546865203234682068617665206e6f7420706160008201527f73736564207965742c20747279206c617465722e000000000000000000000000602082015250565b6000610b00603483610a01565b9150610b0b82610aa4565b604082019050919050565b60006020820190508181036000830152610b2f81610af3565b9050919050565b7f4d725374616b696e6776323a20596f752068617665206e6f7468696e6720746f60008201527f20636c61696d0000000000000000000000000000000000000000000000000000602082015250565b6000610b92602683610a01565b9150610b9d82610b36565b604082019050919050565b60006020820190508181036000830152610bc181610b85565b9050919050565b610bd181610880565b82525050565b610be0816107fd565b82525050565b6000604082019050610bfb6000830185610bc8565b610c086020830184610bd7565b9392505050565b6000606082019050610c246000830186610bc8565b610c316020830185610bc8565b610c3e6040830184610bd7565b949350505050565b7f4d725374616b696e6776323a20596f7520617265206e6f7420616c6c6f77656460008201527f20746f207769746864726177207468697320746f6b656e000000000000000000602082015250565b6000610ca2603783610a01565b9150610cad82610c46565b604082019050919050565b60006020820190508181036000830152610cd181610c95565b9050919050565b7f4e487b7100000000000000000000000000000000000000000000000000000000600052601160045260246000fd5b6000610d12826107fd565b9150610d1d836107fd565b9250827fffffffffffffffffffffffffffffffffffffffffffffffffffffffffffffffff03821115610d5257610d51610cd8565b5b828201905092915050565b6000610d68826107fd565b9150610d73836107fd565b925082821015610d8657610d85610cd8565b5b828203905092915050565b6000610d9c826107fd565b9150610da7836107fd565b9250817fffffffffffffffffffffffffffffffffffffffffffffffffffffffffffffffff0483118215151615610de057610ddf610cd8565b5b82820290509291505056fea26469706673582212209e999f2e4c6af8ec27ea253d99d42f9cb355fa3ca86d7e3a7457036773a2f7a764736f6c63430008090033",
  "linkReferences": {},
  "deployedLinkReferences": {}
}