{
  "_format": "hh-sol-artifact-1",
  "contractName": "Forging",
  "sourceName": "contracts/Forging.sol",
  "abi": [
    {
      "inputs": [
        {
          "internalType": "contract MultiToken",
          "name": "_token",
          "type": "address"
        }
      ],
      "stateMutability": "nonpayable",
      "type": "constructor"
    },
    {
      "inputs": [
        {
          "internalType": "uint256[]",
          "name": "ids",
          "type": "uint256[]"
        },
        {
          "internalType": "uint256[]",
          "name": "amounts",
          "type": "uint256[]"
        }
      ],
      "name": "forgeTokens",
      "outputs": [],
      "stateMutability": "nonpayable",
      "type": "function"
    },
    {
      "inputs": [
        {
          "internalType": "uint256[]",
          "name": "_tokenIds",
          "type": "uint256[]"
        },
        {
          "internalType": "uint256[]",
          "name": "_amount",
          "type": "uint256[]"
        }
      ],
      "name": "mintBatchToken",
      "outputs": [],
      "stateMutability": "nonpayable",
      "type": "function"
    },
    {
      "inputs": [],
      "name": "timeMinted",
      "outputs": [
        {
          "internalType": "uint256",
          "name": "",
          "type": "uint256"
        }
      ],
      "stateMutability": "view",
      "type": "function"
    },
    {
      "inputs": [
        {
          "internalType": "uint256",
          "name": "_tokenIdGive",
          "type": "uint256"
        },
        {
          "internalType": "uint256",
          "name": "_amountToExchange",
          "type": "uint256"
        },
        {
          "internalType": "uint256",
          "name": "_tokenIdReceive",
          "type": "uint256"
        }
      ],
      "name": "tradeTokens",
      "outputs": [],
      "stateMutability": "nonpayable",
      "type": "function"
    }
  ],
  "bytecode": "0x60806040523480156200001157600080fd5b5060405162001029380380620010298339818101604052810190620000379190620000fc565b806000806101000a81548173ffffffffffffffffffffffffffffffffffffffff021916908373ffffffffffffffffffffffffffffffffffffffff160217905550506200012e565b600080fd5b600073ffffffffffffffffffffffffffffffffffffffff82169050919050565b6000620000b08262000083565b9050919050565b6000620000c482620000a3565b9050919050565b620000d681620000b7565b8114620000e257600080fd5b50565b600081519050620000f681620000cb565b92915050565b6000602082840312156200011557620001146200007e565b5b60006200012584828501620000e5565b91505092915050565b610eeb806200013e6000396000f3fe608060405234801561001057600080fd5b506004361061004c5760003560e01c80631022b560146100515780632d8dfa641461006d5780636abe475414610089578063d0d27d08146100a7575b600080fd5b61006b6004803603810190610066919061098d565b6100c3565b005b6100876004803603810190610082919061098d565b6103aa565b005b61009161054e565b60405161009e9190610a14565b60405180910390f35b6100c160048036038101906100bc9190610a2f565b610554565b005b6000816000815181106100d9576100d8610a82565b5b6020026020010151905060005b600183516100f49190610ae0565b81101561015857826001826101099190610b14565b8151811061011a57610119610a82565b5b602002602001015183828151811061013557610134610a82565b5b60200260200101511461014b5761014a610b6a565b5b80806001019150506100e6565b506003835110158015610186575060008360008151811061017c5761017b610a82565b5b6020026020010151145b80156101ad57506001836001815181106101a3576101a2610a82565b5b6020026020010151145b156101fb576002836002815181106101c8576101c7610a82565b5b602002602001015114156101e8576101e360068285856106c6565b6101f6565b6101f560038285856106c6565b5b6103a5565b60008360008151811061021157610210610a82565b5b6020026020010151148015610241575060018360018151811061023757610236610a82565b5b6020026020010151145b156102585761025360038285856106c6565b6103a4565b60018360008151811061026e5761026d610a82565b5b602002602001015114801561029e575060028360018151811061029457610293610a82565b5b6020026020010151145b156102b5576102b060048285856106c6565b6103a3565b6000836000815181106102cb576102ca610a82565b5b60200260200101511480156102fb57506002836001815181106102f1576102f0610a82565b5b6020026020010151145b156103125761030d60058285856106c6565b6103a2565b60008054906101000a900473ffffffffffffffffffffffffffffffffffffffff1673ffffffffffffffffffffffffffffffffffffffff16636b20c4543385856040518463ffffffff1660e01b815260040161036f93929190610c98565b600060405180830381600087803b15801561038957600080fd5b505af115801561039d573d6000803e3d6000fd5b505050505b5b5b5b505050565b42603c6001546103ba9190610b14565b106103fa576040517f08c379a00000000000000000000000000000000000000000000000000000000081526004016103f190610d3a565b60405180910390fd5b6000826000815181106104105761040f610a82565b5b6020026020010151148015610440575060018260018151811061043657610435610a82565b5b6020026020010151145b8015610467575060028260028151811061045d5761045c610a82565b5b6020026020010151145b801561047557506003825111155b6104b4576040517f08c379a00000000000000000000000000000000000000000000000000000000081526004016104ab90610dcc565b60405180910390fd5b4260018190555060008054906101000a900473ffffffffffffffffffffffffffffffffffffffff1673ffffffffffffffffffffffffffffffffffffffff1663d81d0a153384846040518463ffffffff1660e01b815260040161051893929190610c98565b600060405180830381600087803b15801561053257600080fd5b505af1158015610546573d6000803e3d6000fd5b505050505050565b60015481565b60038311806105635750600281115b156105a3576040517f08c379a000000000000000000000000000000000000000000000000000000000815260040161059a90610e5e565b60405180910390fd5b60008054906101000a900473ffffffffffffffffffffffffffffffffffffffff1673ffffffffffffffffffffffffffffffffffffffff1663f5298aca3385856040518463ffffffff1660e01b815260040161060093929190610e7e565b600060405180830381600087803b15801561061a57600080fd5b505af115801561062e573d6000803e3d6000fd5b5050505060008054906101000a900473ffffffffffffffffffffffffffffffffffffffff1673ffffffffffffffffffffffffffffffffffffffff1663156e29f63383856040518463ffffffff1660e01b815260040161068f93929190610e7e565b600060405180830381600087803b1580156106a957600080fd5b505af11580156106bd573d6000803e3d6000fd5b50505050505050565b60008054906101000a900473ffffffffffffffffffffffffffffffffffffffff1673ffffffffffffffffffffffffffffffffffffffff16636b20c4543384846040518463ffffffff1660e01b815260040161072393929190610c98565b600060405180830381600087803b15801561073d57600080fd5b505af1158015610751573d6000803e3d6000fd5b5050505060008054906101000a900473ffffffffffffffffffffffffffffffffffffffff1673ffffffffffffffffffffffffffffffffffffffff1663156e29f63386866040518463ffffffff1660e01b81526004016107b293929190610e7e565b600060405180830381600087803b1580156107cc57600080fd5b505af11580156107e0573d6000803e3d6000fd5b5050505050505050565b6000604051905090565b600080fd5b600080fd5b600080fd5b6000601f19601f8301169050919050565b7f4e487b7100000000000000000000000000000000000000000000000000000000600052604160045260246000fd5b61084c82610803565b810181811067ffffffffffffffff8211171561086b5761086a610814565b5b80604052505050565b600061087e6107ea565b905061088a8282610843565b919050565b600067ffffffffffffffff8211156108aa576108a9610814565b5b602082029050602081019050919050565b600080fd5b6000819050919050565b6108d3816108c0565b81146108de57600080fd5b50565b6000813590506108f0816108ca565b92915050565b60006109096109048461088f565b610874565b9050808382526020820190506020840283018581111561092c5761092b6108bb565b5b835b81811015610955578061094188826108e1565b84526020840193505060208101905061092e565b5050509392505050565b600082601f830112610974576109736107fe565b5b81356109848482602086016108f6565b91505092915050565b600080604083850312156109a4576109a36107f4565b5b600083013567ffffffffffffffff8111156109c2576109c16107f9565b5b6109ce8582860161095f565b925050602083013567ffffffffffffffff8111156109ef576109ee6107f9565b5b6109fb8582860161095f565b9150509250929050565b610a0e816108c0565b82525050565b6000602082019050610a296000830184610a05565b92915050565b600080600060608486031215610a4857610a476107f4565b5b6000610a56868287016108e1565b9350506020610a67868287016108e1565b9250506040610a78868287016108e1565b9150509250925092565b7f4e487b7100000000000000000000000000000000000000000000000000000000600052603260045260246000fd5b7f4e487b7100000000000000000000000000000000000000000000000000000000600052601160045260246000fd5b6000610aeb826108c0565b9150610af6836108c0565b925082821015610b0957610b08610ab1565b5b828203905092915050565b6000610b1f826108c0565b9150610b2a836108c0565b9250827fffffffffffffffffffffffffffffffffffffffffffffffffffffffffffffffff03821115610b5f57610b5e610ab1565b5b828201905092915050565b7f4e487b7100000000000000000000000000000000000000000000000000000000600052600160045260246000fd5b600073ffffffffffffffffffffffffffffffffffffffff82169050919050565b6000610bc482610b99565b9050919050565b610bd481610bb9565b82525050565b600081519050919050565b600082825260208201905092915050565b6000819050602082019050919050565b610c0f816108c0565b82525050565b6000610c218383610c06565b60208301905092915050565b6000602082019050919050565b6000610c4582610bda565b610c4f8185610be5565b9350610c5a83610bf6565b8060005b83811015610c8b578151610c728882610c15565b9750610c7d83610c2d565b925050600181019050610c5e565b5085935050505092915050565b6000606082019050610cad6000830186610bcb565b8181036020830152610cbf8185610c3a565b90508181036040830152610cd38184610c3a565b9050949350505050565b600082825260208201905092915050565b7f464f5247494e473a20506c6561736520776169742031206d696e7574652e0000600082015250565b6000610d24601e83610cdd565b9150610d2f82610cee565b602082019050919050565b60006020820190508181036000830152610d5381610d17565b9050919050565b7f464f5247494e473a20596f752063616e206d696e74206f6e6c7920746f6b656e60008201527f7320302c3120616e6420322e0000000000000000000000000000000000000000602082015250565b6000610db6602c83610cdd565b9150610dc182610d5a565b604082019050919050565b60006020820190508181036000830152610de581610da9565b9050919050565b7f464f5247494e473a20596f752063616e207472616465206f6e6c7920746f6b6560008201527f6e7320302c312c20616e6420322e000000000000000000000000000000000000602082015250565b6000610e48602e83610cdd565b9150610e5382610dec565b604082019050919050565b60006020820190508181036000830152610e7781610e3b565b9050919050565b6000606082019050610e936000830186610bcb565b610ea06020830185610a05565b610ead6040830184610a05565b94935050505056fea2646970667358221220a96678d5c7e5997c6f0e2946ddf14d8c93dacb2413171c11f26bb482d2cb8d7564736f6c63430008090033",
  "linkReferences": {},
  "deployedLinkReferences": {}
}