{
  "_format": "hh-sol-artifact-1",
  "contractName": "PredictTheFutureChallenge",
  "sourceName": "contracts/PredictTheFuture.sol",
  "abi": [
    {
      "constant": false,
      "inputs": [],
      "name": "settle",
      "outputs": [],
      "payable": false,
      "stateMutability": "nonpayable",
      "type": "function"
    },
    {
      "constant": false,
      "inputs": [
        {
          "name": "n",
          "type": "uint8"
        }
      ],
      "name": "lockInGuess",
      "outputs": [],
      "payable": true,
      "stateMutability": "payable",
      "type": "function"
    },
    {
      "constant": true,
      "inputs": [],
      "name": "isComplete",
      "outputs": [
        {
          "name": "",
          "type": "bool"
        }
      ],
      "payable": false,
      "stateMutability": "view",
      "type": "function"
    },
    {
      "inputs": [],
      "payable": true,
      "stateMutability": "payable",
      "type": "constructor"
    }
  ],
  "bytecode": "0x6080604052670de0b6b3a76400003414151561001a57600080fd5b610333806100296000396000f300608060405260043610610057576000357c0100000000000000000000000000000000000000000000000000000000900463ffffffff16806311da60b41461005c5780632c0e005414610073578063b2fa1c9e14610096575b600080fd5b34801561006857600080fd5b506100716100c5565b005b610094600480360381019080803560ff169060200190929190505050610222565b005b3480156100a257600080fd5b506100ab6102e6565b604051808215151515815260200191505060405180910390f35b60008060009054906101000a900473ffffffffffffffffffffffffffffffffffffffff1673ffffffffffffffffffffffffffffffffffffffff163373ffffffffffffffffffffffffffffffffffffffff1614151561012257600080fd5b6001544311151561013257600080fd5b600a6001430340426040518083600019166000191681526020018281526020019250505060405180910390206001900460ff1681151561016e57fe5b06905060008060006101000a81548173ffffffffffffffffffffffffffffffffffffffff021916908373ffffffffffffffffffffffffffffffffffffffff1602179055508060ff16600060149054906101000a900460ff1660ff16141561021f573373ffffffffffffffffffffffffffffffffffffffff166108fc671bc16d674ec800009081150290604051600060405180830381858888f1935050505015801561021d573d6000803e3d6000fd5b505b50565b60008060009054906101000a900473ffffffffffffffffffffffffffffffffffffffff1673ffffffffffffffffffffffffffffffffffffffff1614151561026857600080fd5b670de0b6b3a76400003414151561027e57600080fd5b336000806101000a81548173ffffffffffffffffffffffffffffffffffffffff021916908373ffffffffffffffffffffffffffffffffffffffff16021790555080600060146101000a81548160ff021916908360ff1602179055506001430160018190555050565b6000803073ffffffffffffffffffffffffffffffffffffffff1631149050905600a165627a7a72305820a95e61b7556d145d16395d32c1b7e2efad78fd75d6cfc2a44075f9b01b023e2a0029",
  "linkReferences": {},
  "deployedLinkReferences": {}
}