{
  "_format": "hh-sol-artifact-1",
  "contractName": "Solution",
  "sourceName": "contracts/PredictTheFuture.sol",
  "abi": [
    {
      "constant": true,
      "inputs": [],
      "name": "instance",
      "outputs": [
        {
          "name": "",
          "type": "address"
        }
      ],
      "payable": false,
      "stateMutability": "view",
      "type": "function"
    },
    {
      "constant": false,
      "inputs": [],
      "name": "attack",
      "outputs": [],
      "payable": false,
      "stateMutability": "nonpayable",
      "type": "function"
    },
    {
      "constant": false,
      "inputs": [],
      "name": "setGuess",
      "outputs": [],
      "payable": true,
      "stateMutability": "payable",
      "type": "function"
    },
    {
      "inputs": [
        {
          "name": "instance_",
          "type": "address"
        }
      ],
      "payable": true,
      "stateMutability": "payable",
      "type": "constructor"
    },
    {
      "payable": true,
      "stateMutability": "payable",
      "type": "fallback"
    }
  ],
  "bytecode": "0x60806040526040516020806103b983398101806040528101908080519060200190929190505050806000806101000a81548173ffffffffffffffffffffffffffffffffffffffff021916908373ffffffffffffffffffffffffffffffffffffffff16021790555050610343806100766000396000f300608060405260043610610057576000357c0100000000000000000000000000000000000000000000000000000000900463ffffffff168063022ec095146100595780639e5faafc146100b0578063f7310592146100c7575b005b34801561006557600080fd5b5061006e6100d1565b604051808273ffffffffffffffffffffffffffffffffffffffff1673ffffffffffffffffffffffffffffffffffffffff16815260200191505060405180910390f35b3480156100bc57600080fd5b506100c56100f6565b005b6100cf610260565b005b6000809054906101000a900473ffffffffffffffffffffffffffffffffffffffff1681565b6000809054906101000a900473ffffffffffffffffffffffffffffffffffffffff1673ffffffffffffffffffffffffffffffffffffffff166311da60b46040518163ffffffff167c0100000000000000000000000000000000000000000000000000000000028152600401600060405180830381600087803b15801561017b57600080fd5b505af115801561018f573d6000803e3d6000fd5b505050506000809054906101000a900473ffffffffffffffffffffffffffffffffffffffff1673ffffffffffffffffffffffffffffffffffffffff1663b2fa1c9e6040518163ffffffff167c0100000000000000000000000000000000000000000000000000000000028152600401602060405180830381600087803b15801561021857600080fd5b505af115801561022c573d6000803e3d6000fd5b505050506040513d602081101561024257600080fd5b8101908080519060200190929190505050151561025e57600080fd5b565b6000809054906101000a900473ffffffffffffffffffffffffffffffffffffffff1673ffffffffffffffffffffffffffffffffffffffff16632c0e0054670de0b6b3a764000060006040518363ffffffff167c0100000000000000000000000000000000000000000000000000000000028152600401808260ff1681526020019150506000604051808303818588803b1580156102fc57600080fd5b505af1158015610310573d6000803e3d6000fd5b50505050505600a165627a7a7230582098aa071b01e912423dfa8d53c036be76c93a88d4294f365b267e4dab746ff3000029",
  "linkReferences": {},
  "deployedLinkReferences": {}
}