{
  "_format": "hh-sol-artifact-1",
  "contractName": "Solution",
  "sourceName": "contracts/PredictTheFuture.sol",
  "abi": [
    {
      "constant": true,
      "inputs": [],
      "name": "instance",
      "outputs": [
        {
          "name": "",
          "type": "address"
        }
      ],
      "payable": false,
      "stateMutability": "view",
      "type": "function"
    },
    {
      "constant": false,
      "inputs": [],
      "name": "attack",
      "outputs": [],
      "payable": false,
      "stateMutability": "nonpayable",
      "type": "function"
    },
    {
      "constant": false,
      "inputs": [],
      "name": "setGuess",
      "outputs": [],
      "payable": true,
      "stateMutability": "payable",
      "type": "function"
    },
    {
      "inputs": [
        {
          "name": "instance_",
          "type": "address"
        }
      ],
      "payable": true,
      "stateMutability": "payable",
      "type": "constructor"
    },
    {
      "payable": true,
      "stateMutability": "payable",
      "type": "fallback"
    }
  ],
  "bytecode": "0x606060405260405160208061037883398101604052808051906020019091905050806000806101000a81548173ffffffffffffffffffffffffffffffffffffffff021916908373ffffffffffffffffffffffffffffffffffffffff16021790555050610308806100706000396000f300606060405260043610610057576000357c0100000000000000000000000000000000000000000000000000000000900463ffffffff168063022ec095146100595780639e5faafc146100ae578063f7310592146100c3575b005b341561006457600080fd5b61006c6100cd565b604051808273ffffffffffffffffffffffffffffffffffffffff1673ffffffffffffffffffffffffffffffffffffffff16815260200191505060405180910390f35b34156100b957600080fd5b6100c16100f2565b005b6100cb61022e565b005b6000809054906101000a900473ffffffffffffffffffffffffffffffffffffffff1681565b6000809054906101000a900473ffffffffffffffffffffffffffffffffffffffff1673ffffffffffffffffffffffffffffffffffffffff166311da60b46040518163ffffffff167c0100000000000000000000000000000000000000000000000000000000028152600401600060405180830381600087803b151561017657600080fd5b5af1151561018357600080fd5b5050506000809054906101000a900473ffffffffffffffffffffffffffffffffffffffff1673ffffffffffffffffffffffffffffffffffffffff1663b2fa1c9e6040518163ffffffff167c0100000000000000000000000000000000000000000000000000000000028152600401602060405180830381600087803b151561020a57600080fd5b5af1151561021757600080fd5b50505060405180519050151561022c57600080fd5b565b6000809054906101000a900473ffffffffffffffffffffffffffffffffffffffff1673ffffffffffffffffffffffffffffffffffffffff16632c0e0054670de0b6b3a764000060006040518363ffffffff167c0100000000000000000000000000000000000000000000000000000000028152600401808260ff1681526020019150506000604051808303818588803b15156102c957600080fd5b5af115156102d657600080fd5b505050505600a165627a7a72305820da95a2bcb8f4fcaee58045b90759681c67a8bb6401592a2c4eb48765c60f38760029",
  "linkReferences": {},
  "deployedLinkReferences": {}
}