{"contracts/MrNFT.sol":{"MrNFT":{"abi":[{"inputs":[],"stateMutability":"nonpayable","type":"constructor"},{"anonymous":false,"inputs":[{"indexed":true,"internalType":"address","name":"owner","type":"address"},{"indexed":true,"internalType":"address","name":"approved","type":"address"},{"indexed":true,"internalType":"uint256","name":"tokenId","type":"uint256"}],"name":"Approval","type":"event"},{"anonymous":false,"inputs":[{"indexed":true,"internalType":"address","name":"owner","type":"address"},{"indexed":true,"internalType":"address","name":"operator","type":"address"},{"indexed":false,"internalType":"bool","name":"approved","type":"bool"}],"name":"ApprovalForAll","type":"event"},{"anonymous":false,"inputs":[{"indexed":true,"internalType":"address","name":"from","type":"address"},{"indexed":true,"internalType":"address","name":"to","type":"address"},{"indexed":true,"internalType":"uint256","name":"tokenId","type":"uint256"}],"name":"Transfer","type":"event"},{"inputs":[],"name":"MAX_SUPPLY","outputs":[{"internalType":"uint256","name":"","type":"uint256"}],"stateMutability":"view","type":"function"},{"inputs":[{"internalType":"address","name":"to","type":"address"},{"internalType":"uint256","name":"tokenId","type":"uint256"}],"name":"approve","outputs":[],"stateMutability":"nonpayable","type":"function"},{"inputs":[{"internalType":"address","name":"owner","type":"address"}],"name":"balanceOf","outputs":[{"internalType":"uint256","name":"","type":"uint256"}],"stateMutability":"view","type":"function"},{"inputs":[{"internalType":"uint256","name":"tokenId","type":"uint256"}],"name":"getApproved","outputs":[{"internalType":"address","name":"","type":"address"}],"stateMutability":"view","type":"function"},{"inputs":[{"internalType":"address","name":"owner","type":"address"},{"internalType":"address","name":"operator","type":"address"}],"name":"isApprovedForAll","outputs":[{"internalType":"bool","name":"","type":"bool"}],"stateMutability":"view","type":"function"},{"inputs":[{"internalType":"address","name":"user","type":"address"}],"name":"mint","outputs":[],"stateMutability":"nonpayable","type":"function"},{"inputs":[],"name":"name","outputs":[{"internalType":"string","name":"","type":"string"}],"stateMutability":"view","type":"function"},{"inputs":[{"internalType":"uint256","name":"tokenId","type":"uint256"}],"name":"ownerOf","outputs":[{"internalType":"address","name":"","type":"address"}],"stateMutability":"view","type":"function"},{"inputs":[{"internalType":"address","name":"from","type":"address"},{"internalType":"address","name":"to","type":"address"},{"internalType":"uint256","name":"tokenId","type":"uint256"}],"name":"safeTransferFrom","outputs":[],"stateMutability":"nonpayable","type":"function"},{"inputs":[{"internalType":"address","name":"from","type":"address"},{"internalType":"address","name":"to","type":"address"},{"internalType":"uint256","name":"tokenId","type":"uint256"},{"internalType":"bytes","name":"data","type":"bytes"}],"name":"safeTransferFrom","outputs":[],"stateMutability":"nonpayable","type":"function"},{"inputs":[{"internalType":"address","name":"operator","type":"address"},{"internalType":"bool","name":"approved","type":"bool"}],"name":"setApprovalForAll","outputs":[],"stateMutability":"nonpayable","type":"function"},{"inputs":[{"internalType":"address","name":"_minter","type":"address"}],"name":"setMinterAddress","outputs":[],"stateMutability":"nonpayable","type":"function"},{"inputs":[{"internalType":"bytes4","name":"interfaceId","type":"bytes4"}],"name":"supportsInterface","outputs":[{"internalType":"bool","name":"","type":"bool"}],"stateMutability":"view","type":"function"},{"inputs":[],"name":"symbol","outputs":[{"internalType":"string","name":"","type":"string"}],"stateMutability":"view","type":"function"},{"inputs":[{"internalType":"uint256","name":"tokenId","type":"uint256"}],"name":"tokenURI","outputs":[{"internalType":"string","name":"","type":"string"}],"stateMutability":"view","type":"function"},{"inputs":[],"name":"totalSupply","outputs":[{"internalType":"uint256","name":"","type":"uint256"}],"stateMutability":"view","type":"function"},{"inputs":[{"internalType":"address","name":"from","type":"address"},{"internalType":"address","name":"to","type":"address"},{"internalType":"uint256","name":"tokenId","type":"uint256"}],"name":"transferFrom","outputs":[],"stateMutability":"nonpayable","type":"function"}],"evm":{"bytecode":{"linkReferences":{},"object":"60806040523480156200001157600080fd5b506040518060400160405280600681526020017f4d72204e465400000000000000000000000000000000000000000000000000008152506040518060400160405280600381526020017f4d524e0000000000000000000000000000000000000000000000000000000000815250816000908051906020019062000096929190620000f9565b508060019080519060200190620000af929190620000f9565b50505033600760006101000a81548173ffffffffffffffffffffffffffffffffffffffff021916908373ffffffffffffffffffffffffffffffffffffffff1602179055506200020e565b8280546200010790620001d8565b90600052602060002090601f0160209004810192826200012b576000855562000177565b82601f106200014657805160ff191683800117855562000177565b8280016001018555821562000177579182015b828111156200017657825182559160200191906001019062000159565b5b5090506200018691906200018a565b5090565b5b80821115620001a55760008160009055506001016200018b565b5090565b7f4e487b7100000000000000000000000000000000000000000000000000000000600052602260045260246000fd5b60006002820490506001821680620001f157607f821691505b60208210811415620002085762000207620001a9565b5b50919050565b612acf806200021e6000396000f3fe608060405234801561001057600080fd5b506004361061010b5760003560e01c80636352211e116100a2578063a22cb46511610071578063a22cb465146102b8578063a3106b95146102d4578063b88d4fde146102f0578063c87b56dd1461030c578063e985e9c51461033c5761010b565b80636352211e1461021e5780636a6278421461024e57806370a082311461026a57806395d89b411461029a5761010b565b806318160ddd116100de57806318160ddd146101aa57806323b872dd146101c857806332cb6b0c146101e457806342842e0e146102025761010b565b806301ffc9a71461011057806306fdde0314610140578063081812fc1461015e578063095ea7b31461018e575b600080fd5b61012a60048036038101906101259190611b1f565b61036c565b6040516101379190611b67565b60405180910390f35b61014861044e565b6040516101559190611c1b565b60405180910390f35b61017860048036038101906101739190611c73565b6104e0565b6040516101859190611ce1565b60405180910390f35b6101a860048036038101906101a39190611d28565b610526565b005b6101b261063e565b6040516101bf9190611d77565b60405180910390f35b6101e260048036038101906101dd9190611d92565b610644565b005b6101ec6106a4565b6040516101f99190611d77565b60405180910390f35b61021c60048036038101906102179190611d92565b6106a9565b005b61023860048036038101906102339190611c73565b6106c9565b6040516102459190611ce1565b60405180910390f35b61026860048036038101906102639190611de5565b610750565b005b610284600480360381019061027f9190611de5565b610886565b6040516102919190611d77565b60405180910390f35b6102a261093e565b6040516102af9190611c1b565b60405180910390f35b6102d260048036038101906102cd9190611e3e565b6109d0565b005b6102ee60048036038101906102e99190611de5565b6109e6565b005b61030a60048036038101906103059190611fb3565b610aba565b005b61032660048036038101906103219190611c73565b610b1c565b6040516103339190611c1b565b60405180910390f35b61035660048036038101906103519190612036565b610b84565b6040516103639190611b67565b60405180910390f35b60007f80ac58cd000000000000000000000000000000000000000000000000000000007bffffffffffffffffffffffffffffffffffffffffffffffffffffffff1916827bffffffffffffffffffffffffffffffffffffffffffffffffffffffff1916148061043757507f5b5e139f000000000000000000000000000000000000000000000000000000007bffffffffffffffffffffffffffffffffffffffffffffffffffffffff1916827bffffffffffffffffffffffffffffffffffffffffffffffffffffffff1916145b80610447575061044682610c18565b5b9050919050565b60606000805461045d906120a5565b80601f0160208091040260200160405190810160405280929190818152602001828054610489906120a5565b80156104d65780601f106104ab576101008083540402835291602001916104d6565b820191906000526020600020905b8154815290600101906020018083116104b957829003601f168201915b5050505050905090565b60006104eb82610c82565b6004600083815260200190815260200160002060009054906101000a900473ffffffffffffffffffffffffffffffffffffffff169050919050565b6000610531826106c9565b90508073ffffffffffffffffffffffffffffffffffffffff168373ffffffffffffffffffffffffffffffffffffffff1614156105a2576040517f08c379a000000000000000000000000000000000000000000000000000000000815260040161059990612149565b60405180910390fd5b8073ffffffffffffffffffffffffffffffffffffffff166105c1610ccd565b73ffffffffffffffffffffffffffffffffffffffff1614806105f057506105ef816105ea610ccd565b610b84565b5b61062f576040517f08c379a0000000000000000000000000000000000000000000000000000000008152600401610626906121db565b60405180910390fd5b6106398383610cd5565b505050565b60085481565b61065561064f610ccd565b82610d8e565b610694576040517f08c379a000000000000000000000000000000000000000000000000000000000815260040161068b9061226d565b60405180910390fd5b61069f838383610e23565b505050565b600a81565b6106c483838360405180602001604052806000815250610aba565b505050565b6000806106d58361111d565b9050600073ffffffffffffffffffffffffffffffffffffffff168173ffffffffffffffffffffffffffffffffffffffff161415610747576040517f08c379a000000000000000000000000000000000000000000000000000000000815260040161073e906122d9565b60405180910390fd5b80915050919050565b600073ffffffffffffffffffffffffffffffffffffffff163373ffffffffffffffffffffffffffffffffffffffff1614156107c0576040517f08c379a00000000000000000000000000000000000000000000000000000000081526004016107b790612345565b60405180910390fd5b600660009054906101000a900473ffffffffffffffffffffffffffffffffffffffff1673ffffffffffffffffffffffffffffffffffffffff163373ffffffffffffffffffffffffffffffffffffffff1614610850576040517f08c379a0000000000000000000000000000000000000000000000000000000008152600401610847906123d7565b60405180910390fd5b600a6008541061085f57600080fd5b61086b8160085461115a565b6008600081548092919061087e90612426565b919050555050565b60008073ffffffffffffffffffffffffffffffffffffffff168273ffffffffffffffffffffffffffffffffffffffff1614156108f7576040517f08c379a00000000000000000000000000000000000000000000000000000000081526004016108ee906124e1565b60405180910390fd5b600360008373ffffffffffffffffffffffffffffffffffffffff1673ffffffffffffffffffffffffffffffffffffffff168152602001908152602001600020549050919050565b60606001805461094d906120a5565b80601f0160208091040260200160405190810160405280929190818152602001828054610979906120a5565b80156109c65780601f1061099b576101008083540402835291602001916109c6565b820191906000526020600020905b8154815290600101906020018083116109a957829003601f168201915b5050505050905090565b6109e26109db610ccd565b8383611378565b5050565b600760009054906101000a900473ffffffffffffffffffffffffffffffffffffffff1673ffffffffffffffffffffffffffffffffffffffff163373ffffffffffffffffffffffffffffffffffffffff1614610a76576040517f08c379a0000000000000000000000000000000000000000000000000000000008152600401610a6d9061254d565b60405180910390fd5b80600660006101000a81548173ffffffffffffffffffffffffffffffffffffffff021916908373ffffffffffffffffffffffffffffffffffffffff16021790555050565b610acb610ac5610ccd565b83610d8e565b610b0a576040517f08c379a0000000000000000000000000000000000000000000000000000000008152600401610b019061226d565b60405180910390fd5b610b16848484846114e5565b50505050565b6060610b2782610c82565b6000610b31611541565b90506000815111610b515760405180602001604052806000815250610b7c565b80610b5b84611561565b604051602001610b6c9291906125a9565b6040516020818303038152906040525b915050919050565b6000600560008473ffffffffffffffffffffffffffffffffffffffff1673ffffffffffffffffffffffffffffffffffffffff16815260200190815260200160002060008373ffffffffffffffffffffffffffffffffffffffff1673ffffffffffffffffffffffffffffffffffffffff16815260200190815260200160002060009054906101000a900460ff16905092915050565b60007f01ffc9a7000000000000000000000000000000000000000000000000000000007bffffffffffffffffffffffffffffffffffffffffffffffffffffffff1916827bffffffffffffffffffffffffffffffffffffffffffffffffffffffff1916149050919050565b610c8b81611639565b610cca576040517f08c379a0000000000000000000000000000000000000000000000000000000008152600401610cc1906122d9565b60405180910390fd5b50565b600033905090565b816004600083815260200190815260200160002060006101000a81548173ffffffffffffffffffffffffffffffffffffffff021916908373ffffffffffffffffffffffffffffffffffffffff160217905550808273ffffffffffffffffffffffffffffffffffffffff16610d48836106c9565b73ffffffffffffffffffffffffffffffffffffffff167f8c5be1e5ebec7d5bd14f71427d1e84f3dd0314c0f7b2291e5b200ac8c7c3b92560405160405180910390a45050565b600080610d9a836106c9565b90508073ffffffffffffffffffffffffffffffffffffffff168473ffffffffffffffffffffffffffffffffffffffff161480610ddc5750610ddb8185610b84565b5b80610e1a57508373ffffffffffffffffffffffffffffffffffffffff16610e02846104e0565b73ffffffffffffffffffffffffffffffffffffffff16145b91505092915050565b8273ffffffffffffffffffffffffffffffffffffffff16610e43826106c9565b73ffffffffffffffffffffffffffffffffffffffff1614610e99576040517f08c379a0000000000000000000000000000000000000000000000000000000008152600401610e909061263f565b60405180910390fd5b600073ffffffffffffffffffffffffffffffffffffffff168273ffffffffffffffffffffffffffffffffffffffff161415610f09576040517f08c379a0000000000000000000000000000000000000000000000000000000008152600401610f00906126d1565b60405180910390fd5b610f16838383600161167a565b8273ffffffffffffffffffffffffffffffffffffffff16610f36826106c9565b73ffffffffffffffffffffffffffffffffffffffff1614610f8c576040517f08c379a0000000000000000000000000000000000000000000000000000000008152600401610f839061263f565b60405180910390fd5b6004600082815260200190815260200160002060006101000a81549073ffffffffffffffffffffffffffffffffffffffff02191690556001600360008573ffffffffffffffffffffffffffffffffffffffff1673ffffffffffffffffffffffffffffffffffffffff168152602001908152602001600020600082825403925050819055506001600360008473ffffffffffffffffffffffffffffffffffffffff1673ffffffffffffffffffffffffffffffffffffffff16815260200190815260200160002060008282540192505081905550816002600083815260200190815260200160002060006101000a81548173ffffffffffffffffffffffffffffffffffffffff021916908373ffffffffffffffffffffffffffffffffffffffff160217905550808273ffffffffffffffffffffffffffffffffffffffff168473ffffffffffffffffffffffffffffffffffffffff167fddf252ad1be2c89b69c2b068fc378daa952ba7f163c4a11628f55a4df523b3ef60405160405180910390a461111883838360016117a0565b505050565b60006002600083815260200190815260200160002060009054906101000a900473ffffffffffffffffffffffffffffffffffffffff169050919050565b600073ffffffffffffffffffffffffffffffffffffffff168273ffffffffffffffffffffffffffffffffffffffff1614156111ca576040517f08c379a00000000000000000000000000000000000000000000000000000000081526004016111c19061273d565b60405180910390fd5b6111d381611639565b15611213576040517f08c379a000000000000000000000000000000000000000000000000000000000815260040161120a906127a9565b60405180910390fd5b61122160008383600161167a565b61122a81611639565b1561126a576040517f08c379a0000000000000000000000000000000000000000000000000000000008152600401611261906127a9565b60405180910390fd5b6001600360008473ffffffffffffffffffffffffffffffffffffffff1673ffffffffffffffffffffffffffffffffffffffff16815260200190815260200160002060008282540192505081905550816002600083815260200190815260200160002060006101000a81548173ffffffffffffffffffffffffffffffffffffffff021916908373ffffffffffffffffffffffffffffffffffffffff160217905550808273ffffffffffffffffffffffffffffffffffffffff16600073ffffffffffffffffffffffffffffffffffffffff167fddf252ad1be2c89b69c2b068fc378daa952ba7f163c4a11628f55a4df523b3ef60405160405180910390a46113746000838360016117a0565b5050565b8173ffffffffffffffffffffffffffffffffffffffff168373ffffffffffffffffffffffffffffffffffffffff1614156113e7576040517f08c379a00000000000000000000000000000000000000000000000000000000081526004016113de90612815565b60405180910390fd5b80600560008573ffffffffffffffffffffffffffffffffffffffff1673ffffffffffffffffffffffffffffffffffffffff16815260200190815260200160002060008473ffffffffffffffffffffffffffffffffffffffff1673ffffffffffffffffffffffffffffffffffffffff16815260200190815260200160002060006101000a81548160ff0219169083151502179055508173ffffffffffffffffffffffffffffffffffffffff168373ffffffffffffffffffffffffffffffffffffffff167f17307eab39ab6107e8899845ad3d59bd9653f200f220920489ca2b5937696c31836040516114d89190611b67565b60405180910390a3505050565b6114f0848484610e23565b6114fc848484846117a6565b61153b576040517f08c379a0000000000000000000000000000000000000000000000000000000008152600401611532906128a7565b60405180910390fd5b50505050565b6060604051806060016040528060368152602001612a6460369139905090565b6060600060016115708461193d565b01905060008167ffffffffffffffff81111561158f5761158e611e88565b5b6040519080825280601f01601f1916602001820160405280156115c15781602001600182028036833780820191505090505b509050600082602001820190505b60011561162e578080600190039150507f3031323334353637383961626364656600000000000000000000000000000000600a86061a8153600a8581611618576116176128c7565b5b04945060008514156116295761162e565b6115cf565b819350505050919050565b60008073ffffffffffffffffffffffffffffffffffffffff1661165b8361111d565b73ffffffffffffffffffffffffffffffffffffffff1614159050919050565b600181111561179a57600073ffffffffffffffffffffffffffffffffffffffff168473ffffffffffffffffffffffffffffffffffffffff161461170e5780600360008673ffffffffffffffffffffffffffffffffffffffff1673ffffffffffffffffffffffffffffffffffffffff168152602001908152602001600020600082825461170691906128f6565b925050819055505b600073ffffffffffffffffffffffffffffffffffffffff168373ffffffffffffffffffffffffffffffffffffffff16146117995780600360008573ffffffffffffffffffffffffffffffffffffffff1673ffffffffffffffffffffffffffffffffffffffff1681526020019081526020016000206000828254611791919061292a565b925050819055505b5b50505050565b50505050565b60006117c78473ffffffffffffffffffffffffffffffffffffffff16611a90565b15611930578373ffffffffffffffffffffffffffffffffffffffff1663150b7a026117f0610ccd565b8786866040518563ffffffff1660e01b815260040161181294939291906129d5565b602060405180830381600087803b15801561182c57600080fd5b505af192505050801561185d57506040513d601f19601f8201168201806040525081019061185a9190612a36565b60015b6118e0573d806000811461188d576040519150601f19603f3d011682016040523d82523d6000602084013e611892565b606091505b506000815114156118d8576040517f08c379a00000000000000000000000000000000000000000000000000000000081526004016118cf906128a7565b60405180910390fd5b805181602001fd5b63150b7a0260e01b7bffffffffffffffffffffffffffffffffffffffffffffffffffffffff1916817bffffffffffffffffffffffffffffffffffffffffffffffffffffffff191614915050611935565b600190505b949350505050565b600080600090507a184f03e93ff9f4daa797ed6e38ed64bf6a1f010000000000000000831061199b577a184f03e93ff9f4daa797ed6e38ed64bf6a1f0100000000000000008381611991576119906128c7565b5b0492506040810190505b6d04ee2d6d415b85acef810000000083106119d8576d04ee2d6d415b85acef810000000083816119ce576119cd6128c7565b5b0492506020810190505b662386f26fc100008310611a0757662386f26fc1000083816119fd576119fc6128c7565b5b0492506010810190505b6305f5e1008310611a30576305f5e1008381611a2657611a256128c7565b5b0492506008810190505b6127108310611a55576127108381611a4b57611a4a6128c7565b5b0492506004810190505b60648310611a785760648381611a6e57611a6d6128c7565b5b0492506002810190505b600a8310611a87576001810190505b80915050919050565b6000808273ffffffffffffffffffffffffffffffffffffffff163b119050919050565b6000604051905090565b600080fd5b600080fd5b60007fffffffff0000000000000000000000000000000000000000000000000000000082169050919050565b611afc81611ac7565b8114611b0757600080fd5b50565b600081359050611b1981611af3565b92915050565b600060208284031215611b3557611b34611abd565b5b6000611b4384828501611b0a565b91505092915050565b60008115159050919050565b611b6181611b4c565b82525050565b6000602082019050611b7c6000830184611b58565b92915050565b600081519050919050565b600082825260208201905092915050565b60005b83811015611bbc578082015181840152602081019050611ba1565b83811115611bcb576000848401525b50505050565b6000601f19601f8301169050919050565b6000611bed82611b82565b611bf78185611b8d565b9350611c07818560208601611b9e565b611c1081611bd1565b840191505092915050565b60006020820190508181036000830152611c358184611be2565b905092915050565b6000819050919050565b611c5081611c3d565b8114611c5b57600080fd5b50565b600081359050611c6d81611c47565b92915050565b600060208284031215611c8957611c88611abd565b5b6000611c9784828501611c5e565b91505092915050565b600073ffffffffffffffffffffffffffffffffffffffff82169050919050565b6000611ccb82611ca0565b9050919050565b611cdb81611cc0565b82525050565b6000602082019050611cf66000830184611cd2565b92915050565b611d0581611cc0565b8114611d1057600080fd5b50565b600081359050611d2281611cfc565b92915050565b60008060408385031215611d3f57611d3e611abd565b5b6000611d4d85828601611d13565b9250506020611d5e85828601611c5e565b9150509250929050565b611d7181611c3d565b82525050565b6000602082019050611d8c6000830184611d68565b92915050565b600080600060608486031215611dab57611daa611abd565b5b6000611db986828701611d13565b9350506020611dca86828701611d13565b9250506040611ddb86828701611c5e565b9150509250925092565b600060208284031215611dfb57611dfa611abd565b5b6000611e0984828501611d13565b91505092915050565b611e1b81611b4c565b8114611e2657600080fd5b50565b600081359050611e3881611e12565b92915050565b60008060408385031215611e5557611e54611abd565b5b6000611e6385828601611d13565b9250506020611e7485828601611e29565b9150509250929050565b600080fd5b600080fd5b7f4e487b7100000000000000000000000000000000000000000000000000000000600052604160045260246000fd5b611ec082611bd1565b810181811067ffffffffffffffff82111715611edf57611ede611e88565b5b80604052505050565b6000611ef2611ab3565b9050611efe8282611eb7565b919050565b600067ffffffffffffffff821115611f1e57611f1d611e88565b5b611f2782611bd1565b9050602081019050919050565b82818337600083830152505050565b6000611f56611f5184611f03565b611ee8565b905082815260208101848484011115611f7257611f71611e83565b5b611f7d848285611f34565b509392505050565b600082601f830112611f9a57611f99611e7e565b5b8135611faa848260208601611f43565b91505092915050565b60008060008060808587031215611fcd57611fcc611abd565b5b6000611fdb87828801611d13565b9450506020611fec87828801611d13565b9350506040611ffd87828801611c5e565b925050606085013567ffffffffffffffff81111561201e5761201d611ac2565b5b61202a87828801611f85565b91505092959194509250565b6000806040838503121561204d5761204c611abd565b5b600061205b85828601611d13565b925050602061206c85828601611d13565b9150509250929050565b7f4e487b7100000000000000000000000000000000000000000000000000000000600052602260045260246000fd5b600060028204905060018216806120bd57607f821691505b602082108114156120d1576120d0612076565b5b50919050565b7f4552433732313a20617070726f76616c20746f2063757272656e74206f776e6560008201527f7200000000000000000000000000000000000000000000000000000000000000602082015250565b6000612133602183611b8d565b915061213e826120d7565b604082019050919050565b6000602082019050818103600083015261216281612126565b9050919050565b7f4552433732313a20617070726f76652063616c6c6572206973206e6f7420746f60008201527f6b656e206f776e6572206f7220617070726f76656420666f7220616c6c000000602082015250565b60006121c5603d83611b8d565b91506121d082612169565b604082019050919050565b600060208201905081810360008301526121f4816121b8565b9050919050565b7f4552433732313a2063616c6c6572206973206e6f7420746f6b656e206f776e6560008201527f72206f7220617070726f76656400000000000000000000000000000000000000602082015250565b6000612257602d83611b8d565b9150612262826121fb565b604082019050919050565b600060208201905081810360008301526122868161224a565b9050919050565b7f4552433732313a20696e76616c696420746f6b656e2049440000000000000000600082015250565b60006122c3601883611b8d565b91506122ce8261228d565b602082019050919050565b600060208201905081810360008301526122f2816122b6565b9050919050565b7f4552433732313a204164647265737320302063616e2774206d696e7400000000600082015250565b600061232f601c83611b8d565b915061233a826122f9565b602082019050919050565b6000602082019050818103600083015261235e81612322565b9050919050565b7f4552433732313a20596f7520617265206e6f7420616c6c6f77656420746f206d60008201527f696e740000000000000000000000000000000000000000000000000000000000602082015250565b60006123c1602383611b8d565b91506123cc82612365565b604082019050919050565b600060208201905081810360008301526123f0816123b4565b9050919050565b7f4e487b7100000000000000000000000000000000000000000000000000000000600052601160045260246000fd5b600061243182611c3d565b91507fffffffffffffffffffffffffffffffffffffffffffffffffffffffffffffffff821415612464576124636123f7565b5b600182019050919050565b7f4552433732313a2061646472657373207a65726f206973206e6f74206120766160008201527f6c6964206f776e65720000000000000000000000000000000000000000000000602082015250565b60006124cb602983611b8d565b91506124d68261246f565b604082019050919050565b600060208201905081810360008301526124fa816124be565b9050919050565b7f4552433732313a20596f7520617265206e6f74207468652063726561746f7200600082015250565b6000612537601f83611b8d565b915061254282612501565b602082019050919050565b600060208201905081810360008301526125668161252a565b9050919050565b600081905092915050565b600061258382611b82565b61258d818561256d565b935061259d818560208601611b9e565b80840191505092915050565b60006125b58285612578565b91506125c18284612578565b91508190509392505050565b7f4552433732313a207472616e736665722066726f6d20696e636f72726563742060008201527f6f776e6572000000000000000000000000000000000000000000000000000000602082015250565b6000612629602583611b8d565b9150612634826125cd565b604082019050919050565b600060208201905081810360008301526126588161261c565b9050919050565b7f4552433732313a207472616e7366657220746f20746865207a65726f2061646460008201527f7265737300000000000000000000000000000000000000000000000000000000602082015250565b60006126bb602483611b8d565b91506126c68261265f565b604082019050919050565b600060208201905081810360008301526126ea816126ae565b9050919050565b7f4552433732313a206d696e7420746f20746865207a65726f2061646472657373600082015250565b6000612727602083611b8d565b9150612732826126f1565b602082019050919050565b600060208201905081810360008301526127568161271a565b9050919050565b7f4552433732313a20746f6b656e20616c7265616479206d696e74656400000000600082015250565b6000612793601c83611b8d565b915061279e8261275d565b602082019050919050565b600060208201905081810360008301526127c281612786565b9050919050565b7f4552433732313a20617070726f766520746f2063616c6c657200000000000000600082015250565b60006127ff601983611b8d565b915061280a826127c9565b602082019050919050565b6000602082019050818103600083015261282e816127f2565b9050919050565b7f4552433732313a207472616e7366657220746f206e6f6e20455243373231526560008201527f63656976657220696d706c656d656e7465720000000000000000000000000000602082015250565b6000612891603283611b8d565b915061289c82612835565b604082019050919050565b600060208201905081810360008301526128c081612884565b9050919050565b7f4e487b7100000000000000000000000000000000000000000000000000000000600052601260045260246000fd5b600061290182611c3d565b915061290c83611c3d565b92508282101561291f5761291e6123f7565b5b828203905092915050565b600061293582611c3d565b915061294083611c3d565b9250827fffffffffffffffffffffffffffffffffffffffffffffffffffffffffffffffff03821115612975576129746123f7565b5b828201905092915050565b600081519050919050565b600082825260208201905092915050565b60006129a782612980565b6129b1818561298b565b93506129c1818560208601611b9e565b6129ca81611bd1565b840191505092915050565b60006080820190506129ea6000830187611cd2565b6129f76020830186611cd2565b612a046040830185611d68565b8181036060830152612a16818461299c565b905095945050505050565b600081519050612a3081611af3565b92915050565b600060208284031215612a4c57612a4b611abd565b5b6000612a5a84828501612a21565b9150509291505056fe697066733a2f2f516d537a6669617944697a7a7079646f464e395350466750324d6147436b53383564314a4c45437931344451556e2fa2646970667358221220128742ca9f4cf9210ff2bbce49628a457273749bf3e8adadcaa4ec35f950104564736f6c63430008090033","opcodes":"PUSH1 0x80 PUSH1 0x40 MSTORE CALLVALUE DUP1 ISZERO PUSH3 0x11 JUMPI PUSH1 0x0 DUP1 REVERT JUMPDEST POP PUSH1 0x40 MLOAD DUP1 PUSH1 0x40 ADD PUSH1 0x40 MSTORE DUP1 PUSH1 0x6 DUP2 MSTORE PUSH1 0x20 ADD PUSH32 0x4D72204E46540000000000000000000000000000000000000000000000000000 DUP2 MSTORE POP PUSH1 0x40 MLOAD DUP1 PUSH1 0x40 ADD PUSH1 0x40 MSTORE DUP1 PUSH1 0x3 DUP2 MSTORE PUSH1 0x20 ADD PUSH32 0x4D524E0000000000000000000000000000000000000000000000000000000000 DUP2 MSTORE POP DUP2 PUSH1 0x0 SWAP1 DUP1 MLOAD SWAP1 PUSH1 0x20 ADD SWAP1 PUSH3 0x96 SWAP3 SWAP2 SWAP1 PUSH3 0xF9 JUMP JUMPDEST POP DUP1 PUSH1 0x1 SWAP1 DUP1 MLOAD SWAP1 PUSH1 0x20 ADD SWAP1 PUSH3 0xAF SWAP3 SWAP2 SWAP1 PUSH3 0xF9 JUMP JUMPDEST POP POP POP CALLER PUSH1 0x7 PUSH1 0x0 PUSH2 0x100 EXP DUP2 SLOAD DUP2 PUSH20 0xFFFFFFFFFFFFFFFFFFFFFFFFFFFFFFFFFFFFFFFF MUL NOT AND SWAP1 DUP4 PUSH20 0xFFFFFFFFFFFFFFFFFFFFFFFFFFFFFFFFFFFFFFFF AND MUL OR SWAP1 SSTORE POP PUSH3 0x20E JUMP JUMPDEST DUP3 DUP1 SLOAD PUSH3 0x107 SWAP1 PUSH3 0x1D8 JUMP JUMPDEST SWAP1 PUSH1 0x0 MSTORE PUSH1 0x20 PUSH1 0x0 KECCAK256 SWAP1 PUSH1 0x1F ADD PUSH1 0x20 SWAP1 DIV DUP2 ADD SWAP3 DUP3 PUSH3 0x12B JUMPI PUSH1 0x0 DUP6 SSTORE PUSH3 0x177 JUMP JUMPDEST DUP3 PUSH1 0x1F LT PUSH3 0x146 JUMPI DUP1 MLOAD PUSH1 0xFF NOT AND DUP4 DUP1 ADD OR DUP6 SSTORE PUSH3 0x177 JUMP JUMPDEST DUP3 DUP1 ADD PUSH1 0x1 ADD DUP6 SSTORE DUP3 ISZERO PUSH3 0x177 JUMPI SWAP2 DUP3 ADD JUMPDEST DUP3 DUP2 GT ISZERO PUSH3 0x176 JUMPI DUP3 MLOAD DUP3 SSTORE SWAP2 PUSH1 0x20 ADD SWAP2 SWAP1 PUSH1 0x1 ADD SWAP1 PUSH3 0x159 JUMP JUMPDEST JUMPDEST POP SWAP1 POP PUSH3 0x186 SWAP2 SWAP1 PUSH3 0x18A JUMP JUMPDEST POP SWAP1 JUMP JUMPDEST JUMPDEST DUP1 DUP3 GT ISZERO PUSH3 0x1A5 JUMPI PUSH1 0x0 DUP2 PUSH1 0x0 SWAP1 SSTORE POP PUSH1 0x1 ADD PUSH3 0x18B JUMP JUMPDEST POP SWAP1 JUMP JUMPDEST PUSH32 0x4E487B7100000000000000000000000000000000000000000000000000000000 PUSH1 0x0 MSTORE PUSH1 0x22 PUSH1 0x4 MSTORE PUSH1 0x24 PUSH1 0x0 REVERT JUMPDEST PUSH1 0x0 PUSH1 0x2 DUP3 DIV SWAP1 POP PUSH1 0x1 DUP3 AND DUP1 PUSH3 0x1F1 JUMPI PUSH1 0x7F DUP3 AND SWAP2 POP JUMPDEST PUSH1 0x20 DUP3 LT DUP2 EQ ISZERO PUSH3 0x208 JUMPI PUSH3 0x207 PUSH3 0x1A9 JUMP JUMPDEST JUMPDEST POP SWAP2 SWAP1 POP JUMP JUMPDEST PUSH2 0x2ACF DUP1 PUSH3 0x21E PUSH1 0x0 CODECOPY PUSH1 0x0 RETURN INVALID PUSH1 0x80 PUSH1 0x40 MSTORE CALLVALUE DUP1 ISZERO PUSH2 0x10 JUMPI PUSH1 0x0 DUP1 REVERT JUMPDEST POP PUSH1 0x4 CALLDATASIZE LT PUSH2 0x10B JUMPI PUSH1 0x0 CALLDATALOAD PUSH1 0xE0 SHR DUP1 PUSH4 0x6352211E GT PUSH2 0xA2 JUMPI DUP1 PUSH4 0xA22CB465 GT PUSH2 0x71 JUMPI DUP1 PUSH4 0xA22CB465 EQ PUSH2 0x2B8 JUMPI DUP1 PUSH4 0xA3106B95 EQ PUSH2 0x2D4 JUMPI DUP1 PUSH4 0xB88D4FDE EQ PUSH2 0x2F0 JUMPI DUP1 PUSH4 0xC87B56DD EQ PUSH2 0x30C JUMPI DUP1 PUSH4 0xE985E9C5 EQ PUSH2 0x33C JUMPI PUSH2 0x10B JUMP JUMPDEST DUP1 PUSH4 0x6352211E EQ PUSH2 0x21E JUMPI DUP1 PUSH4 0x6A627842 EQ PUSH2 0x24E JUMPI DUP1 PUSH4 0x70A08231 EQ PUSH2 0x26A JUMPI DUP1 PUSH4 0x95D89B41 EQ PUSH2 0x29A JUMPI PUSH2 0x10B JUMP JUMPDEST DUP1 PUSH4 0x18160DDD GT PUSH2 0xDE JUMPI DUP1 PUSH4 0x18160DDD EQ PUSH2 0x1AA JUMPI DUP1 PUSH4 0x23B872DD EQ PUSH2 0x1C8 JUMPI DUP1 PUSH4 0x32CB6B0C EQ PUSH2 0x1E4 JUMPI DUP1 PUSH4 0x42842E0E EQ PUSH2 0x202 JUMPI PUSH2 0x10B JUMP JUMPDEST DUP1 PUSH4 0x1FFC9A7 EQ PUSH2 0x110 JUMPI DUP1 PUSH4 0x6FDDE03 EQ PUSH2 0x140 JUMPI DUP1 PUSH4 0x81812FC EQ PUSH2 0x15E JUMPI DUP1 PUSH4 0x95EA7B3 EQ PUSH2 0x18E JUMPI JUMPDEST PUSH1 0x0 DUP1 REVERT JUMPDEST PUSH2 0x12A PUSH1 0x4 DUP1 CALLDATASIZE SUB DUP2 ADD SWAP1 PUSH2 0x125 SWAP2 SWAP1 PUSH2 0x1B1F JUMP JUMPDEST PUSH2 0x36C JUMP JUMPDEST PUSH1 0x40 MLOAD PUSH2 0x137 SWAP2 SWAP1 PUSH2 0x1B67 JUMP JUMPDEST PUSH1 0x40 MLOAD DUP1 SWAP2 SUB SWAP1 RETURN JUMPDEST PUSH2 0x148 PUSH2 0x44E JUMP JUMPDEST PUSH1 0x40 MLOAD PUSH2 0x155 SWAP2 SWAP1 PUSH2 0x1C1B JUMP JUMPDEST PUSH1 0x40 MLOAD DUP1 SWAP2 SUB SWAP1 RETURN JUMPDEST PUSH2 0x178 PUSH1 0x4 DUP1 CALLDATASIZE SUB DUP2 ADD SWAP1 PUSH2 0x173 SWAP2 SWAP1 PUSH2 0x1C73 JUMP JUMPDEST PUSH2 0x4E0 JUMP JUMPDEST PUSH1 0x40 MLOAD PUSH2 0x185 SWAP2 SWAP1 PUSH2 0x1CE1 JUMP JUMPDEST PUSH1 0x40 MLOAD DUP1 SWAP2 SUB SWAP1 RETURN JUMPDEST PUSH2 0x1A8 PUSH1 0x4 DUP1 CALLDATASIZE SUB DUP2 ADD SWAP1 PUSH2 0x1A3 SWAP2 SWAP1 PUSH2 0x1D28 JUMP JUMPDEST PUSH2 0x526 JUMP JUMPDEST STOP JUMPDEST PUSH2 0x1B2 PUSH2 0x63E JUMP JUMPDEST PUSH1 0x40 MLOAD PUSH2 0x1BF SWAP2 SWAP1 PUSH2 0x1D77 JUMP JUMPDEST PUSH1 0x40 MLOAD DUP1 SWAP2 SUB SWAP1 RETURN JUMPDEST PUSH2 0x1E2 PUSH1 0x4 DUP1 CALLDATASIZE SUB DUP2 ADD SWAP1 PUSH2 0x1DD SWAP2 SWAP1 PUSH2 0x1D92 JUMP JUMPDEST PUSH2 0x644 JUMP JUMPDEST STOP JUMPDEST PUSH2 0x1EC PUSH2 0x6A4 JUMP JUMPDEST PUSH1 0x40 MLOAD PUSH2 0x1F9 SWAP2 SWAP1 PUSH2 0x1D77 JUMP JUMPDEST PUSH1 0x40 MLOAD DUP1 SWAP2 SUB SWAP1 RETURN JUMPDEST PUSH2 0x21C PUSH1 0x4 DUP1 CALLDATASIZE SUB DUP2 ADD SWAP1 PUSH2 0x217 SWAP2 SWAP1 PUSH2 0x1D92 JUMP JUMPDEST PUSH2 0x6A9 JUMP JUMPDEST STOP JUMPDEST PUSH2 0x238 PUSH1 0x4 DUP1 CALLDATASIZE SUB DUP2 ADD SWAP1 PUSH2 0x233 SWAP2 SWAP1 PUSH2 0x1C73 JUMP JUMPDEST PUSH2 0x6C9 JUMP JUMPDEST PUSH1 0x40 MLOAD PUSH2 0x245 SWAP2 SWAP1 PUSH2 0x1CE1 JUMP JUMPDEST PUSH1 0x40 MLOAD DUP1 SWAP2 SUB SWAP1 RETURN JUMPDEST PUSH2 0x268 PUSH1 0x4 DUP1 CALLDATASIZE SUB DUP2 ADD SWAP1 PUSH2 0x263 SWAP2 SWAP1 PUSH2 0x1DE5 JUMP JUMPDEST PUSH2 0x750 JUMP JUMPDEST STOP JUMPDEST PUSH2 0x284 PUSH1 0x4 DUP1 CALLDATASIZE SUB DUP2 ADD SWAP1 PUSH2 0x27F SWAP2 SWAP1 PUSH2 0x1DE5 JUMP JUMPDEST PUSH2 0x886 JUMP JUMPDEST PUSH1 0x40 MLOAD PUSH2 0x291 SWAP2 SWAP1 PUSH2 0x1D77 JUMP JUMPDEST PUSH1 0x40 MLOAD DUP1 SWAP2 SUB SWAP1 RETURN JUMPDEST PUSH2 0x2A2 PUSH2 0x93E JUMP JUMPDEST PUSH1 0x40 MLOAD PUSH2 0x2AF SWAP2 SWAP1 PUSH2 0x1C1B JUMP JUMPDEST PUSH1 0x40 MLOAD DUP1 SWAP2 SUB SWAP1 RETURN JUMPDEST PUSH2 0x2D2 PUSH1 0x4 DUP1 CALLDATASIZE SUB DUP2 ADD SWAP1 PUSH2 0x2CD SWAP2 SWAP1 PUSH2 0x1E3E JUMP JUMPDEST PUSH2 0x9D0 JUMP JUMPDEST STOP JUMPDEST PUSH2 0x2EE PUSH1 0x4 DUP1 CALLDATASIZE SUB DUP2 ADD SWAP1 PUSH2 0x2E9 SWAP2 SWAP1 PUSH2 0x1DE5 JUMP JUMPDEST PUSH2 0x9E6 JUMP JUMPDEST STOP JUMPDEST PUSH2 0x30A PUSH1 0x4 DUP1 CALLDATASIZE SUB DUP2 ADD SWAP1 PUSH2 0x305 SWAP2 SWAP1 PUSH2 0x1FB3 JUMP JUMPDEST PUSH2 0xABA JUMP JUMPDEST STOP JUMPDEST PUSH2 0x326 PUSH1 0x4 DUP1 CALLDATASIZE SUB DUP2 ADD SWAP1 PUSH2 0x321 SWAP2 SWAP1 PUSH2 0x1C73 JUMP JUMPDEST PUSH2 0xB1C JUMP JUMPDEST PUSH1 0x40 MLOAD PUSH2 0x333 SWAP2 SWAP1 PUSH2 0x1C1B JUMP JUMPDEST PUSH1 0x40 MLOAD DUP1 SWAP2 SUB SWAP1 RETURN JUMPDEST PUSH2 0x356 PUSH1 0x4 DUP1 CALLDATASIZE SUB DUP2 ADD SWAP1 PUSH2 0x351 SWAP2 SWAP1 PUSH2 0x2036 JUMP JUMPDEST PUSH2 0xB84 JUMP JUMPDEST PUSH1 0x40 MLOAD PUSH2 0x363 SWAP2 SWAP1 PUSH2 0x1B67 JUMP JUMPDEST PUSH1 0x40 MLOAD DUP1 SWAP2 SUB SWAP1 RETURN JUMPDEST PUSH1 0x0 PUSH32 0x80AC58CD00000000000000000000000000000000000000000000000000000000 PUSH28 0xFFFFFFFFFFFFFFFFFFFFFFFFFFFFFFFFFFFFFFFFFFFFFFFFFFFFFFFF NOT AND DUP3 PUSH28 0xFFFFFFFFFFFFFFFFFFFFFFFFFFFFFFFFFFFFFFFFFFFFFFFFFFFFFFFF NOT AND EQ DUP1 PUSH2 0x437 JUMPI POP PUSH32 0x5B5E139F00000000000000000000000000000000000000000000000000000000 PUSH28 0xFFFFFFFFFFFFFFFFFFFFFFFFFFFFFFFFFFFFFFFFFFFFFFFFFFFFFFFF NOT AND DUP3 PUSH28 0xFFFFFFFFFFFFFFFFFFFFFFFFFFFFFFFFFFFFFFFFFFFFFFFFFFFFFFFF NOT AND EQ JUMPDEST DUP1 PUSH2 0x447 JUMPI POP PUSH2 0x446 DUP3 PUSH2 0xC18 JUMP JUMPDEST JUMPDEST SWAP1 POP SWAP2 SWAP1 POP JUMP JUMPDEST PUSH1 0x60 PUSH1 0x0 DUP1 SLOAD PUSH2 0x45D SWAP1 PUSH2 0x20A5 JUMP JUMPDEST DUP1 PUSH1 0x1F ADD PUSH1 0x20 DUP1 SWAP2 DIV MUL PUSH1 0x20 ADD PUSH1 0x40 MLOAD SWAP1 DUP2 ADD PUSH1 0x40 MSTORE DUP1 SWAP3 SWAP2 SWAP1 DUP2 DUP2 MSTORE PUSH1 0x20 ADD DUP3 DUP1 SLOAD PUSH2 0x489 SWAP1 PUSH2 0x20A5 JUMP JUMPDEST DUP1 ISZERO PUSH2 0x4D6 JUMPI DUP1 PUSH1 0x1F LT PUSH2 0x4AB JUMPI PUSH2 0x100 DUP1 DUP4 SLOAD DIV MUL DUP4 MSTORE SWAP2 PUSH1 0x20 ADD SWAP2 PUSH2 0x4D6 JUMP JUMPDEST DUP3 ADD SWAP2 SWAP1 PUSH1 0x0 MSTORE PUSH1 0x20 PUSH1 0x0 KECCAK256 SWAP1 JUMPDEST DUP2 SLOAD DUP2 MSTORE SWAP1 PUSH1 0x1 ADD SWAP1 PUSH1 0x20 ADD DUP1 DUP4 GT PUSH2 0x4B9 JUMPI DUP3 SWAP1 SUB PUSH1 0x1F AND DUP3 ADD SWAP2 JUMPDEST POP POP POP POP POP SWAP1 POP SWAP1 JUMP JUMPDEST PUSH1 0x0 PUSH2 0x4EB DUP3 PUSH2 0xC82 JUMP JUMPDEST PUSH1 0x4 PUSH1 0x0 DUP4 DUP2 MSTORE PUSH1 0x20 ADD SWAP1 DUP2 MSTORE PUSH1 0x20 ADD PUSH1 0x0 KECCAK256 PUSH1 0x0 SWAP1 SLOAD SWAP1 PUSH2 0x100 EXP SWAP1 DIV PUSH20 0xFFFFFFFFFFFFFFFFFFFFFFFFFFFFFFFFFFFFFFFF AND SWAP1 POP SWAP2 SWAP1 POP JUMP JUMPDEST PUSH1 0x0 PUSH2 0x531 DUP3 PUSH2 0x6C9 JUMP JUMPDEST SWAP1 POP DUP1 PUSH20 0xFFFFFFFFFFFFFFFFFFFFFFFFFFFFFFFFFFFFFFFF AND DUP4 PUSH20 0xFFFFFFFFFFFFFFFFFFFFFFFFFFFFFFFFFFFFFFFF AND EQ ISZERO PUSH2 0x5A2 JUMPI PUSH1 0x40 MLOAD PUSH32 0x8C379A000000000000000000000000000000000000000000000000000000000 DUP2 MSTORE PUSH1 0x4 ADD PUSH2 0x599 SWAP1 PUSH2 0x2149 JUMP JUMPDEST PUSH1 0x40 MLOAD DUP1 SWAP2 SUB SWAP1 REVERT JUMPDEST DUP1 PUSH20 0xFFFFFFFFFFFFFFFFFFFFFFFFFFFFFFFFFFFFFFFF AND PUSH2 0x5C1 PUSH2 0xCCD JUMP JUMPDEST PUSH20 0xFFFFFFFFFFFFFFFFFFFFFFFFFFFFFFFFFFFFFFFF AND EQ DUP1 PUSH2 0x5F0 JUMPI POP PUSH2 0x5EF DUP2 PUSH2 0x5EA PUSH2 0xCCD JUMP JUMPDEST PUSH2 0xB84 JUMP JUMPDEST JUMPDEST PUSH2 0x62F JUMPI PUSH1 0x40 MLOAD PUSH32 0x8C379A000000000000000000000000000000000000000000000000000000000 DUP2 MSTORE PUSH1 0x4 ADD PUSH2 0x626 SWAP1 PUSH2 0x21DB JUMP JUMPDEST PUSH1 0x40 MLOAD DUP1 SWAP2 SUB SWAP1 REVERT JUMPDEST PUSH2 0x639 DUP4 DUP4 PUSH2 0xCD5 JUMP JUMPDEST POP POP POP JUMP JUMPDEST PUSH1 0x8 SLOAD DUP2 JUMP JUMPDEST PUSH2 0x655 PUSH2 0x64F PUSH2 0xCCD JUMP JUMPDEST DUP3 PUSH2 0xD8E JUMP JUMPDEST PUSH2 0x694 JUMPI PUSH1 0x40 MLOAD PUSH32 0x8C379A000000000000000000000000000000000000000000000000000000000 DUP2 MSTORE PUSH1 0x4 ADD PUSH2 0x68B SWAP1 PUSH2 0x226D JUMP JUMPDEST PUSH1 0x40 MLOAD DUP1 SWAP2 SUB SWAP1 REVERT JUMPDEST PUSH2 0x69F DUP4 DUP4 DUP4 PUSH2 0xE23 JUMP JUMPDEST POP POP POP JUMP JUMPDEST PUSH1 0xA DUP2 JUMP JUMPDEST PUSH2 0x6C4 DUP4 DUP4 DUP4 PUSH1 0x40 MLOAD DUP1 PUSH1 0x20 ADD PUSH1 0x40 MSTORE DUP1 PUSH1 0x0 DUP2 MSTORE POP PUSH2 0xABA JUMP JUMPDEST POP POP POP JUMP JUMPDEST PUSH1 0x0 DUP1 PUSH2 0x6D5 DUP4 PUSH2 0x111D JUMP JUMPDEST SWAP1 POP PUSH1 0x0 PUSH20 0xFFFFFFFFFFFFFFFFFFFFFFFFFFFFFFFFFFFFFFFF AND DUP2 PUSH20 0xFFFFFFFFFFFFFFFFFFFFFFFFFFFFFFFFFFFFFFFF AND EQ ISZERO PUSH2 0x747 JUMPI PUSH1 0x40 MLOAD PUSH32 0x8C379A000000000000000000000000000000000000000000000000000000000 DUP2 MSTORE PUSH1 0x4 ADD PUSH2 0x73E SWAP1 PUSH2 0x22D9 JUMP JUMPDEST PUSH1 0x40 MLOAD DUP1 SWAP2 SUB SWAP1 REVERT JUMPDEST DUP1 SWAP2 POP POP SWAP2 SWAP1 POP JUMP JUMPDEST PUSH1 0x0 PUSH20 0xFFFFFFFFFFFFFFFFFFFFFFFFFFFFFFFFFFFFFFFF AND CALLER PUSH20 0xFFFFFFFFFFFFFFFFFFFFFFFFFFFFFFFFFFFFFFFF AND EQ ISZERO PUSH2 0x7C0 JUMPI PUSH1 0x40 MLOAD PUSH32 0x8C379A000000000000000000000000000000000000000000000000000000000 DUP2 MSTORE PUSH1 0x4 ADD PUSH2 0x7B7 SWAP1 PUSH2 0x2345 JUMP JUMPDEST PUSH1 0x40 MLOAD DUP1 SWAP2 SUB SWAP1 REVERT JUMPDEST PUSH1 0x6 PUSH1 0x0 SWAP1 SLOAD SWAP1 PUSH2 0x100 EXP SWAP1 DIV PUSH20 0xFFFFFFFFFFFFFFFFFFFFFFFFFFFFFFFFFFFFFFFF AND PUSH20 0xFFFFFFFFFFFFFFFFFFFFFFFFFFFFFFFFFFFFFFFF AND CALLER PUSH20 0xFFFFFFFFFFFFFFFFFFFFFFFFFFFFFFFFFFFFFFFF AND EQ PUSH2 0x850 JUMPI PUSH1 0x40 MLOAD PUSH32 0x8C379A000000000000000000000000000000000000000000000000000000000 DUP2 MSTORE PUSH1 0x4 ADD PUSH2 0x847 SWAP1 PUSH2 0x23D7 JUMP JUMPDEST PUSH1 0x40 MLOAD DUP1 SWAP2 SUB SWAP1 REVERT JUMPDEST PUSH1 0xA PUSH1 0x8 SLOAD LT PUSH2 0x85F JUMPI PUSH1 0x0 DUP1 REVERT JUMPDEST PUSH2 0x86B DUP2 PUSH1 0x8 SLOAD PUSH2 0x115A JUMP JUMPDEST PUSH1 0x8 PUSH1 0x0 DUP2 SLOAD DUP1 SWAP3 SWAP2 SWAP1 PUSH2 0x87E SWAP1 PUSH2 0x2426 JUMP JUMPDEST SWAP2 SWAP1 POP SSTORE POP POP JUMP JUMPDEST PUSH1 0x0 DUP1 PUSH20 0xFFFFFFFFFFFFFFFFFFFFFFFFFFFFFFFFFFFFFFFF AND DUP3 PUSH20 0xFFFFFFFFFFFFFFFFFFFFFFFFFFFFFFFFFFFFFFFF AND EQ ISZERO PUSH2 0x8F7 JUMPI PUSH1 0x40 MLOAD PUSH32 0x8C379A000000000000000000000000000000000000000000000000000000000 DUP2 MSTORE PUSH1 0x4 ADD PUSH2 0x8EE SWAP1 PUSH2 0x24E1 JUMP JUMPDEST PUSH1 0x40 MLOAD DUP1 SWAP2 SUB SWAP1 REVERT JUMPDEST PUSH1 0x3 PUSH1 0x0 DUP4 PUSH20 0xFFFFFFFFFFFFFFFFFFFFFFFFFFFFFFFFFFFFFFFF AND PUSH20 0xFFFFFFFFFFFFFFFFFFFFFFFFFFFFFFFFFFFFFFFF AND DUP2 MSTORE PUSH1 0x20 ADD SWAP1 DUP2 MSTORE PUSH1 0x20 ADD PUSH1 0x0 KECCAK256 SLOAD SWAP1 POP SWAP2 SWAP1 POP JUMP JUMPDEST PUSH1 0x60 PUSH1 0x1 DUP1 SLOAD PUSH2 0x94D SWAP1 PUSH2 0x20A5 JUMP JUMPDEST DUP1 PUSH1 0x1F ADD PUSH1 0x20 DUP1 SWAP2 DIV MUL PUSH1 0x20 ADD PUSH1 0x40 MLOAD SWAP1 DUP2 ADD PUSH1 0x40 MSTORE DUP1 SWAP3 SWAP2 SWAP1 DUP2 DUP2 MSTORE PUSH1 0x20 ADD DUP3 DUP1 SLOAD PUSH2 0x979 SWAP1 PUSH2 0x20A5 JUMP JUMPDEST DUP1 ISZERO PUSH2 0x9C6 JUMPI DUP1 PUSH1 0x1F LT PUSH2 0x99B JUMPI PUSH2 0x100 DUP1 DUP4 SLOAD DIV MUL DUP4 MSTORE SWAP2 PUSH1 0x20 ADD SWAP2 PUSH2 0x9C6 JUMP JUMPDEST DUP3 ADD SWAP2 SWAP1 PUSH1 0x0 MSTORE PUSH1 0x20 PUSH1 0x0 KECCAK256 SWAP1 JUMPDEST DUP2 SLOAD DUP2 MSTORE SWAP1 PUSH1 0x1 ADD SWAP1 PUSH1 0x20 ADD DUP1 DUP4 GT PUSH2 0x9A9 JUMPI DUP3 SWAP1 SUB PUSH1 0x1F AND DUP3 ADD SWAP2 JUMPDEST POP POP POP POP POP SWAP1 POP SWAP1 JUMP JUMPDEST PUSH2 0x9E2 PUSH2 0x9DB PUSH2 0xCCD JUMP JUMPDEST DUP4 DUP4 PUSH2 0x1378 JUMP JUMPDEST POP POP JUMP JUMPDEST PUSH1 0x7 PUSH1 0x0 SWAP1 SLOAD SWAP1 PUSH2 0x100 EXP SWAP1 DIV PUSH20 0xFFFFFFFFFFFFFFFFFFFFFFFFFFFFFFFFFFFFFFFF AND PUSH20 0xFFFFFFFFFFFFFFFFFFFFFFFFFFFFFFFFFFFFFFFF AND CALLER PUSH20 0xFFFFFFFFFFFFFFFFFFFFFFFFFFFFFFFFFFFFFFFF AND EQ PUSH2 0xA76 JUMPI PUSH1 0x40 MLOAD PUSH32 0x8C379A000000000000000000000000000000000000000000000000000000000 DUP2 MSTORE PUSH1 0x4 ADD PUSH2 0xA6D SWAP1 PUSH2 0x254D JUMP JUMPDEST PUSH1 0x40 MLOAD DUP1 SWAP2 SUB SWAP1 REVERT JUMPDEST DUP1 PUSH1 0x6 PUSH1 0x0 PUSH2 0x100 EXP DUP2 SLOAD DUP2 PUSH20 0xFFFFFFFFFFFFFFFFFFFFFFFFFFFFFFFFFFFFFFFF MUL NOT AND SWAP1 DUP4 PUSH20 0xFFFFFFFFFFFFFFFFFFFFFFFFFFFFFFFFFFFFFFFF AND MUL OR SWAP1 SSTORE POP POP JUMP JUMPDEST PUSH2 0xACB PUSH2 0xAC5 PUSH2 0xCCD JUMP JUMPDEST DUP4 PUSH2 0xD8E JUMP JUMPDEST PUSH2 0xB0A JUMPI PUSH1 0x40 MLOAD PUSH32 0x8C379A000000000000000000000000000000000000000000000000000000000 DUP2 MSTORE PUSH1 0x4 ADD PUSH2 0xB01 SWAP1 PUSH2 0x226D JUMP JUMPDEST PUSH1 0x40 MLOAD DUP1 SWAP2 SUB SWAP1 REVERT JUMPDEST PUSH2 0xB16 DUP5 DUP5 DUP5 DUP5 PUSH2 0x14E5 JUMP JUMPDEST POP POP POP POP JUMP JUMPDEST PUSH1 0x60 PUSH2 0xB27 DUP3 PUSH2 0xC82 JUMP JUMPDEST PUSH1 0x0 PUSH2 0xB31 PUSH2 0x1541 JUMP JUMPDEST SWAP1 POP PUSH1 0x0 DUP2 MLOAD GT PUSH2 0xB51 JUMPI PUSH1 0x40 MLOAD DUP1 PUSH1 0x20 ADD PUSH1 0x40 MSTORE DUP1 PUSH1 0x0 DUP2 MSTORE POP PUSH2 0xB7C JUMP JUMPDEST DUP1 PUSH2 0xB5B DUP5 PUSH2 0x1561 JUMP JUMPDEST PUSH1 0x40 MLOAD PUSH1 0x20 ADD PUSH2 0xB6C SWAP3 SWAP2 SWAP1 PUSH2 0x25A9 JUMP JUMPDEST PUSH1 0x40 MLOAD PUSH1 0x20 DUP2 DUP4 SUB SUB DUP2 MSTORE SWAP1 PUSH1 0x40 MSTORE JUMPDEST SWAP2 POP POP SWAP2 SWAP1 POP JUMP JUMPDEST PUSH1 0x0 PUSH1 0x5 PUSH1 0x0 DUP5 PUSH20 0xFFFFFFFFFFFFFFFFFFFFFFFFFFFFFFFFFFFFFFFF AND PUSH20 0xFFFFFFFFFFFFFFFFFFFFFFFFFFFFFFFFFFFFFFFF AND DUP2 MSTORE PUSH1 0x20 ADD SWAP1 DUP2 MSTORE PUSH1 0x20 ADD PUSH1 0x0 KECCAK256 PUSH1 0x0 DUP4 PUSH20 0xFFFFFFFFFFFFFFFFFFFFFFFFFFFFFFFFFFFFFFFF AND PUSH20 0xFFFFFFFFFFFFFFFFFFFFFFFFFFFFFFFFFFFFFFFF AND DUP2 MSTORE PUSH1 0x20 ADD SWAP1 DUP2 MSTORE PUSH1 0x20 ADD PUSH1 0x0 KECCAK256 PUSH1 0x0 SWAP1 SLOAD SWAP1 PUSH2 0x100 EXP SWAP1 DIV PUSH1 0xFF AND SWAP1 POP SWAP3 SWAP2 POP POP JUMP JUMPDEST PUSH1 0x0 PUSH32 0x1FFC9A700000000000000000000000000000000000000000000000000000000 PUSH28 0xFFFFFFFFFFFFFFFFFFFFFFFFFFFFFFFFFFFFFFFFFFFFFFFFFFFFFFFF NOT AND DUP3 PUSH28 0xFFFFFFFFFFFFFFFFFFFFFFFFFFFFFFFFFFFFFFFFFFFFFFFFFFFFFFFF NOT AND EQ SWAP1 POP SWAP2 SWAP1 POP JUMP JUMPDEST PUSH2 0xC8B DUP2 PUSH2 0x1639 JUMP JUMPDEST PUSH2 0xCCA JUMPI PUSH1 0x40 MLOAD PUSH32 0x8C379A000000000000000000000000000000000000000000000000000000000 DUP2 MSTORE PUSH1 0x4 ADD PUSH2 0xCC1 SWAP1 PUSH2 0x22D9 JUMP JUMPDEST PUSH1 0x40 MLOAD DUP1 SWAP2 SUB SWAP1 REVERT JUMPDEST POP JUMP JUMPDEST PUSH1 0x0 CALLER SWAP1 POP SWAP1 JUMP JUMPDEST DUP2 PUSH1 0x4 PUSH1 0x0 DUP4 DUP2 MSTORE PUSH1 0x20 ADD SWAP1 DUP2 MSTORE PUSH1 0x20 ADD PUSH1 0x0 KECCAK256 PUSH1 0x0 PUSH2 0x100 EXP DUP2 SLOAD DUP2 PUSH20 0xFFFFFFFFFFFFFFFFFFFFFFFFFFFFFFFFFFFFFFFF MUL NOT AND SWAP1 DUP4 PUSH20 0xFFFFFFFFFFFFFFFFFFFFFFFFFFFFFFFFFFFFFFFF AND MUL OR SWAP1 SSTORE POP DUP1 DUP3 PUSH20 0xFFFFFFFFFFFFFFFFFFFFFFFFFFFFFFFFFFFFFFFF AND PUSH2 0xD48 DUP4 PUSH2 0x6C9 JUMP JUMPDEST PUSH20 0xFFFFFFFFFFFFFFFFFFFFFFFFFFFFFFFFFFFFFFFF AND PUSH32 0x8C5BE1E5EBEC7D5BD14F71427D1E84F3DD0314C0F7B2291E5B200AC8C7C3B925 PUSH1 0x40 MLOAD PUSH1 0x40 MLOAD DUP1 SWAP2 SUB SWAP1 LOG4 POP POP JUMP JUMPDEST PUSH1 0x0 DUP1 PUSH2 0xD9A DUP4 PUSH2 0x6C9 JUMP JUMPDEST SWAP1 POP DUP1 PUSH20 0xFFFFFFFFFFFFFFFFFFFFFFFFFFFFFFFFFFFFFFFF AND DUP5 PUSH20 0xFFFFFFFFFFFFFFFFFFFFFFFFFFFFFFFFFFFFFFFF AND EQ DUP1 PUSH2 0xDDC JUMPI POP PUSH2 0xDDB DUP2 DUP6 PUSH2 0xB84 JUMP JUMPDEST JUMPDEST DUP1 PUSH2 0xE1A JUMPI POP DUP4 PUSH20 0xFFFFFFFFFFFFFFFFFFFFFFFFFFFFFFFFFFFFFFFF AND PUSH2 0xE02 DUP5 PUSH2 0x4E0 JUMP JUMPDEST PUSH20 0xFFFFFFFFFFFFFFFFFFFFFFFFFFFFFFFFFFFFFFFF AND EQ JUMPDEST SWAP2 POP POP SWAP3 SWAP2 POP POP JUMP JUMPDEST DUP3 PUSH20 0xFFFFFFFFFFFFFFFFFFFFFFFFFFFFFFFFFFFFFFFF AND PUSH2 0xE43 DUP3 PUSH2 0x6C9 JUMP JUMPDEST PUSH20 0xFFFFFFFFFFFFFFFFFFFFFFFFFFFFFFFFFFFFFFFF AND EQ PUSH2 0xE99 JUMPI PUSH1 0x40 MLOAD PUSH32 0x8C379A000000000000000000000000000000000000000000000000000000000 DUP2 MSTORE PUSH1 0x4 ADD PUSH2 0xE90 SWAP1 PUSH2 0x263F JUMP JUMPDEST PUSH1 0x40 MLOAD DUP1 SWAP2 SUB SWAP1 REVERT JUMPDEST PUSH1 0x0 PUSH20 0xFFFFFFFFFFFFFFFFFFFFFFFFFFFFFFFFFFFFFFFF AND DUP3 PUSH20 0xFFFFFFFFFFFFFFFFFFFFFFFFFFFFFFFFFFFFFFFF AND EQ ISZERO PUSH2 0xF09 JUMPI PUSH1 0x40 MLOAD PUSH32 0x8C379A000000000000000000000000000000000000000000000000000000000 DUP2 MSTORE PUSH1 0x4 ADD PUSH2 0xF00 SWAP1 PUSH2 0x26D1 JUMP JUMPDEST PUSH1 0x40 MLOAD DUP1 SWAP2 SUB SWAP1 REVERT JUMPDEST PUSH2 0xF16 DUP4 DUP4 DUP4 PUSH1 0x1 PUSH2 0x167A JUMP JUMPDEST DUP3 PUSH20 0xFFFFFFFFFFFFFFFFFFFFFFFFFFFFFFFFFFFFFFFF AND PUSH2 0xF36 DUP3 PUSH2 0x6C9 JUMP JUMPDEST PUSH20 0xFFFFFFFFFFFFFFFFFFFFFFFFFFFFFFFFFFFFFFFF AND EQ PUSH2 0xF8C JUMPI PUSH1 0x40 MLOAD PUSH32 0x8C379A000000000000000000000000000000000000000000000000000000000 DUP2 MSTORE PUSH1 0x4 ADD PUSH2 0xF83 SWAP1 PUSH2 0x263F JUMP JUMPDEST PUSH1 0x40 MLOAD DUP1 SWAP2 SUB SWAP1 REVERT JUMPDEST PUSH1 0x4 PUSH1 0x0 DUP3 DUP2 MSTORE PUSH1 0x20 ADD SWAP1 DUP2 MSTORE PUSH1 0x20 ADD PUSH1 0x0 KECCAK256 PUSH1 0x0 PUSH2 0x100 EXP DUP2 SLOAD SWAP1 PUSH20 0xFFFFFFFFFFFFFFFFFFFFFFFFFFFFFFFFFFFFFFFF MUL NOT AND SWAP1 SSTORE PUSH1 0x1 PUSH1 0x3 PUSH1 0x0 DUP6 PUSH20 0xFFFFFFFFFFFFFFFFFFFFFFFFFFFFFFFFFFFFFFFF AND PUSH20 0xFFFFFFFFFFFFFFFFFFFFFFFFFFFFFFFFFFFFFFFF AND DUP2 MSTORE PUSH1 0x20 ADD SWAP1 DUP2 MSTORE PUSH1 0x20 ADD PUSH1 0x0 KECCAK256 PUSH1 0x0 DUP3 DUP3 SLOAD SUB SWAP3 POP POP DUP2 SWAP1 SSTORE POP PUSH1 0x1 PUSH1 0x3 PUSH1 0x0 DUP5 PUSH20 0xFFFFFFFFFFFFFFFFFFFFFFFFFFFFFFFFFFFFFFFF AND PUSH20 0xFFFFFFFFFFFFFFFFFFFFFFFFFFFFFFFFFFFFFFFF AND DUP2 MSTORE PUSH1 0x20 ADD SWAP1 DUP2 MSTORE PUSH1 0x20 ADD PUSH1 0x0 KECCAK256 PUSH1 0x0 DUP3 DUP3 SLOAD ADD SWAP3 POP POP DUP2 SWAP1 SSTORE POP DUP2 PUSH1 0x2 PUSH1 0x0 DUP4 DUP2 MSTORE PUSH1 0x20 ADD SWAP1 DUP2 MSTORE PUSH1 0x20 ADD PUSH1 0x0 KECCAK256 PUSH1 0x0 PUSH2 0x100 EXP DUP2 SLOAD DUP2 PUSH20 0xFFFFFFFFFFFFFFFFFFFFFFFFFFFFFFFFFFFFFFFF MUL NOT AND SWAP1 DUP4 PUSH20 0xFFFFFFFFFFFFFFFFFFFFFFFFFFFFFFFFFFFFFFFF AND MUL OR SWAP1 SSTORE POP DUP1 DUP3 PUSH20 0xFFFFFFFFFFFFFFFFFFFFFFFFFFFFFFFFFFFFFFFF AND DUP5 PUSH20 0xFFFFFFFFFFFFFFFFFFFFFFFFFFFFFFFFFFFFFFFF AND PUSH32 0xDDF252AD1BE2C89B69C2B068FC378DAA952BA7F163C4A11628F55A4DF523B3EF PUSH1 0x40 MLOAD PUSH1 0x40 MLOAD DUP1 SWAP2 SUB SWAP1 LOG4 PUSH2 0x1118 DUP4 DUP4 DUP4 PUSH1 0x1 PUSH2 0x17A0 JUMP JUMPDEST POP POP POP JUMP JUMPDEST PUSH1 0x0 PUSH1 0x2 PUSH1 0x0 DUP4 DUP2 MSTORE PUSH1 0x20 ADD SWAP1 DUP2 MSTORE PUSH1 0x20 ADD PUSH1 0x0 KECCAK256 PUSH1 0x0 SWAP1 SLOAD SWAP1 PUSH2 0x100 EXP SWAP1 DIV PUSH20 0xFFFFFFFFFFFFFFFFFFFFFFFFFFFFFFFFFFFFFFFF AND SWAP1 POP SWAP2 SWAP1 POP JUMP JUMPDEST PUSH1 0x0 PUSH20 0xFFFFFFFFFFFFFFFFFFFFFFFFFFFFFFFFFFFFFFFF AND DUP3 PUSH20 0xFFFFFFFFFFFFFFFFFFFFFFFFFFFFFFFFFFFFFFFF AND EQ ISZERO PUSH2 0x11CA JUMPI PUSH1 0x40 MLOAD PUSH32 0x8C379A000000000000000000000000000000000000000000000000000000000 DUP2 MSTORE PUSH1 0x4 ADD PUSH2 0x11C1 SWAP1 PUSH2 0x273D JUMP JUMPDEST PUSH1 0x40 MLOAD DUP1 SWAP2 SUB SWAP1 REVERT JUMPDEST PUSH2 0x11D3 DUP2 PUSH2 0x1639 JUMP JUMPDEST ISZERO PUSH2 0x1213 JUMPI PUSH1 0x40 MLOAD PUSH32 0x8C379A000000000000000000000000000000000000000000000000000000000 DUP2 MSTORE PUSH1 0x4 ADD PUSH2 0x120A SWAP1 PUSH2 0x27A9 JUMP JUMPDEST PUSH1 0x40 MLOAD DUP1 SWAP2 SUB SWAP1 REVERT JUMPDEST PUSH2 0x1221 PUSH1 0x0 DUP4 DUP4 PUSH1 0x1 PUSH2 0x167A JUMP JUMPDEST PUSH2 0x122A DUP2 PUSH2 0x1639 JUMP JUMPDEST ISZERO PUSH2 0x126A JUMPI PUSH1 0x40 MLOAD PUSH32 0x8C379A000000000000000000000000000000000000000000000000000000000 DUP2 MSTORE PUSH1 0x4 ADD PUSH2 0x1261 SWAP1 PUSH2 0x27A9 JUMP JUMPDEST PUSH1 0x40 MLOAD DUP1 SWAP2 SUB SWAP1 REVERT JUMPDEST PUSH1 0x1 PUSH1 0x3 PUSH1 0x0 DUP5 PUSH20 0xFFFFFFFFFFFFFFFFFFFFFFFFFFFFFFFFFFFFFFFF AND PUSH20 0xFFFFFFFFFFFFFFFFFFFFFFFFFFFFFFFFFFFFFFFF AND DUP2 MSTORE PUSH1 0x20 ADD SWAP1 DUP2 MSTORE PUSH1 0x20 ADD PUSH1 0x0 KECCAK256 PUSH1 0x0 DUP3 DUP3 SLOAD ADD SWAP3 POP POP DUP2 SWAP1 SSTORE POP DUP2 PUSH1 0x2 PUSH1 0x0 DUP4 DUP2 MSTORE PUSH1 0x20 ADD SWAP1 DUP2 MSTORE PUSH1 0x20 ADD PUSH1 0x0 KECCAK256 PUSH1 0x0 PUSH2 0x100 EXP DUP2 SLOAD DUP2 PUSH20 0xFFFFFFFFFFFFFFFFFFFFFFFFFFFFFFFFFFFFFFFF MUL NOT AND SWAP1 DUP4 PUSH20 0xFFFFFFFFFFFFFFFFFFFFFFFFFFFFFFFFFFFFFFFF AND MUL OR SWAP1 SSTORE POP DUP1 DUP3 PUSH20 0xFFFFFFFFFFFFFFFFFFFFFFFFFFFFFFFFFFFFFFFF AND PUSH1 0x0 PUSH20 0xFFFFFFFFFFFFFFFFFFFFFFFFFFFFFFFFFFFFFFFF AND PUSH32 0xDDF252AD1BE2C89B69C2B068FC378DAA952BA7F163C4A11628F55A4DF523B3EF PUSH1 0x40 MLOAD PUSH1 0x40 MLOAD DUP1 SWAP2 SUB SWAP1 LOG4 PUSH2 0x1374 PUSH1 0x0 DUP4 DUP4 PUSH1 0x1 PUSH2 0x17A0 JUMP JUMPDEST POP POP JUMP JUMPDEST DUP2 PUSH20 0xFFFFFFFFFFFFFFFFFFFFFFFFFFFFFFFFFFFFFFFF AND DUP4 PUSH20 0xFFFFFFFFFFFFFFFFFFFFFFFFFFFFFFFFFFFFFFFF AND EQ ISZERO PUSH2 0x13E7 JUMPI PUSH1 0x40 MLOAD PUSH32 0x8C379A000000000000000000000000000000000000000000000000000000000 DUP2 MSTORE PUSH1 0x4 ADD PUSH2 0x13DE SWAP1 PUSH2 0x2815 JUMP JUMPDEST PUSH1 0x40 MLOAD DUP1 SWAP2 SUB SWAP1 REVERT JUMPDEST DUP1 PUSH1 0x5 PUSH1 0x0 DUP6 PUSH20 0xFFFFFFFFFFFFFFFFFFFFFFFFFFFFFFFFFFFFFFFF AND PUSH20 0xFFFFFFFFFFFFFFFFFFFFFFFFFFFFFFFFFFFFFFFF AND DUP2 MSTORE PUSH1 0x20 ADD SWAP1 DUP2 MSTORE PUSH1 0x20 ADD PUSH1 0x0 KECCAK256 PUSH1 0x0 DUP5 PUSH20 0xFFFFFFFFFFFFFFFFFFFFFFFFFFFFFFFFFFFFFFFF AND PUSH20 0xFFFFFFFFFFFFFFFFFFFFFFFFFFFFFFFFFFFFFFFF AND DUP2 MSTORE PUSH1 0x20 ADD SWAP1 DUP2 MSTORE PUSH1 0x20 ADD PUSH1 0x0 KECCAK256 PUSH1 0x0 PUSH2 0x100 EXP DUP2 SLOAD DUP2 PUSH1 0xFF MUL NOT AND SWAP1 DUP4 ISZERO ISZERO MUL OR SWAP1 SSTORE POP DUP2 PUSH20 0xFFFFFFFFFFFFFFFFFFFFFFFFFFFFFFFFFFFFFFFF AND DUP4 PUSH20 0xFFFFFFFFFFFFFFFFFFFFFFFFFFFFFFFFFFFFFFFF AND PUSH32 0x17307EAB39AB6107E8899845AD3D59BD9653F200F220920489CA2B5937696C31 DUP4 PUSH1 0x40 MLOAD PUSH2 0x14D8 SWAP2 SWAP1 PUSH2 0x1B67 JUMP JUMPDEST PUSH1 0x40 MLOAD DUP1 SWAP2 SUB SWAP1 LOG3 POP POP POP JUMP JUMPDEST PUSH2 0x14F0 DUP5 DUP5 DUP5 PUSH2 0xE23 JUMP JUMPDEST PUSH2 0x14FC DUP5 DUP5 DUP5 DUP5 PUSH2 0x17A6 JUMP JUMPDEST PUSH2 0x153B JUMPI PUSH1 0x40 MLOAD PUSH32 0x8C379A000000000000000000000000000000000000000000000000000000000 DUP2 MSTORE PUSH1 0x4 ADD PUSH2 0x1532 SWAP1 PUSH2 0x28A7 JUMP JUMPDEST PUSH1 0x40 MLOAD DUP1 SWAP2 SUB SWAP1 REVERT JUMPDEST POP POP POP POP JUMP JUMPDEST PUSH1 0x60 PUSH1 0x40 MLOAD DUP1 PUSH1 0x60 ADD PUSH1 0x40 MSTORE DUP1 PUSH1 0x36 DUP2 MSTORE PUSH1 0x20 ADD PUSH2 0x2A64 PUSH1 0x36 SWAP2 CODECOPY SWAP1 POP SWAP1 JUMP JUMPDEST PUSH1 0x60 PUSH1 0x0 PUSH1 0x1 PUSH2 0x1570 DUP5 PUSH2 0x193D JUMP JUMPDEST ADD SWAP1 POP PUSH1 0x0 DUP2 PUSH8 0xFFFFFFFFFFFFFFFF DUP2 GT ISZERO PUSH2 0x158F JUMPI PUSH2 0x158E PUSH2 0x1E88 JUMP JUMPDEST JUMPDEST PUSH1 0x40 MLOAD SWAP1 DUP1 DUP3 MSTORE DUP1 PUSH1 0x1F ADD PUSH1 0x1F NOT AND PUSH1 0x20 ADD DUP3 ADD PUSH1 0x40 MSTORE DUP1 ISZERO PUSH2 0x15C1 JUMPI DUP2 PUSH1 0x20 ADD PUSH1 0x1 DUP3 MUL DUP1 CALLDATASIZE DUP4 CALLDATACOPY DUP1 DUP3 ADD SWAP2 POP POP SWAP1 POP JUMPDEST POP SWAP1 POP PUSH1 0x0 DUP3 PUSH1 0x20 ADD DUP3 ADD SWAP1 POP JUMPDEST PUSH1 0x1 ISZERO PUSH2 0x162E JUMPI DUP1 DUP1 PUSH1 0x1 SWAP1 SUB SWAP2 POP POP PUSH32 0x3031323334353637383961626364656600000000000000000000000000000000 PUSH1 0xA DUP7 MOD BYTE DUP2 MSTORE8 PUSH1 0xA DUP6 DUP2 PUSH2 0x1618 JUMPI PUSH2 0x1617 PUSH2 0x28C7 JUMP JUMPDEST JUMPDEST DIV SWAP5 POP PUSH1 0x0 DUP6 EQ ISZERO PUSH2 0x1629 JUMPI PUSH2 0x162E JUMP JUMPDEST PUSH2 0x15CF JUMP JUMPDEST DUP2 SWAP4 POP POP POP POP SWAP2 SWAP1 POP JUMP JUMPDEST PUSH1 0x0 DUP1 PUSH20 0xFFFFFFFFFFFFFFFFFFFFFFFFFFFFFFFFFFFFFFFF AND PUSH2 0x165B DUP4 PUSH2 0x111D JUMP JUMPDEST PUSH20 0xFFFFFFFFFFFFFFFFFFFFFFFFFFFFFFFFFFFFFFFF AND EQ ISZERO SWAP1 POP SWAP2 SWAP1 POP JUMP JUMPDEST PUSH1 0x1 DUP2 GT ISZERO PUSH2 0x179A JUMPI PUSH1 0x0 PUSH20 0xFFFFFFFFFFFFFFFFFFFFFFFFFFFFFFFFFFFFFFFF AND DUP5 PUSH20 0xFFFFFFFFFFFFFFFFFFFFFFFFFFFFFFFFFFFFFFFF AND EQ PUSH2 0x170E JUMPI DUP1 PUSH1 0x3 PUSH1 0x0 DUP7 PUSH20 0xFFFFFFFFFFFFFFFFFFFFFFFFFFFFFFFFFFFFFFFF AND PUSH20 0xFFFFFFFFFFFFFFFFFFFFFFFFFFFFFFFFFFFFFFFF AND DUP2 MSTORE PUSH1 0x20 ADD SWAP1 DUP2 MSTORE PUSH1 0x20 ADD PUSH1 0x0 KECCAK256 PUSH1 0x0 DUP3 DUP3 SLOAD PUSH2 0x1706 SWAP2 SWAP1 PUSH2 0x28F6 JUMP JUMPDEST SWAP3 POP POP DUP2 SWAP1 SSTORE POP JUMPDEST PUSH1 0x0 PUSH20 0xFFFFFFFFFFFFFFFFFFFFFFFFFFFFFFFFFFFFFFFF AND DUP4 PUSH20 0xFFFFFFFFFFFFFFFFFFFFFFFFFFFFFFFFFFFFFFFF AND EQ PUSH2 0x1799 JUMPI DUP1 PUSH1 0x3 PUSH1 0x0 DUP6 PUSH20 0xFFFFFFFFFFFFFFFFFFFFFFFFFFFFFFFFFFFFFFFF AND PUSH20 0xFFFFFFFFFFFFFFFFFFFFFFFFFFFFFFFFFFFFFFFF AND DUP2 MSTORE PUSH1 0x20 ADD SWAP1 DUP2 MSTORE PUSH1 0x20 ADD PUSH1 0x0 KECCAK256 PUSH1 0x0 DUP3 DUP3 SLOAD PUSH2 0x1791 SWAP2 SWAP1 PUSH2 0x292A JUMP JUMPDEST SWAP3 POP POP DUP2 SWAP1 SSTORE POP JUMPDEST JUMPDEST POP POP POP POP JUMP JUMPDEST POP POP POP POP JUMP JUMPDEST PUSH1 0x0 PUSH2 0x17C7 DUP5 PUSH20 0xFFFFFFFFFFFFFFFFFFFFFFFFFFFFFFFFFFFFFFFF AND PUSH2 0x1A90 JUMP JUMPDEST ISZERO PUSH2 0x1930 JUMPI DUP4 PUSH20 0xFFFFFFFFFFFFFFFFFFFFFFFFFFFFFFFFFFFFFFFF AND PUSH4 0x150B7A02 PUSH2 0x17F0 PUSH2 0xCCD JUMP JUMPDEST DUP8 DUP7 DUP7 PUSH1 0x40 MLOAD DUP6 PUSH4 0xFFFFFFFF AND PUSH1 0xE0 SHL DUP2 MSTORE PUSH1 0x4 ADD PUSH2 0x1812 SWAP5 SWAP4 SWAP3 SWAP2 SWAP1 PUSH2 0x29D5 JUMP JUMPDEST PUSH1 0x20 PUSH1 0x40 MLOAD DUP1 DUP4 SUB DUP2 PUSH1 0x0 DUP8 DUP1 EXTCODESIZE ISZERO DUP1 ISZERO PUSH2 0x182C JUMPI PUSH1 0x0 DUP1 REVERT JUMPDEST POP GAS CALL SWAP3 POP POP POP DUP1 ISZERO PUSH2 0x185D JUMPI POP PUSH1 0x40 MLOAD RETURNDATASIZE PUSH1 0x1F NOT PUSH1 0x1F DUP3 ADD AND DUP3 ADD DUP1 PUSH1 0x40 MSTORE POP DUP2 ADD SWAP1 PUSH2 0x185A SWAP2 SWAP1 PUSH2 0x2A36 JUMP JUMPDEST PUSH1 0x1 JUMPDEST PUSH2 0x18E0 JUMPI RETURNDATASIZE DUP1 PUSH1 0x0 DUP2 EQ PUSH2 0x188D JUMPI PUSH1 0x40 MLOAD SWAP2 POP PUSH1 0x1F NOT PUSH1 0x3F RETURNDATASIZE ADD AND DUP3 ADD PUSH1 0x40 MSTORE RETURNDATASIZE DUP3 MSTORE RETURNDATASIZE PUSH1 0x0 PUSH1 0x20 DUP5 ADD RETURNDATACOPY PUSH2 0x1892 JUMP JUMPDEST PUSH1 0x60 SWAP2 POP JUMPDEST POP PUSH1 0x0 DUP2 MLOAD EQ ISZERO PUSH2 0x18D8 JUMPI PUSH1 0x40 MLOAD PUSH32 0x8C379A000000000000000000000000000000000000000000000000000000000 DUP2 MSTORE PUSH1 0x4 ADD PUSH2 0x18CF SWAP1 PUSH2 0x28A7 JUMP JUMPDEST PUSH1 0x40 MLOAD DUP1 SWAP2 SUB SWAP1 REVERT JUMPDEST DUP1 MLOAD DUP2 PUSH1 0x20 ADD REVERT JUMPDEST PUSH4 0x150B7A02 PUSH1 0xE0 SHL PUSH28 0xFFFFFFFFFFFFFFFFFFFFFFFFFFFFFFFFFFFFFFFFFFFFFFFFFFFFFFFF NOT AND DUP2 PUSH28 0xFFFFFFFFFFFFFFFFFFFFFFFFFFFFFFFFFFFFFFFFFFFFFFFFFFFFFFFF NOT AND EQ SWAP2 POP POP PUSH2 0x1935 JUMP JUMPDEST PUSH1 0x1 SWAP1 POP JUMPDEST SWAP5 SWAP4 POP POP POP POP JUMP JUMPDEST PUSH1 0x0 DUP1 PUSH1 0x0 SWAP1 POP PUSH27 0x184F03E93FF9F4DAA797ED6E38ED64BF6A1F010000000000000000 DUP4 LT PUSH2 0x199B JUMPI PUSH27 0x184F03E93FF9F4DAA797ED6E38ED64BF6A1F010000000000000000 DUP4 DUP2 PUSH2 0x1991 JUMPI PUSH2 0x1990 PUSH2 0x28C7 JUMP JUMPDEST JUMPDEST DIV SWAP3 POP PUSH1 0x40 DUP2 ADD SWAP1 POP JUMPDEST PUSH14 0x4EE2D6D415B85ACEF8100000000 DUP4 LT PUSH2 0x19D8 JUMPI PUSH14 0x4EE2D6D415B85ACEF8100000000 DUP4 DUP2 PUSH2 0x19CE JUMPI PUSH2 0x19CD PUSH2 0x28C7 JUMP JUMPDEST JUMPDEST DIV SWAP3 POP PUSH1 0x20 DUP2 ADD SWAP1 POP JUMPDEST PUSH7 0x2386F26FC10000 DUP4 LT PUSH2 0x1A07 JUMPI PUSH7 0x2386F26FC10000 DUP4 DUP2 PUSH2 0x19FD JUMPI PUSH2 0x19FC PUSH2 0x28C7 JUMP JUMPDEST JUMPDEST DIV SWAP3 POP PUSH1 0x10 DUP2 ADD SWAP1 POP JUMPDEST PUSH4 0x5F5E100 DUP4 LT PUSH2 0x1A30 JUMPI PUSH4 0x5F5E100 DUP4 DUP2 PUSH2 0x1A26 JUMPI PUSH2 0x1A25 PUSH2 0x28C7 JUMP JUMPDEST JUMPDEST DIV SWAP3 POP PUSH1 0x8 DUP2 ADD SWAP1 POP JUMPDEST PUSH2 0x2710 DUP4 LT PUSH2 0x1A55 JUMPI PUSH2 0x2710 DUP4 DUP2 PUSH2 0x1A4B JUMPI PUSH2 0x1A4A PUSH2 0x28C7 JUMP JUMPDEST JUMPDEST DIV SWAP3 POP PUSH1 0x4 DUP2 ADD SWAP1 POP JUMPDEST PUSH1 0x64 DUP4 LT PUSH2 0x1A78 JUMPI PUSH1 0x64 DUP4 DUP2 PUSH2 0x1A6E JUMPI PUSH2 0x1A6D PUSH2 0x28C7 JUMP JUMPDEST JUMPDEST DIV SWAP3 POP PUSH1 0x2 DUP2 ADD SWAP1 POP JUMPDEST PUSH1 0xA DUP4 LT PUSH2 0x1A87 JUMPI PUSH1 0x1 DUP2 ADD SWAP1 POP JUMPDEST DUP1 SWAP2 POP POP SWAP2 SWAP1 POP JUMP JUMPDEST PUSH1 0x0 DUP1 DUP3 PUSH20 0xFFFFFFFFFFFFFFFFFFFFFFFFFFFFFFFFFFFFFFFF AND EXTCODESIZE GT SWAP1 POP SWAP2 SWAP1 POP JUMP JUMPDEST PUSH1 0x0 PUSH1 0x40 MLOAD SWAP1 POP SWAP1 JUMP JUMPDEST PUSH1 0x0 DUP1 REVERT JUMPDEST PUSH1 0x0 DUP1 REVERT JUMPDEST PUSH1 0x0 PUSH32 0xFFFFFFFF00000000000000000000000000000000000000000000000000000000 DUP3 AND SWAP1 POP SWAP2 SWAP1 POP JUMP JUMPDEST PUSH2 0x1AFC DUP2 PUSH2 0x1AC7 JUMP JUMPDEST DUP2 EQ PUSH2 0x1B07 JUMPI PUSH1 0x0 DUP1 REVERT JUMPDEST POP JUMP JUMPDEST PUSH1 0x0 DUP2 CALLDATALOAD SWAP1 POP PUSH2 0x1B19 DUP2 PUSH2 0x1AF3 JUMP JUMPDEST SWAP3 SWAP2 POP POP JUMP JUMPDEST PUSH1 0x0 PUSH1 0x20 DUP3 DUP5 SUB SLT ISZERO PUSH2 0x1B35 JUMPI PUSH2 0x1B34 PUSH2 0x1ABD JUMP JUMPDEST JUMPDEST PUSH1 0x0 PUSH2 0x1B43 DUP5 DUP3 DUP6 ADD PUSH2 0x1B0A JUMP JUMPDEST SWAP2 POP POP SWAP3 SWAP2 POP POP JUMP JUMPDEST PUSH1 0x0 DUP2 ISZERO ISZERO SWAP1 POP SWAP2 SWAP1 POP JUMP JUMPDEST PUSH2 0x1B61 DUP2 PUSH2 0x1B4C JUMP JUMPDEST DUP3 MSTORE POP POP JUMP JUMPDEST PUSH1 0x0 PUSH1 0x20 DUP3 ADD SWAP1 POP PUSH2 0x1B7C PUSH1 0x0 DUP4 ADD DUP5 PUSH2 0x1B58 JUMP JUMPDEST SWAP3 SWAP2 POP POP JUMP JUMPDEST PUSH1 0x0 DUP2 MLOAD SWAP1 POP SWAP2 SWAP1 POP JUMP JUMPDEST PUSH1 0x0 DUP3 DUP3 MSTORE PUSH1 0x20 DUP3 ADD SWAP1 POP SWAP3 SWAP2 POP POP JUMP JUMPDEST PUSH1 0x0 JUMPDEST DUP4 DUP2 LT ISZERO PUSH2 0x1BBC JUMPI DUP1 DUP3 ADD MLOAD DUP2 DUP5 ADD MSTORE PUSH1 0x20 DUP2 ADD SWAP1 POP PUSH2 0x1BA1 JUMP JUMPDEST DUP4 DUP2 GT ISZERO PUSH2 0x1BCB JUMPI PUSH1 0x0 DUP5 DUP5 ADD MSTORE JUMPDEST POP POP POP POP JUMP JUMPDEST PUSH1 0x0 PUSH1 0x1F NOT PUSH1 0x1F DUP4 ADD AND SWAP1 POP SWAP2 SWAP1 POP JUMP JUMPDEST PUSH1 0x0 PUSH2 0x1BED DUP3 PUSH2 0x1B82 JUMP JUMPDEST PUSH2 0x1BF7 DUP2 DUP6 PUSH2 0x1B8D JUMP JUMPDEST SWAP4 POP PUSH2 0x1C07 DUP2 DUP6 PUSH1 0x20 DUP7 ADD PUSH2 0x1B9E JUMP JUMPDEST PUSH2 0x1C10 DUP2 PUSH2 0x1BD1 JUMP JUMPDEST DUP5 ADD SWAP2 POP POP SWAP3 SWAP2 POP POP JUMP JUMPDEST PUSH1 0x0 PUSH1 0x20 DUP3 ADD SWAP1 POP DUP2 DUP2 SUB PUSH1 0x0 DUP4 ADD MSTORE PUSH2 0x1C35 DUP2 DUP5 PUSH2 0x1BE2 JUMP JUMPDEST SWAP1 POP SWAP3 SWAP2 POP POP JUMP JUMPDEST PUSH1 0x0 DUP2 SWAP1 POP SWAP2 SWAP1 POP JUMP JUMPDEST PUSH2 0x1C50 DUP2 PUSH2 0x1C3D JUMP JUMPDEST DUP2 EQ PUSH2 0x1C5B JUMPI PUSH1 0x0 DUP1 REVERT JUMPDEST POP JUMP JUMPDEST PUSH1 0x0 DUP2 CALLDATALOAD SWAP1 POP PUSH2 0x1C6D DUP2 PUSH2 0x1C47 JUMP JUMPDEST SWAP3 SWAP2 POP POP JUMP JUMPDEST PUSH1 0x0 PUSH1 0x20 DUP3 DUP5 SUB SLT ISZERO PUSH2 0x1C89 JUMPI PUSH2 0x1C88 PUSH2 0x1ABD JUMP JUMPDEST JUMPDEST PUSH1 0x0 PUSH2 0x1C97 DUP5 DUP3 DUP6 ADD PUSH2 0x1C5E JUMP JUMPDEST SWAP2 POP POP SWAP3 SWAP2 POP POP JUMP JUMPDEST PUSH1 0x0 PUSH20 0xFFFFFFFFFFFFFFFFFFFFFFFFFFFFFFFFFFFFFFFF DUP3 AND SWAP1 POP SWAP2 SWAP1 POP JUMP JUMPDEST PUSH1 0x0 PUSH2 0x1CCB DUP3 PUSH2 0x1CA0 JUMP JUMPDEST SWAP1 POP SWAP2 SWAP1 POP JUMP JUMPDEST PUSH2 0x1CDB DUP2 PUSH2 0x1CC0 JUMP JUMPDEST DUP3 MSTORE POP POP JUMP JUMPDEST PUSH1 0x0 PUSH1 0x20 DUP3 ADD SWAP1 POP PUSH2 0x1CF6 PUSH1 0x0 DUP4 ADD DUP5 PUSH2 0x1CD2 JUMP JUMPDEST SWAP3 SWAP2 POP POP JUMP JUMPDEST PUSH2 0x1D05 DUP2 PUSH2 0x1CC0 JUMP JUMPDEST DUP2 EQ PUSH2 0x1D10 JUMPI PUSH1 0x0 DUP1 REVERT JUMPDEST POP JUMP JUMPDEST PUSH1 0x0 DUP2 CALLDATALOAD SWAP1 POP PUSH2 0x1D22 DUP2 PUSH2 0x1CFC JUMP JUMPDEST SWAP3 SWAP2 POP POP JUMP JUMPDEST PUSH1 0x0 DUP1 PUSH1 0x40 DUP4 DUP6 SUB SLT ISZERO PUSH2 0x1D3F JUMPI PUSH2 0x1D3E PUSH2 0x1ABD JUMP JUMPDEST JUMPDEST PUSH1 0x0 PUSH2 0x1D4D DUP6 DUP3 DUP7 ADD PUSH2 0x1D13 JUMP JUMPDEST SWAP3 POP POP PUSH1 0x20 PUSH2 0x1D5E DUP6 DUP3 DUP7 ADD PUSH2 0x1C5E JUMP JUMPDEST SWAP2 POP POP SWAP3 POP SWAP3 SWAP1 POP JUMP JUMPDEST PUSH2 0x1D71 DUP2 PUSH2 0x1C3D JUMP JUMPDEST DUP3 MSTORE POP POP JUMP JUMPDEST PUSH1 0x0 PUSH1 0x20 DUP3 ADD SWAP1 POP PUSH2 0x1D8C PUSH1 0x0 DUP4 ADD DUP5 PUSH2 0x1D68 JUMP JUMPDEST SWAP3 SWAP2 POP POP JUMP JUMPDEST PUSH1 0x0 DUP1 PUSH1 0x0 PUSH1 0x60 DUP5 DUP7 SUB SLT ISZERO PUSH2 0x1DAB JUMPI PUSH2 0x1DAA PUSH2 0x1ABD JUMP JUMPDEST JUMPDEST PUSH1 0x0 PUSH2 0x1DB9 DUP7 DUP3 DUP8 ADD PUSH2 0x1D13 JUMP JUMPDEST SWAP4 POP POP PUSH1 0x20 PUSH2 0x1DCA DUP7 DUP3 DUP8 ADD PUSH2 0x1D13 JUMP JUMPDEST SWAP3 POP POP PUSH1 0x40 PUSH2 0x1DDB DUP7 DUP3 DUP8 ADD PUSH2 0x1C5E JUMP JUMPDEST SWAP2 POP POP SWAP3 POP SWAP3 POP SWAP3 JUMP JUMPDEST PUSH1 0x0 PUSH1 0x20 DUP3 DUP5 SUB SLT ISZERO PUSH2 0x1DFB JUMPI PUSH2 0x1DFA PUSH2 0x1ABD JUMP JUMPDEST JUMPDEST PUSH1 0x0 PUSH2 0x1E09 DUP5 DUP3 DUP6 ADD PUSH2 0x1D13 JUMP JUMPDEST SWAP2 POP POP SWAP3 SWAP2 POP POP JUMP JUMPDEST PUSH2 0x1E1B DUP2 PUSH2 0x1B4C JUMP JUMPDEST DUP2 EQ PUSH2 0x1E26 JUMPI PUSH1 0x0 DUP1 REVERT JUMPDEST POP JUMP JUMPDEST PUSH1 0x0 DUP2 CALLDATALOAD SWAP1 POP PUSH2 0x1E38 DUP2 PUSH2 0x1E12 JUMP JUMPDEST SWAP3 SWAP2 POP POP JUMP JUMPDEST PUSH1 0x0 DUP1 PUSH1 0x40 DUP4 DUP6 SUB SLT ISZERO PUSH2 0x1E55 JUMPI PUSH2 0x1E54 PUSH2 0x1ABD JUMP JUMPDEST JUMPDEST PUSH1 0x0 PUSH2 0x1E63 DUP6 DUP3 DUP7 ADD PUSH2 0x1D13 JUMP JUMPDEST SWAP3 POP POP PUSH1 0x20 PUSH2 0x1E74 DUP6 DUP3 DUP7 ADD PUSH2 0x1E29 JUMP JUMPDEST SWAP2 POP POP SWAP3 POP SWAP3 SWAP1 POP JUMP JUMPDEST PUSH1 0x0 DUP1 REVERT JUMPDEST PUSH1 0x0 DUP1 REVERT JUMPDEST PUSH32 0x4E487B7100000000000000000000000000000000000000000000000000000000 PUSH1 0x0 MSTORE PUSH1 0x41 PUSH1 0x4 MSTORE PUSH1 0x24 PUSH1 0x0 REVERT JUMPDEST PUSH2 0x1EC0 DUP3 PUSH2 0x1BD1 JUMP JUMPDEST DUP2 ADD DUP2 DUP2 LT PUSH8 0xFFFFFFFFFFFFFFFF DUP3 GT OR ISZERO PUSH2 0x1EDF JUMPI PUSH2 0x1EDE PUSH2 0x1E88 JUMP JUMPDEST JUMPDEST DUP1 PUSH1 0x40 MSTORE POP POP POP JUMP JUMPDEST PUSH1 0x0 PUSH2 0x1EF2 PUSH2 0x1AB3 JUMP JUMPDEST SWAP1 POP PUSH2 0x1EFE DUP3 DUP3 PUSH2 0x1EB7 JUMP JUMPDEST SWAP2 SWAP1 POP JUMP JUMPDEST PUSH1 0x0 PUSH8 0xFFFFFFFFFFFFFFFF DUP3 GT ISZERO PUSH2 0x1F1E JUMPI PUSH2 0x1F1D PUSH2 0x1E88 JUMP JUMPDEST JUMPDEST PUSH2 0x1F27 DUP3 PUSH2 0x1BD1 JUMP JUMPDEST SWAP1 POP PUSH1 0x20 DUP2 ADD SWAP1 POP SWAP2 SWAP1 POP JUMP JUMPDEST DUP3 DUP2 DUP4 CALLDATACOPY PUSH1 0x0 DUP4 DUP4 ADD MSTORE POP POP POP JUMP JUMPDEST PUSH1 0x0 PUSH2 0x1F56 PUSH2 0x1F51 DUP5 PUSH2 0x1F03 JUMP JUMPDEST PUSH2 0x1EE8 JUMP JUMPDEST SWAP1 POP DUP3 DUP2 MSTORE PUSH1 0x20 DUP2 ADD DUP5 DUP5 DUP5 ADD GT ISZERO PUSH2 0x1F72 JUMPI PUSH2 0x1F71 PUSH2 0x1E83 JUMP JUMPDEST JUMPDEST PUSH2 0x1F7D DUP5 DUP3 DUP6 PUSH2 0x1F34 JUMP JUMPDEST POP SWAP4 SWAP3 POP POP POP JUMP JUMPDEST PUSH1 0x0 DUP3 PUSH1 0x1F DUP4 ADD SLT PUSH2 0x1F9A JUMPI PUSH2 0x1F99 PUSH2 0x1E7E JUMP JUMPDEST JUMPDEST DUP2 CALLDATALOAD PUSH2 0x1FAA DUP5 DUP3 PUSH1 0x20 DUP7 ADD PUSH2 0x1F43 JUMP JUMPDEST SWAP2 POP POP SWAP3 SWAP2 POP POP JUMP JUMPDEST PUSH1 0x0 DUP1 PUSH1 0x0 DUP1 PUSH1 0x80 DUP6 DUP8 SUB SLT ISZERO PUSH2 0x1FCD JUMPI PUSH2 0x1FCC PUSH2 0x1ABD JUMP JUMPDEST JUMPDEST PUSH1 0x0 PUSH2 0x1FDB DUP8 DUP3 DUP9 ADD PUSH2 0x1D13 JUMP JUMPDEST SWAP5 POP POP PUSH1 0x20 PUSH2 0x1FEC DUP8 DUP3 DUP9 ADD PUSH2 0x1D13 JUMP JUMPDEST SWAP4 POP POP PUSH1 0x40 PUSH2 0x1FFD DUP8 DUP3 DUP9 ADD PUSH2 0x1C5E JUMP JUMPDEST SWAP3 POP POP PUSH1 0x60 DUP6 ADD CALLDATALOAD PUSH8 0xFFFFFFFFFFFFFFFF DUP2 GT ISZERO PUSH2 0x201E JUMPI PUSH2 0x201D PUSH2 0x1AC2 JUMP JUMPDEST JUMPDEST PUSH2 0x202A DUP8 DUP3 DUP9 ADD PUSH2 0x1F85 JUMP JUMPDEST SWAP2 POP POP SWAP3 SWAP6 SWAP2 SWAP5 POP SWAP3 POP JUMP JUMPDEST PUSH1 0x0 DUP1 PUSH1 0x40 DUP4 DUP6 SUB SLT ISZERO PUSH2 0x204D JUMPI PUSH2 0x204C PUSH2 0x1ABD JUMP JUMPDEST JUMPDEST PUSH1 0x0 PUSH2 0x205B DUP6 DUP3 DUP7 ADD PUSH2 0x1D13 JUMP JUMPDEST SWAP3 POP POP PUSH1 0x20 PUSH2 0x206C DUP6 DUP3 DUP7 ADD PUSH2 0x1D13 JUMP JUMPDEST SWAP2 POP POP SWAP3 POP SWAP3 SWAP1 POP JUMP JUMPDEST PUSH32 0x4E487B7100000000000000000000000000000000000000000000000000000000 PUSH1 0x0 MSTORE PUSH1 0x22 PUSH1 0x4 MSTORE PUSH1 0x24 PUSH1 0x0 REVERT JUMPDEST PUSH1 0x0 PUSH1 0x2 DUP3 DIV SWAP1 POP PUSH1 0x1 DUP3 AND DUP1 PUSH2 0x20BD JUMPI PUSH1 0x7F DUP3 AND SWAP2 POP JUMPDEST PUSH1 0x20 DUP3 LT DUP2 EQ ISZERO PUSH2 0x20D1 JUMPI PUSH2 0x20D0 PUSH2 0x2076 JUMP JUMPDEST JUMPDEST POP SWAP2 SWAP1 POP JUMP JUMPDEST PUSH32 0x4552433732313A20617070726F76616C20746F2063757272656E74206F776E65 PUSH1 0x0 DUP3 ADD MSTORE PUSH32 0x7200000000000000000000000000000000000000000000000000000000000000 PUSH1 0x20 DUP3 ADD MSTORE POP JUMP JUMPDEST PUSH1 0x0 PUSH2 0x2133 PUSH1 0x21 DUP4 PUSH2 0x1B8D JUMP JUMPDEST SWAP2 POP PUSH2 0x213E DUP3 PUSH2 0x20D7 JUMP JUMPDEST PUSH1 0x40 DUP3 ADD SWAP1 POP SWAP2 SWAP1 POP JUMP JUMPDEST PUSH1 0x0 PUSH1 0x20 DUP3 ADD SWAP1 POP DUP2 DUP2 SUB PUSH1 0x0 DUP4 ADD MSTORE PUSH2 0x2162 DUP2 PUSH2 0x2126 JUMP JUMPDEST SWAP1 POP SWAP2 SWAP1 POP JUMP JUMPDEST PUSH32 0x4552433732313A20617070726F76652063616C6C6572206973206E6F7420746F PUSH1 0x0 DUP3 ADD MSTORE PUSH32 0x6B656E206F776E6572206F7220617070726F76656420666F7220616C6C000000 PUSH1 0x20 DUP3 ADD MSTORE POP JUMP JUMPDEST PUSH1 0x0 PUSH2 0x21C5 PUSH1 0x3D DUP4 PUSH2 0x1B8D JUMP JUMPDEST SWAP2 POP PUSH2 0x21D0 DUP3 PUSH2 0x2169 JUMP JUMPDEST PUSH1 0x40 DUP3 ADD SWAP1 POP SWAP2 SWAP1 POP JUMP JUMPDEST PUSH1 0x0 PUSH1 0x20 DUP3 ADD SWAP1 POP DUP2 DUP2 SUB PUSH1 0x0 DUP4 ADD MSTORE PUSH2 0x21F4 DUP2 PUSH2 0x21B8 JUMP JUMPDEST SWAP1 POP SWAP2 SWAP1 POP JUMP JUMPDEST PUSH32 0x4552433732313A2063616C6C6572206973206E6F7420746F6B656E206F776E65 PUSH1 0x0 DUP3 ADD MSTORE PUSH32 0x72206F7220617070726F76656400000000000000000000000000000000000000 PUSH1 0x20 DUP3 ADD MSTORE POP JUMP JUMPDEST PUSH1 0x0 PUSH2 0x2257 PUSH1 0x2D DUP4 PUSH2 0x1B8D JUMP JUMPDEST SWAP2 POP PUSH2 0x2262 DUP3 PUSH2 0x21FB JUMP JUMPDEST PUSH1 0x40 DUP3 ADD SWAP1 POP SWAP2 SWAP1 POP JUMP JUMPDEST PUSH1 0x0 PUSH1 0x20 DUP3 ADD SWAP1 POP DUP2 DUP2 SUB PUSH1 0x0 DUP4 ADD MSTORE PUSH2 0x2286 DUP2 PUSH2 0x224A JUMP JUMPDEST SWAP1 POP SWAP2 SWAP1 POP JUMP JUMPDEST PUSH32 0x4552433732313A20696E76616C696420746F6B656E2049440000000000000000 PUSH1 0x0 DUP3 ADD MSTORE POP JUMP JUMPDEST PUSH1 0x0 PUSH2 0x22C3 PUSH1 0x18 DUP4 PUSH2 0x1B8D JUMP JUMPDEST SWAP2 POP PUSH2 0x22CE DUP3 PUSH2 0x228D JUMP JUMPDEST PUSH1 0x20 DUP3 ADD SWAP1 POP SWAP2 SWAP1 POP JUMP JUMPDEST PUSH1 0x0 PUSH1 0x20 DUP3 ADD SWAP1 POP DUP2 DUP2 SUB PUSH1 0x0 DUP4 ADD MSTORE PUSH2 0x22F2 DUP2 PUSH2 0x22B6 JUMP JUMPDEST SWAP1 POP SWAP2 SWAP1 POP JUMP JUMPDEST PUSH32 0x4552433732313A204164647265737320302063616E2774206D696E7400000000 PUSH1 0x0 DUP3 ADD MSTORE POP JUMP JUMPDEST PUSH1 0x0 PUSH2 0x232F PUSH1 0x1C DUP4 PUSH2 0x1B8D JUMP JUMPDEST SWAP2 POP PUSH2 0x233A DUP3 PUSH2 0x22F9 JUMP JUMPDEST PUSH1 0x20 DUP3 ADD SWAP1 POP SWAP2 SWAP1 POP JUMP JUMPDEST PUSH1 0x0 PUSH1 0x20 DUP3 ADD SWAP1 POP DUP2 DUP2 SUB PUSH1 0x0 DUP4 ADD MSTORE PUSH2 0x235E DUP2 PUSH2 0x2322 JUMP JUMPDEST SWAP1 POP SWAP2 SWAP1 POP JUMP JUMPDEST PUSH32 0x4552433732313A20596F7520617265206E6F7420616C6C6F77656420746F206D PUSH1 0x0 DUP3 ADD MSTORE PUSH32 0x696E740000000000000000000000000000000000000000000000000000000000 PUSH1 0x20 DUP3 ADD MSTORE POP JUMP JUMPDEST PUSH1 0x0 PUSH2 0x23C1 PUSH1 0x23 DUP4 PUSH2 0x1B8D JUMP JUMPDEST SWAP2 POP PUSH2 0x23CC DUP3 PUSH2 0x2365 JUMP JUMPDEST PUSH1 0x40 DUP3 ADD SWAP1 POP SWAP2 SWAP1 POP JUMP JUMPDEST PUSH1 0x0 PUSH1 0x20 DUP3 ADD SWAP1 POP DUP2 DUP2 SUB PUSH1 0x0 DUP4 ADD MSTORE PUSH2 0x23F0 DUP2 PUSH2 0x23B4 JUMP JUMPDEST SWAP1 POP SWAP2 SWAP1 POP JUMP JUMPDEST PUSH32 0x4E487B7100000000000000000000000000000000000000000000000000000000 PUSH1 0x0 MSTORE PUSH1 0x11 PUSH1 0x4 MSTORE PUSH1 0x24 PUSH1 0x0 REVERT JUMPDEST PUSH1 0x0 PUSH2 0x2431 DUP3 PUSH2 0x1C3D JUMP JUMPDEST SWAP2 POP PUSH32 0xFFFFFFFFFFFFFFFFFFFFFFFFFFFFFFFFFFFFFFFFFFFFFFFFFFFFFFFFFFFFFFFF DUP3 EQ ISZERO PUSH2 0x2464 JUMPI PUSH2 0x2463 PUSH2 0x23F7 JUMP JUMPDEST JUMPDEST PUSH1 0x1 DUP3 ADD SWAP1 POP SWAP2 SWAP1 POP JUMP JUMPDEST PUSH32 0x4552433732313A2061646472657373207A65726F206973206E6F742061207661 PUSH1 0x0 DUP3 ADD MSTORE PUSH32 0x6C6964206F776E65720000000000000000000000000000000000000000000000 PUSH1 0x20 DUP3 ADD MSTORE POP JUMP JUMPDEST PUSH1 0x0 PUSH2 0x24CB PUSH1 0x29 DUP4 PUSH2 0x1B8D JUMP JUMPDEST SWAP2 POP PUSH2 0x24D6 DUP3 PUSH2 0x246F JUMP JUMPDEST PUSH1 0x40 DUP3 ADD SWAP1 POP SWAP2 SWAP1 POP JUMP JUMPDEST PUSH1 0x0 PUSH1 0x20 DUP3 ADD SWAP1 POP DUP2 DUP2 SUB PUSH1 0x0 DUP4 ADD MSTORE PUSH2 0x24FA DUP2 PUSH2 0x24BE JUMP JUMPDEST SWAP1 POP SWAP2 SWAP1 POP JUMP JUMPDEST PUSH32 0x4552433732313A20596F7520617265206E6F74207468652063726561746F7200 PUSH1 0x0 DUP3 ADD MSTORE POP JUMP JUMPDEST PUSH1 0x0 PUSH2 0x2537 PUSH1 0x1F DUP4 PUSH2 0x1B8D JUMP JUMPDEST SWAP2 POP PUSH2 0x2542 DUP3 PUSH2 0x2501 JUMP JUMPDEST PUSH1 0x20 DUP3 ADD SWAP1 POP SWAP2 SWAP1 POP JUMP JUMPDEST PUSH1 0x0 PUSH1 0x20 DUP3 ADD SWAP1 POP DUP2 DUP2 SUB PUSH1 0x0 DUP4 ADD MSTORE PUSH2 0x2566 DUP2 PUSH2 0x252A JUMP JUMPDEST SWAP1 POP SWAP2 SWAP1 POP JUMP JUMPDEST PUSH1 0x0 DUP2 SWAP1 POP SWAP3 SWAP2 POP POP JUMP JUMPDEST PUSH1 0x0 PUSH2 0x2583 DUP3 PUSH2 0x1B82 JUMP JUMPDEST PUSH2 0x258D DUP2 DUP6 PUSH2 0x256D JUMP JUMPDEST SWAP4 POP PUSH2 0x259D DUP2 DUP6 PUSH1 0x20 DUP7 ADD PUSH2 0x1B9E JUMP JUMPDEST DUP1 DUP5 ADD SWAP2 POP POP SWAP3 SWAP2 POP POP JUMP JUMPDEST PUSH1 0x0 PUSH2 0x25B5 DUP3 DUP6 PUSH2 0x2578 JUMP JUMPDEST SWAP2 POP PUSH2 0x25C1 DUP3 DUP5 PUSH2 0x2578 JUMP JUMPDEST SWAP2 POP DUP2 SWAP1 POP SWAP4 SWAP3 POP POP POP JUMP JUMPDEST PUSH32 0x4552433732313A207472616E736665722066726F6D20696E636F727265637420 PUSH1 0x0 DUP3 ADD MSTORE PUSH32 0x6F776E6572000000000000000000000000000000000000000000000000000000 PUSH1 0x20 DUP3 ADD MSTORE POP JUMP JUMPDEST PUSH1 0x0 PUSH2 0x2629 PUSH1 0x25 DUP4 PUSH2 0x1B8D JUMP JUMPDEST SWAP2 POP PUSH2 0x2634 DUP3 PUSH2 0x25CD JUMP JUMPDEST PUSH1 0x40 DUP3 ADD SWAP1 POP SWAP2 SWAP1 POP JUMP JUMPDEST PUSH1 0x0 PUSH1 0x20 DUP3 ADD SWAP1 POP DUP2 DUP2 SUB PUSH1 0x0 DUP4 ADD MSTORE PUSH2 0x2658 DUP2 PUSH2 0x261C JUMP JUMPDEST SWAP1 POP SWAP2 SWAP1 POP JUMP JUMPDEST PUSH32 0x4552433732313A207472616E7366657220746F20746865207A65726F20616464 PUSH1 0x0 DUP3 ADD MSTORE PUSH32 0x7265737300000000000000000000000000000000000000000000000000000000 PUSH1 0x20 DUP3 ADD MSTORE POP JUMP JUMPDEST PUSH1 0x0 PUSH2 0x26BB PUSH1 0x24 DUP4 PUSH2 0x1B8D JUMP JUMPDEST SWAP2 POP PUSH2 0x26C6 DUP3 PUSH2 0x265F JUMP JUMPDEST PUSH1 0x40 DUP3 ADD SWAP1 POP SWAP2 SWAP1 POP JUMP JUMPDEST PUSH1 0x0 PUSH1 0x20 DUP3 ADD SWAP1 POP DUP2 DUP2 SUB PUSH1 0x0 DUP4 ADD MSTORE PUSH2 0x26EA DUP2 PUSH2 0x26AE JUMP JUMPDEST SWAP1 POP SWAP2 SWAP1 POP JUMP JUMPDEST PUSH32 0x4552433732313A206D696E7420746F20746865207A65726F2061646472657373 PUSH1 0x0 DUP3 ADD MSTORE POP JUMP JUMPDEST PUSH1 0x0 PUSH2 0x2727 PUSH1 0x20 DUP4 PUSH2 0x1B8D JUMP JUMPDEST SWAP2 POP PUSH2 0x2732 DUP3 PUSH2 0x26F1 JUMP JUMPDEST PUSH1 0x20 DUP3 ADD SWAP1 POP SWAP2 SWAP1 POP JUMP JUMPDEST PUSH1 0x0 PUSH1 0x20 DUP3 ADD SWAP1 POP DUP2 DUP2 SUB PUSH1 0x0 DUP4 ADD MSTORE PUSH2 0x2756 DUP2 PUSH2 0x271A JUMP JUMPDEST SWAP1 POP SWAP2 SWAP1 POP JUMP JUMPDEST PUSH32 0x4552433732313A20746F6B656E20616C7265616479206D696E74656400000000 PUSH1 0x0 DUP3 ADD MSTORE POP JUMP JUMPDEST PUSH1 0x0 PUSH2 0x2793 PUSH1 0x1C DUP4 PUSH2 0x1B8D JUMP JUMPDEST SWAP2 POP PUSH2 0x279E DUP3 PUSH2 0x275D JUMP JUMPDEST PUSH1 0x20 DUP3 ADD SWAP1 POP SWAP2 SWAP1 POP JUMP JUMPDEST PUSH1 0x0 PUSH1 0x20 DUP3 ADD SWAP1 POP DUP2 DUP2 SUB PUSH1 0x0 DUP4 ADD MSTORE PUSH2 0x27C2 DUP2 PUSH2 0x2786 JUMP JUMPDEST SWAP1 POP SWAP2 SWAP1 POP JUMP JUMPDEST PUSH32 0x4552433732313A20617070726F766520746F2063616C6C657200000000000000 PUSH1 0x0 DUP3 ADD MSTORE POP JUMP JUMPDEST PUSH1 0x0 PUSH2 0x27FF PUSH1 0x19 DUP4 PUSH2 0x1B8D JUMP JUMPDEST SWAP2 POP PUSH2 0x280A DUP3 PUSH2 0x27C9 JUMP JUMPDEST PUSH1 0x20 DUP3 ADD SWAP1 POP SWAP2 SWAP1 POP JUMP JUMPDEST PUSH1 0x0 PUSH1 0x20 DUP3 ADD SWAP1 POP DUP2 DUP2 SUB PUSH1 0x0 DUP4 ADD MSTORE PUSH2 0x282E DUP2 PUSH2 0x27F2 JUMP JUMPDEST SWAP1 POP SWAP2 SWAP1 POP JUMP JUMPDEST PUSH32 0x4552433732313A207472616E7366657220746F206E6F6E204552433732315265 PUSH1 0x0 DUP3 ADD MSTORE PUSH32 0x63656976657220696D706C656D656E7465720000000000000000000000000000 PUSH1 0x20 DUP3 ADD MSTORE POP JUMP JUMPDEST PUSH1 0x0 PUSH2 0x2891 PUSH1 0x32 DUP4 PUSH2 0x1B8D JUMP JUMPDEST SWAP2 POP PUSH2 0x289C DUP3 PUSH2 0x2835 JUMP JUMPDEST PUSH1 0x40 DUP3 ADD SWAP1 POP SWAP2 SWAP1 POP JUMP JUMPDEST PUSH1 0x0 PUSH1 0x20 DUP3 ADD SWAP1 POP DUP2 DUP2 SUB PUSH1 0x0 DUP4 ADD MSTORE PUSH2 0x28C0 DUP2 PUSH2 0x2884 JUMP JUMPDEST SWAP1 POP SWAP2 SWAP1 POP JUMP JUMPDEST PUSH32 0x4E487B7100000000000000000000000000000000000000000000000000000000 PUSH1 0x0 MSTORE PUSH1 0x12 PUSH1 0x4 MSTORE PUSH1 0x24 PUSH1 0x0 REVERT JUMPDEST PUSH1 0x0 PUSH2 0x2901 DUP3 PUSH2 0x1C3D JUMP JUMPDEST SWAP2 POP PUSH2 0x290C DUP4 PUSH2 0x1C3D JUMP JUMPDEST SWAP3 POP DUP3 DUP3 LT ISZERO PUSH2 0x291F JUMPI PUSH2 0x291E PUSH2 0x23F7 JUMP JUMPDEST JUMPDEST DUP3 DUP3 SUB SWAP1 POP SWAP3 SWAP2 POP POP JUMP JUMPDEST PUSH1 0x0 PUSH2 0x2935 DUP3 PUSH2 0x1C3D JUMP JUMPDEST SWAP2 POP PUSH2 0x2940 DUP4 PUSH2 0x1C3D JUMP JUMPDEST SWAP3 POP DUP3 PUSH32 0xFFFFFFFFFFFFFFFFFFFFFFFFFFFFFFFFFFFFFFFFFFFFFFFFFFFFFFFFFFFFFFFF SUB DUP3 GT ISZERO PUSH2 0x2975 JUMPI PUSH2 0x2974 PUSH2 0x23F7 JUMP JUMPDEST JUMPDEST DUP3 DUP3 ADD SWAP1 POP SWAP3 SWAP2 POP POP JUMP JUMPDEST PUSH1 0x0 DUP2 MLOAD SWAP1 POP SWAP2 SWAP1 POP JUMP JUMPDEST PUSH1 0x0 DUP3 DUP3 MSTORE PUSH1 0x20 DUP3 ADD SWAP1 POP SWAP3 SWAP2 POP POP JUMP JUMPDEST PUSH1 0x0 PUSH2 0x29A7 DUP3 PUSH2 0x2980 JUMP JUMPDEST PUSH2 0x29B1 DUP2 DUP6 PUSH2 0x298B JUMP JUMPDEST SWAP4 POP PUSH2 0x29C1 DUP2 DUP6 PUSH1 0x20 DUP7 ADD PUSH2 0x1B9E JUMP JUMPDEST PUSH2 0x29CA DUP2 PUSH2 0x1BD1 JUMP JUMPDEST DUP5 ADD SWAP2 POP POP SWAP3 SWAP2 POP POP JUMP JUMPDEST PUSH1 0x0 PUSH1 0x80 DUP3 ADD SWAP1 POP PUSH2 0x29EA PUSH1 0x0 DUP4 ADD DUP8 PUSH2 0x1CD2 JUMP JUMPDEST PUSH2 0x29F7 PUSH1 0x20 DUP4 ADD DUP7 PUSH2 0x1CD2 JUMP JUMPDEST PUSH2 0x2A04 PUSH1 0x40 DUP4 ADD DUP6 PUSH2 0x1D68 JUMP JUMPDEST DUP2 DUP2 SUB PUSH1 0x60 DUP4 ADD MSTORE PUSH2 0x2A16 DUP2 DUP5 PUSH2 0x299C JUMP JUMPDEST SWAP1 POP SWAP6 SWAP5 POP POP POP POP POP JUMP JUMPDEST PUSH1 0x0 DUP2 MLOAD SWAP1 POP PUSH2 0x2A30 DUP2 PUSH2 0x1AF3 JUMP JUMPDEST SWAP3 SWAP2 POP POP JUMP JUMPDEST PUSH1 0x0 PUSH1 0x20 DUP3 DUP5 SUB SLT ISZERO PUSH2 0x2A4C JUMPI PUSH2 0x2A4B PUSH2 0x1ABD JUMP JUMPDEST JUMPDEST PUSH1 0x0 PUSH2 0x2A5A DUP5 DUP3 DUP6 ADD PUSH2 0x2A21 JUMP JUMPDEST SWAP2 POP POP SWAP3 SWAP2 POP POP JUMP INVALID PUSH10 0x7066733A2F2F516D537A PUSH7 0x69617944697A7A PUSH17 0x79646F464E395350466750324D6147436B MSTORE8 CODESIZE CALLDATALOAD PUSH5 0x314A4C4543 PUSH26 0x31344451556E2FA2646970667358221220128742CA9F4CF9210F CALLCODE 0xBB 0xCE 0x49 PUSH3 0x8A4572 PUSH20 0x749BF3E8ADADCAA4EC35F950104564736F6C6343 STOP ADDMOD MULMOD STOP CALLER "},"methodIdentifiers":{"MAX_SUPPLY()":"32cb6b0c","approve(address,uint256)":"095ea7b3","balanceOf(address)":"70a08231","getApproved(uint256)":"081812fc","isApprovedForAll(address,address)":"e985e9c5","mint(address)":"6a627842","name()":"06fdde03","ownerOf(uint256)":"6352211e","safeTransferFrom(address,address,uint256)":"42842e0e","safeTransferFrom(address,address,uint256,bytes)":"b88d4fde","setApprovalForAll(address,bool)":"a22cb465","setMinterAddress(address)":"a3106b95","supportsInterface(bytes4)":"01ffc9a7","symbol()":"95d89b41","tokenURI(uint256)":"c87b56dd","totalSupply()":"18160ddd","transferFrom(address,address,uint256)":"23b872dd"}}}}}