{
  "_format": "hh-sol-artifact-1",
  "contractName": "MultiToken",
  "sourceName": "contracts/MultiToken.sol",
  "abi": [
    {
      "inputs": [],
      "stateMutability": "nonpayable",
      "type": "constructor"
    },
    {
      "anonymous": false,
      "inputs": [
        {
          "indexed": true,
          "internalType": "address",
          "name": "account",
          "type": "address"
        },
        {
          "indexed": true,
          "internalType": "address",
          "name": "operator",
          "type": "address"
        },
        {
          "indexed": false,
          "internalType": "bool",
          "name": "approved",
          "type": "bool"
        }
      ],
      "name": "ApprovalForAll",
      "type": "event"
    },
    {
      "anonymous": false,
      "inputs": [
        {
          "indexed": true,
          "internalType": "address",
          "name": "previousOwner",
          "type": "address"
        },
        {
          "indexed": true,
          "internalType": "address",
          "name": "newOwner",
          "type": "address"
        }
      ],
      "name": "OwnershipTransferred",
      "type": "event"
    },
    {
      "anonymous": false,
      "inputs": [
        {
          "indexed": true,
          "internalType": "address",
          "name": "operator",
          "type": "address"
        },
        {
          "indexed": true,
          "internalType": "address",
          "name": "from",
          "type": "address"
        },
        {
          "indexed": true,
          "internalType": "address",
          "name": "to",
          "type": "address"
        },
        {
          "indexed": false,
          "internalType": "uint256[]",
          "name": "ids",
          "type": "uint256[]"
        },
        {
          "indexed": false,
          "internalType": "uint256[]",
          "name": "values",
          "type": "uint256[]"
        }
      ],
      "name": "TransferBatch",
      "type": "event"
    },
    {
      "anonymous": false,
      "inputs": [
        {
          "indexed": true,
          "internalType": "address",
          "name": "operator",
          "type": "address"
        },
        {
          "indexed": true,
          "internalType": "address",
          "name": "from",
          "type": "address"
        },
        {
          "indexed": true,
          "internalType": "address",
          "name": "to",
          "type": "address"
        },
        {
          "indexed": false,
          "internalType": "uint256",
          "name": "id",
          "type": "uint256"
        },
        {
          "indexed": false,
          "internalType": "uint256",
          "name": "value",
          "type": "uint256"
        }
      ],
      "name": "TransferSingle",
      "type": "event"
    },
    {
      "anonymous": false,
      "inputs": [
        {
          "indexed": false,
          "internalType": "string",
          "name": "value",
          "type": "string"
        },
        {
          "indexed": true,
          "internalType": "uint256",
          "name": "id",
          "type": "uint256"
        }
      ],
      "name": "URI",
      "type": "event"
    },
    {
      "anonymous": false,
      "inputs": [
        {
          "indexed": false,
          "internalType": "address",
          "name": "minter",
          "type": "address"
        }
      ],
      "name": "newMinter",
      "type": "event"
    },
    {
      "inputs": [
        {
          "internalType": "address",
          "name": "account",
          "type": "address"
        },
        {
          "internalType": "uint256",
          "name": "id",
          "type": "uint256"
        }
      ],
      "name": "balanceOf",
      "outputs": [
        {
          "internalType": "uint256",
          "name": "",
          "type": "uint256"
        }
      ],
      "stateMutability": "view",
      "type": "function"
    },
    {
      "inputs": [
        {
          "internalType": "address[]",
          "name": "accounts",
          "type": "address[]"
        },
        {
          "internalType": "uint256[]",
          "name": "ids",
          "type": "uint256[]"
        }
      ],
      "name": "balanceOfBatch",
      "outputs": [
        {
          "internalType": "uint256[]",
          "name": "",
          "type": "uint256[]"
        }
      ],
      "stateMutability": "view",
      "type": "function"
    },
    {
      "inputs": [
        {
          "internalType": "address",
          "name": "account",
          "type": "address"
        },
        {
          "internalType": "uint256",
          "name": "id",
          "type": "uint256"
        },
        {
          "internalType": "uint256",
          "name": "amount",
          "type": "uint256"
        }
      ],
      "name": "burn",
      "outputs": [],
      "stateMutability": "nonpayable",
      "type": "function"
    },
    {
      "inputs": [
        {
          "internalType": "address",
          "name": "account",
          "type": "address"
        },
        {
          "internalType": "uint256[]",
          "name": "ids",
          "type": "uint256[]"
        },
        {
          "internalType": "uint256[]",
          "name": "amounts",
          "type": "uint256[]"
        }
      ],
      "name": "burnBatch",
      "outputs": [],
      "stateMutability": "nonpayable",
      "type": "function"
    },
    {
      "inputs": [
        {
          "internalType": "address",
          "name": "account",
          "type": "address"
        },
        {
          "internalType": "address",
          "name": "operator",
          "type": "address"
        }
      ],
      "name": "isApprovedForAll",
      "outputs": [
        {
          "internalType": "bool",
          "name": "",
          "type": "bool"
        }
      ],
      "stateMutability": "view",
      "type": "function"
    },
    {
      "inputs": [
        {
          "internalType": "address",
          "name": "account",
          "type": "address"
        },
        {
          "internalType": "uint256",
          "name": "id",
          "type": "uint256"
        },
        {
          "internalType": "uint256",
          "name": "amount",
          "type": "uint256"
        }
      ],
      "name": "mint",
      "outputs": [],
      "stateMutability": "nonpayable",
      "type": "function"
    },
    {
      "inputs": [
        {
          "internalType": "address",
          "name": "account",
          "type": "address"
        },
        {
          "internalType": "uint256[]",
          "name": "ids",
          "type": "uint256[]"
        },
        {
          "internalType": "uint256[]",
          "name": "amounts",
          "type": "uint256[]"
        }
      ],
      "name": "mintBatch",
      "outputs": [],
      "stateMutability": "nonpayable",
      "type": "function"
    },
    {
      "inputs": [],
      "name": "minter",
      "outputs": [
        {
          "internalType": "address",
          "name": "",
          "type": "address"
        }
      ],
      "stateMutability": "view",
      "type": "function"
    },
    {
      "inputs": [],
      "name": "owner",
      "outputs": [
        {
          "internalType": "address",
          "name": "",
          "type": "address"
        }
      ],
      "stateMutability": "view",
      "type": "function"
    },
    {
      "inputs": [],
      "name": "renounceOwnership",
      "outputs": [],
      "stateMutability": "nonpayable",
      "type": "function"
    },
    {
      "inputs": [
        {
          "internalType": "address",
          "name": "from",
          "type": "address"
        },
        {
          "internalType": "address",
          "name": "to",
          "type": "address"
        },
        {
          "internalType": "uint256[]",
          "name": "ids",
          "type": "uint256[]"
        },
        {
          "internalType": "uint256[]",
          "name": "amounts",
          "type": "uint256[]"
        },
        {
          "internalType": "bytes",
          "name": "data",
          "type": "bytes"
        }
      ],
      "name": "safeBatchTransferFrom",
      "outputs": [],
      "stateMutability": "nonpayable",
      "type": "function"
    },
    {
      "inputs": [
        {
          "internalType": "address",
          "name": "from",
          "type": "address"
        },
        {
          "internalType": "address",
          "name": "to",
          "type": "address"
        },
        {
          "internalType": "uint256",
          "name": "id",
          "type": "uint256"
        },
        {
          "internalType": "uint256",
          "name": "amount",
          "type": "uint256"
        },
        {
          "internalType": "bytes",
          "name": "data",
          "type": "bytes"
        }
      ],
      "name": "safeTransferFrom",
      "outputs": [],
      "stateMutability": "nonpayable",
      "type": "function"
    },
    {
      "inputs": [
        {
          "internalType": "address",
          "name": "operator",
          "type": "address"
        },
        {
          "internalType": "bool",
          "name": "approved",
          "type": "bool"
        }
      ],
      "name": "setApprovalForAll",
      "outputs": [],
      "stateMutability": "nonpayable",
      "type": "function"
    },
    {
      "inputs": [
        {
          "internalType": "address",
          "name": "_minter",
          "type": "address"
        }
      ],
      "name": "setMinter",
      "outputs": [],
      "stateMutability": "nonpayable",
      "type": "function"
    },
    {
      "inputs": [
        {
          "internalType": "uint256",
          "name": "_tokenId",
          "type": "uint256"
        },
        {
          "internalType": "string",
          "name": "_newUri",
          "type": "string"
        }
      ],
      "name": "setURI",
      "outputs": [],
      "stateMutability": "nonpayable",
      "type": "function"
    },
    {
      "inputs": [
        {
          "internalType": "bytes4",
          "name": "interfaceId",
          "type": "bytes4"
        }
      ],
      "name": "supportsInterface",
      "outputs": [
        {
          "internalType": "bool",
          "name": "",
          "type": "bool"
        }
      ],
      "stateMutability": "view",
      "type": "function"
    },
    {
      "inputs": [
        {
          "internalType": "address",
          "name": "newOwner",
          "type": "address"
        }
      ],
      "name": "transferOwnership",
      "outputs": [],
      "stateMutability": "nonpayable",
      "type": "function"
    },
    {
      "inputs": [
        {
          "internalType": "uint256",
          "name": "_tokenId",
          "type": "uint256"
        }
      ],
      "name": "uri",
      "outputs": [
        {
          "internalType": "string",
          "name": "",
          "type": "string"
        }
      ],
      "stateMutability": "view",
      "type": "function"
    }
  ],
  "bytecode": "0x60806040523480156200001157600080fd5b506040518060200160405280600081525062000033816200005a60201b60201c565b5062000054620000486200007660201b60201c565b6200007e60201b60201c565b62000259565b80600290805190602001906200007292919062000144565b5050565b600033905090565b6000600360009054906101000a900473ffffffffffffffffffffffffffffffffffffffff16905081600360006101000a81548173ffffffffffffffffffffffffffffffffffffffff021916908373ffffffffffffffffffffffffffffffffffffffff1602179055508173ffffffffffffffffffffffffffffffffffffffff168173ffffffffffffffffffffffffffffffffffffffff167f8be0079c531659141344cd1fd0a4f28419497f9722a3daafe3b4186f6b6457e060405160405180910390a35050565b828054620001529062000223565b90600052602060002090601f016020900481019282620001765760008555620001c2565b82601f106200019157805160ff1916838001178555620001c2565b82800160010185558215620001c2579182015b82811115620001c1578251825591602001919060010190620001a4565b5b509050620001d19190620001d5565b5090565b5b80821115620001f0576000816000905550600101620001d6565b5090565b7f4e487b7100000000000000000000000000000000000000000000000000000000600052602260045260246000fd5b600060028204905060018216806200023c57607f821691505b60208210811415620002535762000252620001f4565b5b50919050565b613f6a80620002696000396000f3fe608060405234801561001057600080fd5b50600436106101155760003560e01c8063862440e2116100a2578063e985e9c511610071578063e985e9c5146102c8578063f242432a146102f8578063f2fde38b14610314578063f5298aca14610330578063fca3b5aa1461034c57610115565b8063862440e2146102565780638da5cb5b14610272578063a22cb46514610290578063d81d0a15146102ac57610115565b8063156e29f6116100e9578063156e29f6146101c85780632eb2c2d6146101e45780634e1273f4146102005780636b20c45414610230578063715018a61461024c57610115565b8062fdd58e1461011a57806301ffc9a71461014a578063075461721461017a5780630e89341c14610198575b600080fd5b610134600480360381019061012f91906126d2565b610368565b6040516101419190612721565b60405180910390f35b610164600480360381019061015f9190612794565b610431565b60405161017191906127dc565b60405180910390f35b610182610513565b60405161018f9190612806565b60405180910390f35b6101b260048036038101906101ad9190612821565b610539565b6040516101bf91906128e7565b60405180910390f35b6101e260048036038101906101dd9190612909565b61057e565b005b6101fe60048036038101906101f99190612b59565b61062e565b005b61021a60048036038101906102159190612ceb565b6106cf565b6040516102279190612e21565b60405180910390f35b61024a60048036038101906102459190612e43565b6107e8565b005b610254610888565b005b610270600480360381019061026b9190612f6f565b61089c565b005b61027a6108d0565b6040516102879190612806565b60405180910390f35b6102aa60048036038101906102a59190612ff7565b6108fa565b005b6102c660048036038101906102c19190612e43565b610910565b005b6102e260048036038101906102dd9190613037565b6109c0565b6040516102ef91906127dc565b60405180910390f35b610312600480360381019061030d9190613077565b610a54565b005b61032e6004803603810190610329919061310e565b610af5565b005b61034a60048036038101906103459190612909565b610b79565b005b6103666004803603810190610361919061310e565b610c19565b005b60008073ffffffffffffffffffffffffffffffffffffffff168373ffffffffffffffffffffffffffffffffffffffff1614156103d9576040517f08c379a00000000000000000000000000000000000000000000000000000000081526004016103d0906131ad565b60405180910390fd5b60008083815260200190815260200160002060008473ffffffffffffffffffffffffffffffffffffffff1673ffffffffffffffffffffffffffffffffffffffff16815260200190815260200160002054905092915050565b60007fd9b67a26000000000000000000000000000000000000000000000000000000007bffffffffffffffffffffffffffffffffffffffffffffffffffffffff1916827bffffffffffffffffffffffffffffffffffffffffffffffffffffffff191614806104fc57507f0e89341c000000000000000000000000000000000000000000000000000000007bffffffffffffffffffffffffffffffffffffffffffffffffffffffff1916827bffffffffffffffffffffffffffffffffffffffffffffffffffffffff1916145b8061050c575061050b82610d0c565b5b9050919050565b600560009054906101000a900473ffffffffffffffffffffffffffffffffffffffff1681565b60606004600083815260200190815260200160002061055783610d76565b6040516020016105689291906132fe565b6040516020818303038152906040529050919050565b600560009054906101000a900473ffffffffffffffffffffffffffffffffffffffff1673ffffffffffffffffffffffffffffffffffffffff163373ffffffffffffffffffffffffffffffffffffffff161461060e576040517f08c379a000000000000000000000000000000000000000000000000000000000815260040161060590613394565b60405180910390fd5b61062983838360405180602001604052806000815250610e4e565b505050565b610636610fff565b73ffffffffffffffffffffffffffffffffffffffff168573ffffffffffffffffffffffffffffffffffffffff16148061067c575061067b85610676610fff565b6109c0565b5b6106bb576040517f08c379a00000000000000000000000000000000000000000000000000000000081526004016106b290613426565b60405180910390fd5b6106c88585858585611007565b5050505050565b60608151835114610715576040517f08c379a000000000000000000000000000000000000000000000000000000000815260040161070c906134b8565b60405180910390fd5b6000835167ffffffffffffffff81111561073257610731612961565b5b6040519080825280602002602001820160405280156107605781602001602082028036833780820191505090505b50905060005b84518110156107dd576107ad858281518110610785576107846134d8565b5b60200260200101518583815181106107a05761079f6134d8565b5b6020026020010151610368565b8282815181106107c0576107bf6134d8565b5b602002602001018181525050806107d690613536565b9050610766565b508091505092915050565b600560009054906101000a900473ffffffffffffffffffffffffffffffffffffffff1673ffffffffffffffffffffffffffffffffffffffff163373ffffffffffffffffffffffffffffffffffffffff1614610878576040517f08c379a000000000000000000000000000000000000000000000000000000000815260040161086f90613394565b60405180910390fd5b610883838383611329565b505050565b6108906115f8565b61089a6000611676565b565b6108a46115f8565b806004600084815260200190815260200160002090805190602001906108cb929190612587565b505050565b6000600360009054906101000a900473ffffffffffffffffffffffffffffffffffffffff16905090565b61090c610905610fff565b838361173c565b5050565b600560009054906101000a900473ffffffffffffffffffffffffffffffffffffffff1673ffffffffffffffffffffffffffffffffffffffff163373ffffffffffffffffffffffffffffffffffffffff16146109a0576040517f08c379a000000000000000000000000000000000000000000000000000000000815260040161099790613394565b60405180910390fd5b6109bb838383604051806020016040528060008152506118a9565b505050565b6000600160008473ffffffffffffffffffffffffffffffffffffffff1673ffffffffffffffffffffffffffffffffffffffff16815260200190815260200160002060008373ffffffffffffffffffffffffffffffffffffffff1673ffffffffffffffffffffffffffffffffffffffff16815260200190815260200160002060009054906101000a900460ff16905092915050565b610a5c610fff565b73ffffffffffffffffffffffffffffffffffffffff168573ffffffffffffffffffffffffffffffffffffffff161480610aa25750610aa185610a9c610fff565b6109c0565b5b610ae1576040517f08c379a0000000000000000000000000000000000000000000000000000000008152600401610ad890613426565b60405180910390fd5b610aee8585858585611ad6565b5050505050565b610afd6115f8565b600073ffffffffffffffffffffffffffffffffffffffff168173ffffffffffffffffffffffffffffffffffffffff161415610b6d576040517f08c379a0000000000000000000000000000000000000000000000000000000008152600401610b64906135f1565b60405180910390fd5b610b7681611676565b50565b600560009054906101000a900473ffffffffffffffffffffffffffffffffffffffff1673ffffffffffffffffffffffffffffffffffffffff163373ffffffffffffffffffffffffffffffffffffffff1614610c09576040517f08c379a0000000000000000000000000000000000000000000000000000000008152600401610c0090613394565b60405180910390fd5b610c14838383611d72565b505050565b610c216115f8565b600073ffffffffffffffffffffffffffffffffffffffff168173ffffffffffffffffffffffffffffffffffffffff161415610c91576040517f08c379a0000000000000000000000000000000000000000000000000000000008152600401610c8890613683565b60405180910390fd5b80600560006101000a81548173ffffffffffffffffffffffffffffffffffffffff021916908373ffffffffffffffffffffffffffffffffffffffff1602179055507f573419123dd77f877c54da98fb53ea1dcec79de9339dfb9026ef5784833efee181604051610d019190612806565b60405180910390a150565b60007f01ffc9a7000000000000000000000000000000000000000000000000000000007bffffffffffffffffffffffffffffffffffffffffffffffffffffffff1916827bffffffffffffffffffffffffffffffffffffffffffffffffffffffff1916149050919050565b606060006001610d8584611fb9565b01905060008167ffffffffffffffff811115610da457610da3612961565b5b6040519080825280601f01601f191660200182016040528015610dd65781602001600182028036833780820191505090505b509050600082602001820190505b600115610e43578080600190039150507f3031323334353637383961626364656600000000000000000000000000000000600a86061a8153600a8581610e2d57610e2c6136a3565b5b0494506000851415610e3e57610e43565b610de4565b819350505050919050565b600073ffffffffffffffffffffffffffffffffffffffff168473ffffffffffffffffffffffffffffffffffffffff161415610ebe576040517f08c379a0000000000000000000000000000000000000000000000000000000008152600401610eb590613744565b60405180910390fd5b6000610ec8610fff565b90506000610ed58561210c565b90506000610ee28561210c565b9050610ef383600089858589612186565b8460008088815260200190815260200160002060008973ffffffffffffffffffffffffffffffffffffffff1673ffffffffffffffffffffffffffffffffffffffff1681526020019081526020016000206000828254610f529190613764565b925050819055508673ffffffffffffffffffffffffffffffffffffffff16600073ffffffffffffffffffffffffffffffffffffffff168473ffffffffffffffffffffffffffffffffffffffff167fc3d58168c5ae7397731d063d5bbf3d657854427343f4c083240f7aacaa2d0f628989604051610fd09291906137ba565b60405180910390a4610fe78360008985858961218e565b610ff683600089898989612196565b50505050505050565b600033905090565b815183511461104b576040517f08c379a000000000000000000000000000000000000000000000000000000000815260040161104290613855565b60405180910390fd5b600073ffffffffffffffffffffffffffffffffffffffff168473ffffffffffffffffffffffffffffffffffffffff1614156110bb576040517f08c379a00000000000000000000000000000000000000000000000000000000081526004016110b2906138e7565b60405180910390fd5b60006110c5610fff565b90506110d5818787878787612186565b60005b84518110156112865760008582815181106110f6576110f56134d8565b5b602002602001015190506000858381518110611115576111146134d8565b5b60200260200101519050600080600084815260200190815260200160002060008b73ffffffffffffffffffffffffffffffffffffffff1673ffffffffffffffffffffffffffffffffffffffff168152602001908152602001600020549050818110156111b6576040517f08c379a00000000000000000000000000000000000000000000000000000000081526004016111ad90613979565b60405180910390fd5b81810360008085815260200190815260200160002060008c73ffffffffffffffffffffffffffffffffffffffff1673ffffffffffffffffffffffffffffffffffffffff168152602001908152602001600020819055508160008085815260200190815260200160002060008b73ffffffffffffffffffffffffffffffffffffffff1673ffffffffffffffffffffffffffffffffffffffff168152602001908152602001600020600082825461126b9190613764565b925050819055505050508061127f90613536565b90506110d8565b508473ffffffffffffffffffffffffffffffffffffffff168673ffffffffffffffffffffffffffffffffffffffff168273ffffffffffffffffffffffffffffffffffffffff167f4a39dc06d4c0dbc64b70af90fd698a233a518aa5d07e595d983b8c0526c8f7fb87876040516112fd929190613999565b60405180910390a461131381878787878761218e565b61132181878787878761237d565b505050505050565b600073ffffffffffffffffffffffffffffffffffffffff168373ffffffffffffffffffffffffffffffffffffffff161415611399576040517f08c379a000000000000000000000000000000000000000000000000000000000815260040161139090613a42565b60405180910390fd5b80518251146113dd576040517f08c379a00000000000000000000000000000000000000000000000000000000081526004016113d490613855565b60405180910390fd5b60006113e7610fff565b905061140781856000868660405180602001604052806000815250612186565b60005b8351811015611554576000848281518110611428576114276134d8565b5b602002602001015190506000848381518110611447576114466134d8565b5b60200260200101519050600080600084815260200190815260200160002060008973ffffffffffffffffffffffffffffffffffffffff1673ffffffffffffffffffffffffffffffffffffffff168152602001908152602001600020549050818110156114e8576040517f08c379a00000000000000000000000000000000000000000000000000000000081526004016114df90613ad4565b60405180910390fd5b81810360008085815260200190815260200160002060008a73ffffffffffffffffffffffffffffffffffffffff1673ffffffffffffffffffffffffffffffffffffffff16815260200190815260200160002081905550505050808061154c90613536565b91505061140a565b50600073ffffffffffffffffffffffffffffffffffffffff168473ffffffffffffffffffffffffffffffffffffffff168273ffffffffffffffffffffffffffffffffffffffff167f4a39dc06d4c0dbc64b70af90fd698a233a518aa5d07e595d983b8c0526c8f7fb86866040516115cc929190613999565b60405180910390a46115f28185600086866040518060200160405280600081525061218e565b50505050565b611600610fff565b73ffffffffffffffffffffffffffffffffffffffff1661161e6108d0565b73ffffffffffffffffffffffffffffffffffffffff1614611674576040517f08c379a000000000000000000000000000000000000000000000000000000000815260040161166b90613b40565b60405180910390fd5b565b6000600360009054906101000a900473ffffffffffffffffffffffffffffffffffffffff16905081600360006101000a81548173ffffffffffffffffffffffffffffffffffffffff021916908373ffffffffffffffffffffffffffffffffffffffff1602179055508173ffffffffffffffffffffffffffffffffffffffff168173ffffffffffffffffffffffffffffffffffffffff167f8be0079c531659141344cd1fd0a4f28419497f9722a3daafe3b4186f6b6457e060405160405180910390a35050565b8173ffffffffffffffffffffffffffffffffffffffff168373ffffffffffffffffffffffffffffffffffffffff1614156117ab576040517f08c379a00000000000000000000000000000000000000000000000000000000081526004016117a290613bd2565b60405180910390fd5b80600160008573ffffffffffffffffffffffffffffffffffffffff1673ffffffffffffffffffffffffffffffffffffffff16815260200190815260200160002060008473ffffffffffffffffffffffffffffffffffffffff1673ffffffffffffffffffffffffffffffffffffffff16815260200190815260200160002060006101000a81548160ff0219169083151502179055508173ffffffffffffffffffffffffffffffffffffffff168373ffffffffffffffffffffffffffffffffffffffff167f17307eab39ab6107e8899845ad3d59bd9653f200f220920489ca2b5937696c318360405161189c91906127dc565b60405180910390a3505050565b600073ffffffffffffffffffffffffffffffffffffffff168473ffffffffffffffffffffffffffffffffffffffff161415611919576040517f08c379a000000000000000000000000000000000000000000000000000000000815260040161191090613744565b60405180910390fd5b815183511461195d576040517f08c379a000000000000000000000000000000000000000000000000000000000815260040161195490613855565b60405180910390fd5b6000611967610fff565b905061197881600087878787612186565b60005b8451811015611a3157838181518110611997576119966134d8565b5b60200260200101516000808784815181106119b5576119b46134d8565b5b6020026020010151815260200190815260200160002060008873ffffffffffffffffffffffffffffffffffffffff1673ffffffffffffffffffffffffffffffffffffffff1681526020019081526020016000206000828254611a179190613764565b925050819055508080611a2990613536565b91505061197b565b508473ffffffffffffffffffffffffffffffffffffffff16600073ffffffffffffffffffffffffffffffffffffffff168273ffffffffffffffffffffffffffffffffffffffff167f4a39dc06d4c0dbc64b70af90fd698a233a518aa5d07e595d983b8c0526c8f7fb8787604051611aa9929190613999565b60405180910390a4611ac08160008787878761218e565b611acf8160008787878761237d565b5050505050565b600073ffffffffffffffffffffffffffffffffffffffff168473ffffffffffffffffffffffffffffffffffffffff161415611b46576040517f08c379a0000000000000000000000000000000000000000000000000000000008152600401611b3d906138e7565b60405180910390fd5b6000611b50610fff565b90506000611b5d8561210c565b90506000611b6a8561210c565b9050611b7a838989858589612186565b600080600088815260200190815260200160002060008a73ffffffffffffffffffffffffffffffffffffffff1673ffffffffffffffffffffffffffffffffffffffff16815260200190815260200160002054905085811015611c11576040517f08c379a0000000000000000000000000000000000000000000000000000000008152600401611c0890613979565b60405180910390fd5b85810360008089815260200190815260200160002060008b73ffffffffffffffffffffffffffffffffffffffff1673ffffffffffffffffffffffffffffffffffffffff168152602001908152602001600020819055508560008089815260200190815260200160002060008a73ffffffffffffffffffffffffffffffffffffffff1673ffffffffffffffffffffffffffffffffffffffff1681526020019081526020016000206000828254611cc69190613764565b925050819055508773ffffffffffffffffffffffffffffffffffffffff168973ffffffffffffffffffffffffffffffffffffffff168573ffffffffffffffffffffffffffffffffffffffff167fc3d58168c5ae7397731d063d5bbf3d657854427343f4c083240f7aacaa2d0f628a8a604051611d439291906137ba565b60405180910390a4611d59848a8a86868a61218e565b611d67848a8a8a8a8a612196565b505050505050505050565b600073ffffffffffffffffffffffffffffffffffffffff168373ffffffffffffffffffffffffffffffffffffffff161415611de2576040517f08c379a0000000000000000000000000000000000000000000000000000000008152600401611dd990613a42565b60405180910390fd5b6000611dec610fff565b90506000611df98461210c565b90506000611e068461210c565b9050611e2683876000858560405180602001604052806000815250612186565b600080600087815260200190815260200160002060008873ffffffffffffffffffffffffffffffffffffffff1673ffffffffffffffffffffffffffffffffffffffff16815260200190815260200160002054905084811015611ebd576040517f08c379a0000000000000000000000000000000000000000000000000000000008152600401611eb490613ad4565b60405180910390fd5b84810360008088815260200190815260200160002060008973ffffffffffffffffffffffffffffffffffffffff1673ffffffffffffffffffffffffffffffffffffffff16815260200190815260200160002081905550600073ffffffffffffffffffffffffffffffffffffffff168773ffffffffffffffffffffffffffffffffffffffff168573ffffffffffffffffffffffffffffffffffffffff167fc3d58168c5ae7397731d063d5bbf3d657854427343f4c083240f7aacaa2d0f628989604051611f8a9291906137ba565b60405180910390a4611fb08488600086866040518060200160405280600081525061218e565b50505050505050565b600080600090507a184f03e93ff9f4daa797ed6e38ed64bf6a1f0100000000000000008310612017577a184f03e93ff9f4daa797ed6e38ed64bf6a1f010000000000000000838161200d5761200c6136a3565b5b0492506040810190505b6d04ee2d6d415b85acef81000000008310612054576d04ee2d6d415b85acef8100000000838161204a576120496136a3565b5b0492506020810190505b662386f26fc10000831061208357662386f26fc100008381612079576120786136a3565b5b0492506010810190505b6305f5e10083106120ac576305f5e10083816120a2576120a16136a3565b5b0492506008810190505b61271083106120d15761271083816120c7576120c66136a3565b5b0492506004810190505b606483106120f457606483816120ea576120e96136a3565b5b0492506002810190505b600a8310612103576001810190505b80915050919050565b60606000600167ffffffffffffffff81111561212b5761212a612961565b5b6040519080825280602002602001820160405280156121595781602001602082028036833780820191505090505b5090508281600081518110612171576121706134d8565b5b60200260200101818152505080915050919050565b505050505050565b505050505050565b6121b58473ffffffffffffffffffffffffffffffffffffffff16612564565b15612375578373ffffffffffffffffffffffffffffffffffffffff1663f23a6e6187878686866040518663ffffffff1660e01b81526004016121fb959493929190613c47565b602060405180830381600087803b15801561221557600080fd5b505af192505050801561224657506040513d601f19601f820116820180604052508101906122439190613cb6565b60015b6122ec57612252613cf0565b806308c379a014156122af5750612267613d12565b8061227257506122b1565b806040517f08c379a00000000000000000000000000000000000000000000000000000000081526004016122a691906128e7565b60405180910390fd5b505b6040517f08c379a00000000000000000000000000000000000000000000000000000000081526004016122e390613e1a565b60405180910390fd5b63f23a6e6160e01b7bffffffffffffffffffffffffffffffffffffffffffffffffffffffff1916817bffffffffffffffffffffffffffffffffffffffffffffffffffffffff191614612373576040517f08c379a000000000000000000000000000000000000000000000000000000000815260040161236a90613eac565b60405180910390fd5b505b505050505050565b61239c8473ffffffffffffffffffffffffffffffffffffffff16612564565b1561255c578373ffffffffffffffffffffffffffffffffffffffff1663bc197c8187878686866040518663ffffffff1660e01b81526004016123e2959493929190613ecc565b602060405180830381600087803b1580156123fc57600080fd5b505af192505050801561242d57506040513d601f19601f8201168201806040525081019061242a9190613cb6565b60015b6124d357612439613cf0565b806308c379a01415612496575061244e613d12565b806124595750612498565b806040517f08c379a000000000000000000000000000000000000000000000000000000000815260040161248d91906128e7565b60405180910390fd5b505b6040517f08c379a00000000000000000000000000000000000000000000000000000000081526004016124ca90613e1a565b60405180910390fd5b63bc197c8160e01b7bffffffffffffffffffffffffffffffffffffffffffffffffffffffff1916817bffffffffffffffffffffffffffffffffffffffffffffffffffffffff19161461255a576040517f08c379a000000000000000000000000000000000000000000000000000000000815260040161255190613eac565b60405180910390fd5b505b505050505050565b6000808273ffffffffffffffffffffffffffffffffffffffff163b119050919050565b828054612593906131fc565b90600052602060002090601f0160209004810192826125b557600085556125fc565b82601f106125ce57805160ff19168380011785556125fc565b828001600101855582156125fc579182015b828111156125fb5782518255916020019190600101906125e0565b5b509050612609919061260d565b5090565b5b8082111561262657600081600090555060010161260e565b5090565b6000604051905090565b600080fd5b600080fd5b600073ffffffffffffffffffffffffffffffffffffffff82169050919050565b60006126698261263e565b9050919050565b6126798161265e565b811461268457600080fd5b50565b60008135905061269681612670565b92915050565b6000819050919050565b6126af8161269c565b81146126ba57600080fd5b50565b6000813590506126cc816126a6565b92915050565b600080604083850312156126e9576126e8612634565b5b60006126f785828601612687565b9250506020612708858286016126bd565b9150509250929050565b61271b8161269c565b82525050565b60006020820190506127366000830184612712565b92915050565b60007fffffffff0000000000000000000000000000000000000000000000000000000082169050919050565b6127718161273c565b811461277c57600080fd5b50565b60008135905061278e81612768565b92915050565b6000602082840312156127aa576127a9612634565b5b60006127b88482850161277f565b91505092915050565b60008115159050919050565b6127d6816127c1565b82525050565b60006020820190506127f160008301846127cd565b92915050565b6128008161265e565b82525050565b600060208201905061281b60008301846127f7565b92915050565b60006020828403121561283757612836612634565b5b6000612845848285016126bd565b91505092915050565b600081519050919050565b600082825260208201905092915050565b60005b8381101561288857808201518184015260208101905061286d565b83811115612897576000848401525b50505050565b6000601f19601f8301169050919050565b60006128b98261284e565b6128c38185612859565b93506128d381856020860161286a565b6128dc8161289d565b840191505092915050565b6000602082019050818103600083015261290181846128ae565b905092915050565b60008060006060848603121561292257612921612634565b5b600061293086828701612687565b9350506020612941868287016126bd565b9250506040612952868287016126bd565b9150509250925092565b600080fd5b7f4e487b7100000000000000000000000000000000000000000000000000000000600052604160045260246000fd5b6129998261289d565b810181811067ffffffffffffffff821117156129b8576129b7612961565b5b80604052505050565b60006129cb61262a565b90506129d78282612990565b919050565b600067ffffffffffffffff8211156129f7576129f6612961565b5b602082029050602081019050919050565b600080fd5b6000612a20612a1b846129dc565b6129c1565b90508083825260208201905060208402830185811115612a4357612a42612a08565b5b835b81811015612a6c5780612a5888826126bd565b845260208401935050602081019050612a45565b5050509392505050565b600082601f830112612a8b57612a8a61295c565b5b8135612a9b848260208601612a0d565b91505092915050565b600080fd5b600067ffffffffffffffff821115612ac457612ac3612961565b5b612acd8261289d565b9050602081019050919050565b82818337600083830152505050565b6000612afc612af784612aa9565b6129c1565b905082815260208101848484011115612b1857612b17612aa4565b5b612b23848285612ada565b509392505050565b600082601f830112612b4057612b3f61295c565b5b8135612b50848260208601612ae9565b91505092915050565b600080600080600060a08688031215612b7557612b74612634565b5b6000612b8388828901612687565b9550506020612b9488828901612687565b945050604086013567ffffffffffffffff811115612bb557612bb4612639565b5b612bc188828901612a76565b935050606086013567ffffffffffffffff811115612be257612be1612639565b5b612bee88828901612a76565b925050608086013567ffffffffffffffff811115612c0f57612c0e612639565b5b612c1b88828901612b2b565b9150509295509295909350565b600067ffffffffffffffff821115612c4357612c42612961565b5b602082029050602081019050919050565b6000612c67612c6284612c28565b6129c1565b90508083825260208201905060208402830185811115612c8a57612c89612a08565b5b835b81811015612cb35780612c9f8882612687565b845260208401935050602081019050612c8c565b5050509392505050565b600082601f830112612cd257612cd161295c565b5b8135612ce2848260208601612c54565b91505092915050565b60008060408385031215612d0257612d01612634565b5b600083013567ffffffffffffffff811115612d2057612d1f612639565b5b612d2c85828601612cbd565b925050602083013567ffffffffffffffff811115612d4d57612d4c612639565b5b612d5985828601612a76565b9150509250929050565b600081519050919050565b600082825260208201905092915050565b6000819050602082019050919050565b612d988161269c565b82525050565b6000612daa8383612d8f565b60208301905092915050565b6000602082019050919050565b6000612dce82612d63565b612dd88185612d6e565b9350612de383612d7f565b8060005b83811015612e14578151612dfb8882612d9e565b9750612e0683612db6565b925050600181019050612de7565b5085935050505092915050565b60006020820190508181036000830152612e3b8184612dc3565b905092915050565b600080600060608486031215612e5c57612e5b612634565b5b6000612e6a86828701612687565b935050602084013567ffffffffffffffff811115612e8b57612e8a612639565b5b612e9786828701612a76565b925050604084013567ffffffffffffffff811115612eb857612eb7612639565b5b612ec486828701612a76565b9150509250925092565b600067ffffffffffffffff821115612ee957612ee8612961565b5b612ef28261289d565b9050602081019050919050565b6000612f12612f0d84612ece565b6129c1565b905082815260208101848484011115612f2e57612f2d612aa4565b5b612f39848285612ada565b509392505050565b600082601f830112612f5657612f5561295c565b5b8135612f66848260208601612eff565b91505092915050565b60008060408385031215612f8657612f85612634565b5b6000612f94858286016126bd565b925050602083013567ffffffffffffffff811115612fb557612fb4612639565b5b612fc185828601612f41565b9150509250929050565b612fd4816127c1565b8114612fdf57600080fd5b50565b600081359050612ff181612fcb565b92915050565b6000806040838503121561300e5761300d612634565b5b600061301c85828601612687565b925050602061302d85828601612fe2565b9150509250929050565b6000806040838503121561304e5761304d612634565b5b600061305c85828601612687565b925050602061306d85828601612687565b9150509250929050565b600080600080600060a0868803121561309357613092612634565b5b60006130a188828901612687565b95505060206130b288828901612687565b94505060406130c3888289016126bd565b93505060606130d4888289016126bd565b925050608086013567ffffffffffffffff8111156130f5576130f4612639565b5b61310188828901612b2b565b9150509295509295909350565b60006020828403121561312457613123612634565b5b600061313284828501612687565b91505092915050565b7f455243313135353a2061646472657373207a65726f206973206e6f742061207660008201527f616c6964206f776e657200000000000000000000000000000000000000000000602082015250565b6000613197602a83612859565b91506131a28261313b565b604082019050919050565b600060208201905081810360008301526131c68161318a565b9050919050565b7f4e487b7100000000000000000000000000000000000000000000000000000000600052602260045260246000fd5b6000600282049050600182168061321457607f821691505b60208210811415613228576132276131cd565b5b50919050565b600081905092915050565b60008190508160005260206000209050919050565b6000815461325b816131fc565b613265818661322e565b945060018216600081146132805760018114613291576132c4565b60ff198316865281860193506132c4565b61329a85613239565b60005b838110156132bc5781548189015260018201915060208101905061329d565b838801955050505b50505092915050565b60006132d88261284e565b6132e2818561322e565b93506132f281856020860161286a565b80840191505092915050565b600061330a828561324e565b915061331682846132cd565b91508190509392505050565b7f4d756c7469546f6b656e3a20596f7520617265206e6f7420746865206d696e7460008201527f6572000000000000000000000000000000000000000000000000000000000000602082015250565b600061337e602283612859565b915061338982613322565b604082019050919050565b600060208201905081810360008301526133ad81613371565b9050919050565b7f455243313135353a2063616c6c6572206973206e6f7420746f6b656e206f776e60008201527f6572206f7220617070726f766564000000000000000000000000000000000000602082015250565b6000613410602e83612859565b915061341b826133b4565b604082019050919050565b6000602082019050818103600083015261343f81613403565b9050919050565b7f455243313135353a206163636f756e747320616e6420696473206c656e67746860008201527f206d69736d617463680000000000000000000000000000000000000000000000602082015250565b60006134a2602983612859565b91506134ad82613446565b604082019050919050565b600060208201905081810360008301526134d181613495565b9050919050565b7f4e487b7100000000000000000000000000000000000000000000000000000000600052603260045260246000fd5b7f4e487b7100000000000000000000000000000000000000000000000000000000600052601160045260246000fd5b60006135418261269c565b91507fffffffffffffffffffffffffffffffffffffffffffffffffffffffffffffffff82141561357457613573613507565b5b600182019050919050565b7f4f776e61626c653a206e6577206f776e657220697320746865207a65726f206160008201527f6464726573730000000000000000000000000000000000000000000000000000602082015250565b60006135db602683612859565b91506135e68261357f565b604082019050919050565b6000602082019050818103600083015261360a816135ce565b9050919050565b7f4d756c7469546f6b656e3a204d696e7465722063616e2774206265207468652060008201527f3020616464726573730000000000000000000000000000000000000000000000602082015250565b600061366d602983612859565b915061367882613611565b604082019050919050565b6000602082019050818103600083015261369c81613660565b9050919050565b7f4e487b7100000000000000000000000000000000000000000000000000000000600052601260045260246000fd5b7f455243313135353a206d696e7420746f20746865207a65726f2061646472657360008201527f7300000000000000000000000000000000000000000000000000000000000000602082015250565b600061372e602183612859565b9150613739826136d2565b604082019050919050565b6000602082019050818103600083015261375d81613721565b9050919050565b600061376f8261269c565b915061377a8361269c565b9250827fffffffffffffffffffffffffffffffffffffffffffffffffffffffffffffffff038211156137af576137ae613507565b5b828201905092915050565b60006040820190506137cf6000830185612712565b6137dc6020830184612712565b9392505050565b7f455243313135353a2069647320616e6420616d6f756e7473206c656e6774682060008201527f6d69736d61746368000000000000000000000000000000000000000000000000602082015250565b600061383f602883612859565b915061384a826137e3565b604082019050919050565b6000602082019050818103600083015261386e81613832565b9050919050565b7f455243313135353a207472616e7366657220746f20746865207a65726f20616460008201527f6472657373000000000000000000000000000000000000000000000000000000602082015250565b60006138d1602583612859565b91506138dc82613875565b604082019050919050565b60006020820190508181036000830152613900816138c4565b9050919050565b7f455243313135353a20696e73756666696369656e742062616c616e636520666f60008201527f72207472616e7366657200000000000000000000000000000000000000000000602082015250565b6000613963602a83612859565b915061396e82613907565b604082019050919050565b6000602082019050818103600083015261399281613956565b9050919050565b600060408201905081810360008301526139b38185612dc3565b905081810360208301526139c78184612dc3565b90509392505050565b7f455243313135353a206275726e2066726f6d20746865207a65726f206164647260008201527f6573730000000000000000000000000000000000000000000000000000000000602082015250565b6000613a2c602383612859565b9150613a37826139d0565b604082019050919050565b60006020820190508181036000830152613a5b81613a1f565b9050919050565b7f455243313135353a206275726e20616d6f756e7420657863656564732062616c60008201527f616e636500000000000000000000000000000000000000000000000000000000602082015250565b6000613abe602483612859565b9150613ac982613a62565b604082019050919050565b60006020820190508181036000830152613aed81613ab1565b9050919050565b7f4f776e61626c653a2063616c6c6572206973206e6f7420746865206f776e6572600082015250565b6000613b2a602083612859565b9150613b3582613af4565b602082019050919050565b60006020820190508181036000830152613b5981613b1d565b9050919050565b7f455243313135353a2073657474696e6720617070726f76616c2073746174757360008201527f20666f722073656c660000000000000000000000000000000000000000000000602082015250565b6000613bbc602983612859565b9150613bc782613b60565b604082019050919050565b60006020820190508181036000830152613beb81613baf565b9050919050565b600081519050919050565b600082825260208201905092915050565b6000613c1982613bf2565b613c238185613bfd565b9350613c3381856020860161286a565b613c3c8161289d565b840191505092915050565b600060a082019050613c5c60008301886127f7565b613c6960208301876127f7565b613c766040830186612712565b613c836060830185612712565b8181036080830152613c958184613c0e565b90509695505050505050565b600081519050613cb081612768565b92915050565b600060208284031215613ccc57613ccb612634565b5b6000613cda84828501613ca1565b91505092915050565b60008160e01c9050919050565b600060033d1115613d0f5760046000803e613d0c600051613ce3565b90505b90565b600060443d1015613d2257613da5565b613d2a61262a565b60043d036004823e80513d602482011167ffffffffffffffff82111715613d52575050613da5565b808201805167ffffffffffffffff811115613d705750505050613da5565b80602083010160043d038501811115613d8d575050505050613da5565b613d9c82602001850186612990565b82955050505050505b90565b7f455243313135353a207472616e7366657220746f206e6f6e2d4552433131353560008201527f526563656976657220696d706c656d656e746572000000000000000000000000602082015250565b6000613e04603483612859565b9150613e0f82613da8565b604082019050919050565b60006020820190508181036000830152613e3381613df7565b9050919050565b7f455243313135353a204552433131353552656365697665722072656a6563746560008201527f6420746f6b656e73000000000000000000000000000000000000000000000000602082015250565b6000613e96602883612859565b9150613ea182613e3a565b604082019050919050565b60006020820190508181036000830152613ec581613e89565b9050919050565b600060a082019050613ee160008301886127f7565b613eee60208301876127f7565b8181036040830152613f008186612dc3565b90508181036060830152613f148185612dc3565b90508181036080830152613f288184613c0e565b9050969550505050505056fea26469706673582212204f568b271ae409e4def67acb387d8c9072e74a5400dccf31f47e2b6de378d8d964736f6c63430008090033",
  "linkReferences": {},
  "deployedLinkReferences": {}
}