{
  "_format": "hh-sol-artifact-1",
  "contractName": "MintingContract",
  "sourceName": "contracts/MintingContract.sol",
  "abi": [
    {
      "inputs": [
        {
          "internalType": "contract IERC20",
          "name": "_token",
          "type": "address"
        },
        {
          "internalType": "contract MrNFT",
          "name": "_nft",
          "type": "address"
        }
      ],
      "stateMutability": "nonpayable",
      "type": "constructor"
    },
    {
      "inputs": [],
      "name": "buyNFT",
      "outputs": [],
      "stateMutability": "nonpayable",
      "type": "function"
    },
    {
      "inputs": [],
      "name": "nft",
      "outputs": [
        {
          "internalType": "contract MrNFT",
          "name": "",
          "type": "address"
        }
      ],
      "stateMutability": "view",
      "type": "function"
    },
    {
      "inputs": [],
      "name": "token",
      "outputs": [
        {
          "internalType": "contract IERC20",
          "name": "",
          "type": "address"
        }
      ],
      "stateMutability": "view",
      "type": "function"
    }
  ],
  "bytecode": "0x608060405234801561001057600080fd5b506040516106e83803806106e88339818101604052810190610032919061016d565b816000806101000a81548173ffffffffffffffffffffffffffffffffffffffff021916908373ffffffffffffffffffffffffffffffffffffffff16021790555080600160006101000a81548173ffffffffffffffffffffffffffffffffffffffff021916908373ffffffffffffffffffffffffffffffffffffffff16021790555050506101ad565b600080fd5b600073ffffffffffffffffffffffffffffffffffffffff82169050919050565b60006100ea826100bf565b9050919050565b60006100fc826100df565b9050919050565b61010c816100f1565b811461011757600080fd5b50565b60008151905061012981610103565b92915050565b600061013a826100df565b9050919050565b61014a8161012f565b811461015557600080fd5b50565b60008151905061016781610141565b92915050565b60008060408385031215610184576101836100ba565b5b60006101928582860161011a565b92505060206101a385828601610158565b9150509250929050565b61052c806101bc6000396000f3fe608060405234801561001057600080fd5b50600436106100415760003560e01c806347ccca0214610046578063bff29cee14610064578063fc0c546a1461006e575b600080fd5b61004e61008c565b60405161005b91906102da565b60405180910390f35b61006c6100b2565b005b610076610237565b6040516100839190610316565b60405180910390f35b600160009054906101000a900473ffffffffffffffffffffffffffffffffffffffff1681565b60008054906101000a900473ffffffffffffffffffffffffffffffffffffffff1673ffffffffffffffffffffffffffffffffffffffff166323b872dd3330678ac7230489e800006040518463ffffffff1660e01b815260040161011793929190610397565b602060405180830381600087803b15801561013157600080fd5b505af1158015610145573d6000803e3d6000fd5b505050506040513d601f19601f82011682018060405250810190610169919061040b565b6101a8576040517f08c379a000000000000000000000000000000000000000000000000000000000815260040161019f906104bb565b60405180910390fd5b600160009054906101000a900473ffffffffffffffffffffffffffffffffffffffff1673ffffffffffffffffffffffffffffffffffffffff16636a627842336040518263ffffffff1660e01b815260040161020391906104db565b600060405180830381600087803b15801561021d57600080fd5b505af1158015610231573d6000803e3d6000fd5b50505050565b60008054906101000a900473ffffffffffffffffffffffffffffffffffffffff1681565b600073ffffffffffffffffffffffffffffffffffffffff82169050919050565b6000819050919050565b60006102a061029b6102968461025b565b61027b565b61025b565b9050919050565b60006102b282610285565b9050919050565b60006102c4826102a7565b9050919050565b6102d4816102b9565b82525050565b60006020820190506102ef60008301846102cb565b92915050565b6000610300826102a7565b9050919050565b610310816102f5565b82525050565b600060208201905061032b6000830184610307565b92915050565b600061033c8261025b565b9050919050565b61034c81610331565b82525050565b6000819050919050565b6000819050919050565b600061038161037c61037784610352565b61027b565b61035c565b9050919050565b61039181610366565b82525050565b60006060820190506103ac6000830186610343565b6103b96020830185610343565b6103c66040830184610388565b949350505050565b600080fd5b60008115159050919050565b6103e8816103d3565b81146103f357600080fd5b50565b600081519050610405816103df565b92915050565b600060208284031215610421576104206103ce565b5b600061042f848285016103f6565b91505092915050565b600082825260208201905092915050565b7f4d696e74696e67546f6b656e3a205472616e7366657246726f6d206661696c6560008201527f6400000000000000000000000000000000000000000000000000000000000000602082015250565b60006104a5602183610438565b91506104b082610449565b604082019050919050565b600060208201905081810360008301526104d481610498565b9050919050565b60006020820190506104f06000830184610343565b9291505056fea2646970667358221220322949ea44c103e8c5995f4b5507ea3138e3a25ea03da33887e70adcb28f49a964736f6c63430008090033",
  "linkReferences": {},
  "deployedLinkReferences": {}
}